:020000040800F2
:1000000000500020DD270008891B0008911B000814
:10001000991B0008A11B0008A91B00080000000094
:10002000000000000000000000000000B11B0008FC
:10003000BD1B000800000000C91B0008D51B0008FC
:10004000252800082528000825280008252800085C
:10005000252800082528000825280008252800084C
:10006000252800082528000825280008252800083C
:10007000252800082528000825280008E11B00087D
:10008000252800082528000825280008252800081C
:10009000252800082528000825280008252800080C
:1000A00025280008252800082528000825280008FC
:1000B000F51B000825280008252800082528000829
:1000C00025280008252800082528000825280008DC
:1000D00025280008091C00082528000825280008F4
:1000E0002528000825280008252800080000000011
:1000F0000000000000000000000000000000000000
:0C01000000000000000000005FF808F1A3
:10010C0010B5054C237833B9044B13B10448AFF345
:10011C0000800123237010BD30000020000000007F
:10012C00085E000808B5034B1BB103490348AFF345
:10013C00008008BD0000000034000020085E0008AC
:10014C0080B582B000AF284B93F81C32002B01D045
:10015C00002345E04FF408720021234805F014FEFB
:10016C00214B1422C3F808221F4B4FF47A72C3F8A8
:10017C000C220023FB7117E00023BB710EE0FA790F
:10018C00BB79920013441B01174A1344BA79F979CD
:10019C00184600F085FABB790133BB71BB79032B90
:1001AC00EDD9FB790133FB71FB79032BE4D90023E7
:1001BC007B7107E07B790121184600F05DF97B79B2
:1001CC0001337B717B79032BF4D902F07FFB03465F
:1001DC00054AC2F81032044B012283F81C2200237A
:1001EC0018460837BD4680BD4C00002080B586B04F
:1001FC0000AF5E4B93F81C3283F00103DBB2002B93
:10020C0040F0B08002F062FB3861584BD3F81432E6
:10021C000133564AC2F814320023FB758BE00023DD
:10022C00BB750FE0BA7DFB7D9A4214BF01230023FE
:10023C00DBB21A46BB7D1146184600F01DF9BB7D9A
:10024C000133BB75BB7D032BECD9022000F04AFABD
:10025C0000237B7569E07B7D184600F02DF9034681
:10026C00FB73FB7B002B0CBF01230023BB73FA7DBC
:10027C007B7D920013441B013C4A1344BB60BB7B47
:10028C001946B86800F038F90346002B16D0B86848
:10029C0000F0BCF9354BD3F818320133334AC2F8AD
:1002AC001832324BD3F80432002B07D02F4BD3F833
:1002BC000432BA689278797DF87D9847BB689B7850
:1002CC00012B2FD1BB7B002B2CD0BB685B683A6910
:1002DC00D31A7B60254BD3F80C327A689A4221D31F
:1002EC00BB689B78022B1DD0BB689A78BB68DA7010
:1002FC00BB6802229A70B86800F088F91B4BD3F8DF
:10030C0018320133194AC2F81832184BD3F8043298
:10031C00002B07D0154BD3F80432BA689278797D4C
:10032C00F87D98477B7D01337B757B7D032B92D9C0
:10033C00FB7D0133FB75FB7D032B7FF670AF002338
:10034C003B7507E03B7D0121184600F095F83B7D9D
:10035C0001333B753B7D032BF4D9044A3B69C2F84E
:10036C00103200E000BF1837BD4680BD4C000020A5
:10037C0090B48AB000AF786007F1180300221A60BD
:10038C005A609A60DA60224B93F81C3283F00103B6
:10039C00DBB2002B04D11E4B93F80232002B07D199
:1003AC007B681C4607F118030FCB84E80F0029E08B
:1003BC00174B93F80132164A10331B01134407F103
:1003CC0008040FCB84E80F00114B93F80132013372
:1003DC005A4203F00F0302F00F0258BF5342DAB235
:1003EC000B4B83F801220A4B93F80232013BDAB231
:1003FC00074B83F802227B681C4607F108030FCBDE
:10040C0084E80F0078682837BD4690BC704700BF61
:10041C004C00002080B483B000AF7860094B93F897
:10042C001C3283F00103DBB2002B01D0012304E06A
:10043C00044A7B68C2F80432002318460C37BD46C8
:10044C0080BC70474C00002080B582B000AF02F039
:10045C003DFA7860074B1B687A68D31A042B04D9D1
:10046C00FFF7C4FE034A7B68136000BF0837BD4624
:10047C0080BD00BF6C02002080B582B000AF034687
:10048C000A46FB711346BB71FB79032B0BD8FB7926
:10049C00074A52F82300FB79064A32F81330BA792E
:1004AC00194602F08CFF00BF0837BD4680BD00BF67
:1004BC0000000020B45E000880B582B000AF034697
:1004CC00FB71FB79032B0DD8FB79094A52F82320D9
:1004DC00FB79084931F813301946104602F058FFE1
:1004EC00034600E0012318460837BD4680BD00BF17
:1004FC0010000020BC5E000880B584B000AF7860AE
:10050C000B46FB7002F0E2F9B8600023FB73FB783A
:10051C00002B2ED07B689B78002B06D17B68BA68A9
:10052C009A607B6801221A7369E07B681B7B01333C
:10053C00DAB27B681A737B681B7B022B5FD97B68F2
:10054C009B68BA68D21A304BD3F808329A4256D309
:10055C007B689B78002B52D17B689A787B68DA7029
:10056C007B6801229A707B68BA685A600123FB731E
:10057C0045E07B689B78002B06D07B68BA689A6054
:10058C007B6801221A7319E07B689B68002B15D0DD
:10059C007B681B7B0133DAB27B681A737B681B7B2D
:1005AC00022B0BD97B689B68BA68D21A164BD3F80E
:1005BC0008329A4202D37B6800229A607B689B784F
:1005CC00002B1CD07B689B68002B18D07B689B6829
:1005DC00BA68D21A0C4BD3F808329A420FD37B6804
:1005EC001B7B022B0BD97B689A787B68DA707B6853
:1005FC0000229A707B6800229A600123FB73FB7BBC
:10060C0018461037BD4680BD4C00002090B482B017
:10061C0000AF7860214B93F802320F2B16D91F4B89
:10062C0093F8013201335A4203F00F0302F00F0228
:10063C0058BF5342DAB2194B83F80122174B93F887
:10064C000232013BDAB2154B83F80222134B93F8BA
:10065C000032124A10331B011A447B6814460FCB2C
:10066C0084E80F000D4B93F8003201335A4203F02B
:10067C000F0302F00F0258BF5342DAB2074B83F854
:10068C000022064B93F802320133DAB2034B83F8A3
:10069C00022200BF0837BD4690BC70474C000020BA
:1006AC0080B483B000AF78600B46FB701346BB7010
:1006BC007B68FA781A707B68BA785A707B6800226B
:1006CC009A707B680022DA707B6800225A607B6823
:1006DC0000229A607B6800221A7300BF0C37BD465B
:1006EC0080BC704780B485B000AF78600D4B5B6800
:1006FC00FB600D4B1B680D4AA2FB03239A0C7B6815
:10070C0002FB03F3BB6000BF064B5A68FB68D31AAD
:10071C00BA689A42F8D800BF00BF1437BD4680BCF7
:10072C00704700BF001000E02000002083DE1B4358
:10073C0080B483B000AF03460A46FB711346BB710D
:10074C00FB79032B02D8BB79032B01D9FF2306E0DD
:10075C00FA79BB79044992000A4413441B78184671
:10076C000C37BD4680BC7047A45E000880B485B0D1
:10077C0000AF786039607B68002B46D03B68002B5B
:10078C0043D00023FB601AE00023BB6011E07A68C1
:10079C00FB68DB001A44BB68134419783A68FB68A1
:1007AC00DB001A44BB6813440A461A70BB68013359
:1007BC00BB60BB68072BEADDFB680133FB60FB68A1
:1007CC00072BE1DD7B6893F840203B6883F84020E1
:1007DC007B6893F841203B6883F841207B6893F851
:1007EC0042203B6883F842207B6893F84330002B0F
:1007FC0014BF01230023DBB21A463B6883F8432065
:10080C007B685A6C3B685A6400E000BF1437BD46E5
:10081C0080BC704780B594B000AF786007F10803D6
:10082C0019467868FFF7A2FF07F10803184601F094
:10083C00F1FC034618465037BD4680BD80B500AF6D
:10084C0001F0ECFF00F04EF800F04EF900F02EF93C
:10085C0000F08EF800F000F91E4BDB681D4A43F0E7
:10086C008073D3601C4B1B681B4A43F0010313605D
:10087C0001F0D6FD0346002B01D000F084FCFFF7FD
:10088C005FFC0346002B01D000F07DFC01F0C6F9A3
:10089C000346002B01D000F076FC1048FFF7BAFDA0
:1008AC000F4801F0C9FB00F075FC0346002B01D08A
:1008BC0000F069FC00F082F901F0BCFE00F09AF93E
:1008CC00FFF7C2FD01F06AFC012002F009F800BF3D
:1008DC00F4E700BFF0ED00E0001000E0950F000819
:1008EC00F90F000880B590B000AF07F1180328226B
:1008FC000021184605F048FA3B1D00221A605A6088
:10090C009A60DA601A610123BB614FF48033FB619A
:10091C0000233B620123BB6202237B634FF48033D1
:10092C00BB634FF4E013FB6307F11803184602F0A6
:10093C005FFD0346002B01D000F025FC0F237B60EC
:10094C000223BB600023FB604FF480633B610023F8
:10095C007B613B1D0221184602F0CCFF0346002BA5
:10096C0001D000F010FC00BF4037BD4680BD000038
:10097C0080B58EB000AF07F1280300221A605A60D0
:10098C009A60DA6007F1200300221A605A603B1D5E
:10099C0000221A605A609A60DA601A615A619A6190
:1009AC002C4B4FF080421A602A4B00225A60294B84
:1009BC0000229A60274B5922DA60264B00221A61DA
:1009CC00244B00229A61234803F022F90346002BA2
:1009DC0001D000F0D8FB4FF48053BB6207F1280321
:1009EC0019461C4803F078FE0346002B01D000F09A
:1009FC00CAFB184803F05BF90346002B01D000F04A
:100A0C00C2FB00233B6200237B6207F120031946E3
:100A1C00104804F0DFFA0346002B01D000F0B3FBC2
:100A2C0060237B600023BB600023FB6000237B61A1
:100A3C003B1D00221946074803F08CFD0346002B92
:100A4C0001D000F0A0FB034801F014F800BF3837C8
:100A5C00BD4680BD7002002080B500AF114B124A1C
:100A6C001A60104B4FF4E1325A600E4B00229A6020
:100A7C000C4B0022DA600B4B00221A61094B0C2242
:100A8C005A61084B00229A61064B0022DA61054834
:100A9C0004F010FB0346002B01D000F074FB00BFE8
:100AAC0080BD00BFFC0200200038014080B582B040
:100ABC0000AF0C4B5B690B4A43F001035361094BCC
:100ACC005B6903F001037B607B68002202210F202D
:100ADC0002F001F80F2002F01AF800BF0837BD46EB
:100AEC0080BD00BF0010024080B588B000AF07F198
:100AFC00100300221A605A609A60DA60244B9B69DA
:100B0C00234A43F020039361214B9B6903F020039C
:100B1C00FB60FB681E4B9B691D4A43F00403936109
:100B2C001B4B9B6903F00403BB60BB68184B9B69B0
:100B3C00174A43F008039361154B9B6903F00803B4
:100B4C007B607B6801224FF47041124802F037FC45
:100B5C004FF470433B6101237B610023BB61022393
:100B6C00FB6107F1100319460A4802F08DFA4FF4A5
:100B7C00F0733B6100237B610123BB6107F1100320
:100B8C001946044802F080FA00BF2037BD4680BDEC
:100B9C0000100240000C014080B582B000AF7860BC
:100BAC007B681B68B3F1804F02D1034801F028FD2C
:100BBC0000BF0837BD4680BDB802002080B500AF2D
:100BCC0020220021084805F0DFF8084800F0F8FA68
:100BDC000346002B02D1064B01221A7001F0A6FC31
:100BEC0000F02CF800BF80BDE0030020440300207F
:100BFC000004002080B584B000AF3B461846FFF7D8
:100C0C00B7FBBB78002B03D03B46184600F060F8CE
:100C1C0000F020F9074B1B78002B07D0064800F09A
:100C2C001DFC0346002B01D000F032F900BF103739
:100C3C00BD4680BD000400204403002080B584B074
:100C4C0000AF01F073FC0023FB7334E00023BB7393
:100C5C002BE0BA7BFB7B19461B4800F0EBFC0346F0
:100C6C007B737B7B012B0CD100233B7200237B72AB
:100C7C000023BB72B97BFB7BBA68184601F014FCED
:100C8C0010E07B7B022B0DD1104A3B1D12681146E4
:100C9C0019800233120C1A70B97BFB7B7A681846E8
:100CAC0001F002FCBB7B0133BB73BB7B072BD0D9A0
:100CBC00FB7B0133FB73FB7B072BC7D901F04AFC91
:100CCC0000BF1037BD4680BD44030020A05E000865
:100CDC0080B586B000AF78605B4B1B7883F0010366
:100CEC00DBB2002B40F0A6807B68002B00F0A280CA
:100CFC007B681A787B685B7819461046FFF718FDFD
:100D0C000346FB757B689B78012B40F09A80FB7D3A
:100D1C000D2B76D801A252F823F000BF610D00080C
:100D2C000F0E00080F0E00080F0E00080F0E000823
:100D3C007B0D00080F0E00080F0E00080F0E0008A8
:100D4C000F0E0008070E00080F0E00080F0E00080B
:100D5C00FB0D00083D493E4800F08BFC0346002B80
:100D6C006AD13A4800F02CFAFFF768FF64E07B6820
:100D7C0019787B685A78354B93F84030334800F03B
:100D8C007DFA0346002B14D07B6819787B685A785F
:100D9C002E4B93F840302D4800F0AAFA0346BB7551
:100DAC00BB7D002B4AD0FFF749FF2848FFF732FDE7
:100DBC0044E07B681B78072B40D87B685B78072B5B
:100DCC003CD87B6818787B685B78FF223A740022E9
:100DDC007A740022BA743A69194601F065FB01F085
:100DEC00B9FBC82001F07CFDFFF728FF26E017486F
:100DFC0000F0E6F9FFF722FF23E01448FFF70AFDA5
:100E0C001FE07B681B78072B1AD87B685B78072B55
:100E1C0016D87B6818787B685B7800223A73FF22BF
:100E2C007A730022BA73FA68194601F03DFB01F09F
:100E3C0091FB05E000BF04E000BF02E000BF00E052
:100E4C0000BF1837BD4680BD0004002044030020BD
:100E5C00E003002080B582B000AF01F037FD786070
:100E6C00094B1B687A68D31A632B08D9064A7B682E
:100E7C001360064B1B78002B01D0FFF7DFFE00BF81
:100E8C000837BD4680BD00BF0404002000040020CC
:100E9C0080B586B000AF384B1B78002B67D1364B32
:100EAC0001221A703549364800F0E3FB334800F054
:100EBC00ECFA03467B7501F039FB7B7D012B09D1E4
:100ECC0000233B7400237B740023BB74386901F04E
:100EDC006DFB3FE07B7D022B0CD12A4A07F10C0302
:100EEC001268114619800233120C1A70F86801F05E
:100EFC005DFB2FE00023FB7529E00023BB7520E090
:100F0C00FA7DBB7D1344DBB203F00103002B06D149
:100F1C0000233B7200237B720023BB7208E0194A4A
:100F2C0007F108031268114619800233120C1A706B
:100F3C00B97DFB7DBA68184601F0B6FABB7D01336A
:100F4C00BB75BB7D072BDBD9FB7D0133FB75FB7DB3
:100F5C00072BD2D901F0FEFA0848FFF75BFC41F2EF
:100F6C00883001F0BDFC044B00221A7000E000BF79
:100F7C001837BD4680BD00BF080400204403002084
:100F8C00E0030020A05E000880B584B000AF0346EB
:100F9C00FB710B46BB7113467B71BA79FB79114619
:100FAC001846FFF7C5FB0346FB73FB7B7A79B979CF
:100FBC00F87901F042F97B79012B13D1FB79072BDE
:100FCC0010D8BB79072B0DD800233B73FF237B7301
:100FDC000023BB73B979FB79FA68184601F064FAFF
:100FEC0001F0B8FA00BF1037BD4680BD80B586B0A1
:100FFC0000AF03463960FB711346BB71FB79013BB3
:10100C000A2B00F2A88001A252F823F05B11000811
:10101C0045100008C110000863110008CD1000082D
:10102C00D310000855110008631100086311000863
:10103C0063110008E5100008BB79082B34D13B681C
:10104C003B613B6919783B695A78484B93F84030BF
:10105C00464800F013F90346002B1FD03B69197862
:10106C003B695A78414B93F84030404800F040F9C6
:10107C000346FB73FB7B002B0AD0FFF7DFFDFB79EC
:10108C000021184600F0F2FF3848FFF7C3FB69E077
:10109C00FB790221184600F0E9FF63E0FB7901219E
:1010AC00184600F0E3FF5DE0FB790321184600F0E1
:1010BC00DDFF57E0FB790021184600F0D7FF51E027
:1010CC0001F0E2F84EE02948FFF7A4FBFB79002180
:1010DC00184600F0CBFF45E0BB79032B2ED93B68BB
:1010EC001B78FB753B685B78BB753B689B783B73E7
:1010FC003B68DB787B73BB79042B03D93B680433E7
:10110C001B7800E00023BB73FB7D072B10D8BB7D45
:10111C00072B0DD8B97DFB7DFA68184601F0C4F990
:10112C0001F018FAFB790021184600F09FFF19E036
:10113C00FB790221184600F099FF13E0FB7901219D
:10114C00184600F093FF0DE001F010F80AE0074894
:10115C00FFF760FB06E0FB1D01221946012000F0A1
:10116C009DFF00BF00BF1837BD4680BD4403002063
:10117C0080B582B000AF7860786801F0ADF800BF40
:10118C000837BD4680BD80B400AF72B600BF00BF4B
:10119C00FDE7000080B500AF084B1B78002B01D099
:1011AC00002308E024220021044804F0EDFD034B49
:1011BC0001221A700023184680BD00BF0C040020C9
:1011CC0080B582B000AF78602B4B1B7883F00103A5
:1011DC00DBB2002B02D17B68002B01D1012346E04E
:1011EC009C220021786804F0CFFD7B680122DA761E
:1011FC007B68012283F824207B6802221A777B68A3
:10120C00022283F823207B68012283F840207B682C
:10121C00022283F841207B68022283F842207B68FB
:10122C00002283F843207B6800225A647B680022EA
:10123C0083F8502001F04AFB02467B685A657B68B4
:10124C00FF2283F848207B68FF2283F849207B68C3
:10125C00002283F84A207B68002283F84B207B68AD
:10126C005A6D7B68DA64786800F041FB00231846FD
:10127C000837BD4680BD00BF0C04002080B582B08D
:10128C0000AF7860084611461A460346FB700B46C1
:10129C00BB7013467B707B68002B0BD0FB78072B45
:1012AC0008D8BB78072B05D87B78012B04D07B782A
:1012BC00022B01D0002316E0FA78BB787968D200B3
:1012CC000A4413441B78002B01D000230BE07B78DD
:1012DC00BA78F978786800F027F90346002B14BF28
:1012EC0001230023DBB218460837BD4680BD000041
:1012FC0090B589B004AF7860084611461A4603468B
:10130C00FB700B46BB7013467B707B68002B10D0B8
:10131C007B6893F84330002B0BD17B78BA78F97843
:10132C007868FFF7ABFF034683F00103DBB2002BB9
:10133C0001D000238CE00023FB73FA78BB7879682A
:10134C00D2000A4413447A781A700023BB601DE063
:10135C00414ABB6812F913403F4ABB685B00134417
:10136C0093F90130B878F978012202927A780192D7
:10137C00009323460246786800F0FEF903461A46AD
:10138C00FB7B1344FB73BB680133BB60BB68072B4F
:10139C00DEDD7B68FA7883F848207B68BA7883F8BE
:1013AC0049207B687A7883F84A207B68FA7B83F83B
:1013BC004B2001F08BFA02467B68DA647B685B6C2D
:1013CC005A1C7B685A647B68002283F8502078682A
:1013DC0000F06FFA786800F08AFA7B78012B01D163
:1013EC00022200E001227B6883F840207B6893F89E
:1013FC0040301946786800F06AF8034683F0010320
:10140C00DBB2002B16D07B781946786800F05FF8B9
:10141C00034683F00103DBB2002B03D0786800F0A5
:10142C007CFA07E07B687A7883F840207B6801229D
:10143C0083F850207B6893F841301A467B6893F808
:10144C0042301344402B02D1786800F066FAFB7BE3
:10145C0018461437BD4690BDC45E000880B483B0F6
:10146C0000AF78607B68002B04D07B6893F8433026
:10147C00002B01D0012300E0002303F00103DBB2B9
:10148C0018460C37BD4680BC704780B483B000AFA3
:10149C0078607B68002B04D07B6893F84330002B7A
:1014AC0001D100230EE07B6893F84330012B01D16E
:1014BC00012307E07B6893F84330022B01D1022310
:1014CC0000E0002318460C37BD4680BC704780B541
:1014DC0084B000AF78600B46FB707B68002B01D1A9
:1014EC0000231DE00023FB7316E00023BB730DE00B
:1014FC00FB78BA7BF97B7868FFF7C0FE0346002BBC
:10150C0001D001230CE0BB7B0133BB73BB7B072BEE
:10151C00EED9FB7B0133FB73FB7B072BE5D9002357
:10152C0018461037BD4680BD90B589B004AF7860C1
:10153C00084611461A460346FB700B46BB70134611
:10154C007B707B68002B14D0FB78072B11D8BB78F1
:10155C00072B0ED8FA78BB787968D2000A4413446A
:10156C001B78002B05D17B78012B04D07B78022BC8
:10157C0001D0002326E00023FB730023BB601DE099
:10158C00124ABB6812F91340104ABB685B00134443
:10159C0093F90130B878F978002202927A780192A6
:1015AC00009323460246786800F0E6F803461A4694
:1015BC00FB7B1344FB73BB680133BB60BB68072B1D
:1015CC00DEDDFB7B18461437BD4690BDC45E0008BB
:1015DC0080B485B000AF78600B46FB707B68002B45
:1015EC0001D1002321E00023FB730023BB7318E01F
:1015FC0000237B730FE0BA7B7B7B7968D2000A44B3
:10160C0013441B78FA789A4202D1FB7B0133FB73AB
:10161C007B7B01337B737B7B072BECD9BB7B01334F
:10162C00BB73BB7B072BE3D9FB7B18461437BD463A
:10163C0080BC704780B483B000AF78600B46FB7001
:10164C001346BB707B68002B05D0FB78072B02D8A8
:10165C00BB78072B01D9002306E0FA78BB787968B0
:10166C00D2000A4413441B7818460C37BD4680BC84
:10167C00704780B584B000AF786039607B68002B10
:10168C0002D03B68002B01D1012356E07B681B681C
:10169C005A1C7B681A607B681A693B685B6C1A443D
:1016AC007B681A613B6893F84330032B12D0032BF1
:1016BC0016DC012B02D0022B06D011E07B685B6894
:1016CC005A1C7B685A600CE07B689B685A1C7B68D0
:1016DC009A6006E07B68DB685A1C7B68DA6000E085
:1016EC0000BF7B681B68012B08D13B685A6C7B6878
:1016FC005A613B685A6C7B689A6113E03B685A6C80
:10170C007B685B699A4203D93B685A6C7B685A6167
:10171C003B685A6C7B689B699A4203D23B685A6C53
:10172C007B689A61386800F00DF8F8607B68DA69BC
:10173C00FB681A447B68DA61002318461037BD46F3
:10174C0080BD000080B584B000AF78607B68002B52
:10175C0001D100230AE001F0B9F8F8607B685B6DF9
:10176C00FA68D31A034AA2FB03239B0918461037C5
:10177C00BD4680BDD34D621080B485B000AF78609B
:10178C00084611461A460346FB700B46BB701346BF
:10179C007B703B7F012B01D1022300E00123FB7204
:1017AC000023FB737A78FB781344DBB2BB733A7E6D
:1017BC00BB781344DBB27B730CE0FB7B0133FB7314
:1017CC00BA7B7B781344DBB2BB737A7B3B7E1344CE
:1017DC00DBB27B7397F90E30002B17DB97F90E30C9
:1017EC00072B13DC97F90D30002B0FDB97F90D301D
:1017FC00072B0BDC97F90E2097F90D307968D20086
:10180C000A4413441B78FA7A9A42D6D0FB7B002BFD
:10181C0049D097F90E30002B45DB97F90E30072B8A
:10182C0041DC97F90D30002B3DDB97F90D30072B80
:10183C0039DC97F90E2097F90D307968D2000A44FB
:10184C0013441B783A7F9A422DD197F82030002B05
:10185C0027D07A78FB781344DBB2BB733A7EBB7823
:10186C001344DBB27B7300233B7316E097F90E2015
:10187C0097F90D307968D2000A4413443A7F1A70F4
:10188C00BA7B7B781344DBB2BB737A7B3B7E13440D
:10189C00DBB27B733B7B01333B733A7BFB7B9A4222
:1018AC00E4D3FB7B00E0002318461437BD4680BC14
:1018BC00704780B582B000AF78607B68002B12D087
:1018CC0001217868FFF784FE03461A467B6883F88B
:1018DC00412002217868FFF77BFE03461A467B689D
:1018EC0083F8422000E000BF0837BD4680BD80B5BC
:1018FC0082B000AF78607B68002B0AD07B68002236
:10190C0083F898207B68583340220021184604F055
:10191C003BFA00BF0837BD4680BD80B483B000AF32
:10192C0078607B68002B1ED07B6893F841207B6825
:10193C0093F842309A4204D97B68012283F8432001
:10194C0012E07B6893F842207B6893F841309A420E
:10195C0004D97B68022283F8432005E07B680322CC
:10196C0083F8432000E000BF0C37BD4680BC7047B5
:10197C0080B485B000AF154B9B69144A43F001034A
:10198C009361124B9B6903F00103BB60BB680F4B67
:10199C00DB690E4A43F08053D3610C4BDB6903F0D7
:1019AC0080537B607B680A4B5B68FB60FB6823F0B1
:1019BC00E063FB60FB6843F00073FB60044AFB6868
:1019CC00536000BF1437BD4680BC70470010024006
:1019DC000000014080B584B000AF78607B681B6864
:1019EC00B3F1804F3BD1204BDB691F4A43F001031D
:1019FC00D3611D4BDB6903F00103FB60FB681B4BE0
:101A0C001B4A1A60194B10225A60184B00229A601C
:101A1C00164B8022DA60154B4FF480721A61134B0F
:101A2C004FF480625A61114B00229A610F4B0022D5
:101A3C00DA610E4801F086F80346002B01D0FFF75F
:101A4C00A2FB7B68094A5A62084A7B6853620022EF
:101A5C0002211C2001F03FF81C2001F058F800BFB7
:101A6C001037BD4680BD00BF00100240B8020020F8
:101A7C005800024080B588B000AF786007F11003C1
:101A8C0000221A605A609A60DA607B681B68B3F1B6
:101A9C00804F17D10D4B9B690C4A43F004039361A3
:101AAC000A4B9B6903F00403FB60FB6801233B6159
:101ABC0002237B610323FB6107F1100319460448E1
:101ACC0001F0E2FA00BF2037BD4680BD0010024095
:101ADC000008014080B588B000AF786007F11003B2
:101AEC0000221A605A609A60DA607B681B68204A90
:101AFC00934239D11F4B9B691E4A43F48043936137
:101B0C001C4B9B6903F48043FB60FB68194B9B697E
:101B1C00184A43F004039361164B9B6903F00403CA
:101B2C00BB60BB684FF400733B6102237B610323F2
:101B3C00FB6107F1100319460F4801F0A5FA4FF4A9
:101B4C0080633B6100237B610023BB6107F11003C1
:101B5C001946094801F098FA00220121252000F0CD
:101B6C00BAFF252000F0D3FF00BF2037BD4680BD53
:101B7C0000380140001002400008014080B400AF62
:101B8C0000BFFDE780B400AF00BFFDE780B400AF3D
:101B9C0000BFFDE780B400AF00BFFDE780B400AF2D
:101BAC0000BFFDE780B400AF00BFBD4680BC7047EE
:101BBC0080B400AF00BFBD4680BC704780B400AF9E
:101BCC0000BFBD4680BC704780B500AF00F06CFE16
:101BDC0000BF80BD80B500AF024801F021F900BF05
:101BEC0080BD00BFB802002080B500AF024802F0F3
:101BFC00C1FB00BF80BD00BF7002002080B500AFEC
:101C0C00024803F057FB00BF80BD00BFFC02002060
:101C1C0080B400AF00BFBD4680BC704780B500AF3C
:101C2C00124B93F83433002B01D000231CE04FF4FB
:101C3C004E7200210D4804F0A7F800F06BFB012256
:101C4C000B490C4803F011FB0346002B01D0012378
:101C5C000AE000F03BFE0346044AC2F83033034B63
:101C6C00012283F834230023184680BD3004002061
:101C7C0065070020FC02002080B5ADF5067D00AFA5
:101C8C0007F50673A3F506731960114607F506737D
:101C9C00A3F2112302461A7007F50673A3F212235E
:101CAC000A461A70744B93F8343383F00103DBB299
:101CBC00002B01D00123DAE00023A7F8163207F538
:101CCC000673A3F5847302221A7007F50673A3F545
:101CDC00847307F50672A2F2112212785A7007F576
:101CEC000673A3F5847307F50672A2F2122212781A
:101CFC009A7007F50673A3F506731B68002B16D0B4
:101D0C0007F50673A3F212231B78002B0FD007F5EF
:101D1C000673A3F21223197807F50673A3F506735D
:101D2C0007F58872D01C0A46196804F059F807F5B3
:101D3C008873184600F004FB03461A4607F5067331
:101D4C00A3F5847383F8032107F50673A3F5847355
:101D5C00032283F80421B7F816325A1CA7F816226E
:101D6C001A4607F50673A3F58473197807F50673FD
:101D7C00A3F504739954B7F816325A1CA7F8162217
:101D8C001A4607F50673A3F58473597807F506739D
:101D9C00A3F504739954B7F816325A1CA7F81622F7
:101DAC001A4607F50673A3F58473997807F506733D
:101DBC00A3F50473995407F50673A3F212231B7849
:101DCC00002B1AD0B7F8163207F10802D01807F515
:101DDC000673A3F212231A7807F588730333194696
:101DEC0003F0FEFF07F50673A3F212231B789AB2D9
:101DFC00B7F816321344A7F81632B7F816325A1C35
:101E0C00A7F816221A4607F50673A3F5847393F800
:101E1C00031107F50673A3F504739954B7F816323A
:101E2C005A1CA7F816221A4607F50673A3F58473F5
:101E3C0093F8041107F50673A3F504739954B7F8D6
:101E4C00162207F108031146184600F09BFA0346C8
:101E5C0087F8153297F81532002B06D1064BD3F8BC
:101E6C001C330133044AC2F81C3397F81532184658
:101E7C0007F50677BD4680BD3004002080B586B0DE
:101E8C0000AF0346FB716B4B93F8343383F00103C3
:101E9C00DBB2002B01D00123C8E0664B7B6100F064
:101EAC0015FD38617B6993F80531002B10D07B69E7
:101EBC00D3F808313A69D31AB3F57A7F08D900F010
:101ECC0029FA5C4BD3F8283301335A4AC2F8283329
:101EDC007B6993F80531052B00F2A18001A252F821
:101EEC0023F000BF091F0008291F0008391F000834
:101EFC00611F0008B51F0008C71F0008FB79022BE3
:101F0C0040F090807B69FA791A707B69012283F822
:101F1C0005217B693A69C3F8082183E07B69FA796A
:101F2C005A707B69022283F805217EE07B69FA797D
:101F3C009A707B69002283F80621FB79002B04D070
:101F4C007B69032283F805216FE07B69042283F807
:101F5C0005216AE07B6993F806217B699B789A429C
:101F6C0018D27B6993F806315A1CD1B27A6982F87F
:101F7C0006111A467B691344FA79DA707B6993F877
:101F8C0006217B699B789A424ED37B69042283F8A5
:101F9C00052149E000F0BEF9264BD3F82C33013370
:101FAC00244AC2F82C333FE07B69FA7983F8032189
:101FBC007B69052283F8052137E0FB79032B2BD1B4
:101FCC007B69FA7983F804217B69062283F8052161
:101FDC007B69184600F0B4F90346FB737B6993F8F0
:101FEC000331FA7B9A420DD17B69012283F80C21D3
:101FFC00104BD3F8203301330E4AC2F8203300F0D3
:10200C00E5F912E00B4BD3F824330133094AC2F83B
:10201C00243300F07FF908E000F07CF905E000F0D3
:10202C0079F902E000BF00E000BF00231846183722
:10203C00BD4680BD3004002080B483B000AF786012
:10204C00094B93F8343383F00103DBB2002B01D03E
:10205C00012304E0044A7B68C2F8183300231846B5
:10206C000C37BD4680BC70473004002080B584B06E
:10207C0000AF03460A46FB711346BB71FB793B73F9
:10208C00BB797B7307F10C03022219460820FFF77A
:10209C00F3FD034618461037BD4680BD80B5C2B06F
:1020AC0000AF07F58473A3F584731960114607F527
:1020BC008473A3F2011302461A7007F58473A3F517
:1020CC0081730A461A7007F58473A3F5807307F5BC
:1020DC008472A2F2011212781A7007F58473A3F5B8
:1020EC0084731B68002B29D007F58473A3F58173C7
:1020FC001B78002B22D007F58473A3F581731B7812
:10210C00FF2B1BD007F58473A3F58173197807F5A2
:10211C008473A3F5847307F10802501C0A461968EE
:10212C0003F05EFE07F58473A3F5817307F58472E3
:10213C00A2F58172127801321A7005E007F58473EA
:10214C00A3F5817301221A7007F58473A3F58173CB
:10215C001A7807F108031946FF20FFF78DFD034697
:10216C00184607F58477BD4680BD000080B582B067
:10217C0000AF00F0ABFB0346074AA2FB03239B090D
:10218C007B603B1D042219460720FFF775FD0346B3
:10219C0018460837BD4680BDD34D621080B582B05D
:1021AC0000AF1B4B93F8343383F00103DBB2002BED
:1021BC002AD100F08BFB7860154BD3F830337A685A
:1021CC00D31A41F28732934205D9FFF7CFFF104A59
:1021DC007B68C2F830330E4B3B603B6893F805319B
:1021EC00002B12D03B68D3F808317A68D31AB3F5B8
:1021FC007A7F0AD900F08EF8054BD3F828330133D7
:10220C00034AC2F8283300E000BF0837BD4680BD42
:10221C003004002080B582B000AF78607B68002B62
:10222C0001D1012305E0482279680120FFF724FD44
:10223C00034618460837BD4680BD90B585B000AF43
:10224C000446084611461A462346FB710346BB71E9
:10225C000B467B7113463B71FB793B72BB797B72EE
:10226C007B79BB723B79FB7200F030FB0346FB6061
:10227C0007F10803082219460A20FFF7FDFC034664
:10228C0018461437BD4690BD80B586B000AF00F03F
:10229C001DFB03460E4AA2FB03239B097B600D4BDF
:1022AC00BB6000F0ADF80346FB6000F0B1F80346EC
:1022BC003B74C8237B821E23BB823B1D1422194610
:1022CC000520FFF7D9FC034618461837BD4680BDDC
:1022DC00D34D62100100000180B582B000AF786070
:1022EC007B68094A93420AD1084B93F83533184658
:1022FC00FFF7C4FD01220649034802F0B6FF00BFF8
:10230C000837BD4680BD00BFFC0200203004002011
:10231C006507002080B582B000AF084B7B604FF49E
:10232C0088720021786803F02FFD7B68002283F807
:10233C00052100BF0837BD4680BD00BF300400201A
:10234C0080B485B000AF78607B685A787B689B78E6
:10235C005340FB730023BB7309E0BB7B7A681344C7
:10236C00DA78FB7B5340FB73BB7B0133BB737B681D
:10237C009B78BA7B9A42F0D3FB7B18461437BD4648
:10238C0080BC704780B584B000AF78600B467B8012
:10239C007B68002B02D07B88002B01D101230EE03F
:1023AC007A884FF47A737968074802F0D3FE0346B3
:1023BC00FB73FB7B002B14BF01230023DBB21846FD
:1023CC001037BD4680BD00BFFC02002080B582B036
:1023DC0000AF0A4BD3F81833002B0BD0074B7B60A4
:1023EC00064BD3F818337A6850787A68D11C7A681F
:1023FC009278984700BF0837BD4680BD3004002056
:10240C0080B400AF4FF480631846BD4680BC704763
:10241C0080B400AF19231846BD4680BC704700003D
:10242C0080B582B000AF1C4B1B68B3F1804F01D05C
:10243C0001232DE04FF445620021184803F0A4FC61
:10244C00C0220021164803F09FFC4FF4C063FB80B0
:10245C0007E0FB88114A002122F81310FB88013396
:10246C00FB80FB88B3F5C56FF3D30E4BFF221A70BC
:10247C000C4B00225A700B4B01229A70002106481B
:10248C0001F06EFC0346002B01D0012300E0002379
:10249C0018460837BD4680BD700200206807002032
:1024AC00B81300202400002080B485B000AF034690
:1024BC003A60FB710B46BB711A4B9B78002B01D118
:1024CC0001232AE0FB79072B02D8BB79072B01D912
:1024DC00012322E0FB7903F00103DBB2002B06D1D0
:1024EC00FB79DB00DAB2BB791344DBB207E0FB7992
:1024FC00DB00DAB2BB79D31ADBB20733DBB2FB7386
:10250C00FA7B094913465B0013440B441A463B46BD
:10251C0019889B7811809370002318461437BD4698
:10252C0080BC704724000020B813002080B500AF99
:10253C00064B9B78002B01D1012305E0C022002122
:10254C00034803F021FC0023184680BD2400002022
:10255C00B813002080B500AF114B9B78002B01D134
:10256C0001231AE00E4B5B78002B01D0022314E000
:10257C0000F0B0F80A4B01225A704FF4C563094AB7
:10258C000021094801F08EFC0346002B04D0044BBB
:10259C0000225A70012300E00023184680BD00BFC2
:1025AC0024000020680700207002002080B485B051
:1025BC0000AF7860104B9B78002B01D1012315E004
:1025CC000023FB730EE0FA7B0C4913465B001344AB
:1025DC000B441A463B1D19889B7811809370FB7B2A
:1025EC000133FB73FB7B3F2BEDD9002318461437CB
:1025FC00BD4680BC704700BF24000020B8130020EB
:10260C0080B582B000AF78607B681B68064A934245
:10261C0006D10021054801F0E7FD054B00225A7058
:10262C0000BF0837BD4680BD080002407002002084
:10263C002400002080B582B000AF254B9B78002B86
:10264C0001D1012340E00023FB7137E00023BB7173
:10265C002EE0FB79022B0AD8BB795B01DBB21F336E
:10266C00DBB23B7000237B700023BB7017E0FB795F
:10267C00052B0AD800233B70BB795B01DBB21F33FF
:10268C00DBB27B700023BB7009E000233B7000239E
:10269C007B70BB795B01DBB21F33DBB2BB70B979EA
:1026AC00FB793A681846FFF7FFFEBB790133BB7123
:1026BC00BB79072BCDD9FB790133FB71FB79072B48
:1026CC00C4D9FFF747FF034618460837BD4680BDFF
:1026DC002400002080B485B000AF0023FB810023D0
:1026EC007B7366E07A7B374913465B0013440B44DB
:1026FC001B781A46344B1B7802FB03F31B12BB727C
:10270C007A7B304913465B0013440B4401331B782E
:10271C001A462D4B1B7802FB03F31B127B727A7B40
:10272C00284913465B0013440B4402331B781A46AA
:10273C00254B1B7802FB03F31B123B727B7A3B711C
:10274C00BB7A7B713B7ABB7100233B732BE0072375
:10275C00FB7221E03B7B10333B4413F80C3C1A46D4
:10276C0097F90B3042FA03F303F00103002B05D069
:10277C00FB89164A3A2122F8131004E0FB89134A0C
:10278C001D2122F81310FB890133FB8197F90B30C3
:10279C00DBB2013BDBB2FB7297F90B30002BD9DAC1
:1027AC003B7B01333B733B7B022BD0D97B7B0133CF
:1027BC007B737B7B3F2B95D900BF00BF1437BD4685
:1027CC0080BC7047B813002024000020680700204C
:1027DC00FFF71EFA0B480C490C4A002302E0D458B0
:1027EC00C4500433C4188C42F9D3094A094C002351
:1027FC0001E013600432A242FBD303F0CDFAFEF7E2
:10280C001DF870470000002030000020085F000811
:10281C00300000207C140020FEE7000080B500AFE3
:10282C00084B1B68074A43F010031360032000F0A9
:10283C0047F90F2000F008F8FFF79AF80023184624
:10284C0080BD00BF0020024080B582B000AF786030
:10285C00124B1A68124B1B7819464FF47A73B3FB60
:10286C00F1F3B2FBF3F3184600F05FF90346002BCB
:10287C0001D001230EE07B680F2B0AD80022796867
:10288C004FF0FF3000F027F9064A7B6813600023F5
:10289C0000E0012318460837BD4680BD200000200B
:1028AC002C0000202800002080B400AF054B1B78C2
:1028BC001A46054B1B681344034A136000BFBD4600
:1028CC0080BC70472C0000207814002080B400AF2E
:1028DC00024B1B681846BD4680BC7047781400201C
:1028EC0080B584B000AF7860FFF7F0FFB8607B680C
:1028FC00FB60FB68B3F1FF3F05D00A4B1B781A460F
:10290C00FB681344FB6000BFFFF7E0FF0246BB68A7
:10291C00D31AFA689A42F7D800BF00BF1037BD46E9
:10292C0080BD00BF2C00002080B485B000AF786063
:10293C007B6803F00703FB600C4BDB68BB60BA6879
:10294C004FF6FF031340BB60FB681A02BB681343CE
:10295C0043F0BF6343F40033BB60044ABB68D360ED
:10296C0000BF1437BD4680BC704700BF00ED00E0CF
:10297C0080B400AF044BDB681B0A03F00703184656
:10298C00BD4680BC704700BF00ED00E080B483B052
:10299C0000AF0346FB7197F90730002B0BDBFB797B
:1029AC0003F01F02064997F907305B09012000FA72
:1029BC0002F241F8232000BF0C37BD4680BC7047A3
:1029CC0000E100E080B483B000AF03463960FB71D6
:1029DC0097F90730002B0ADB3B68DAB20C4997F900
:1029EC0007301201D2B20B4483F800230AE03B6893
:1029FC00DAB20849FB7903F00F03043B1201D2B29F
:102A0C000B441A7600BF0C37BD4680BC704700BF24
:102A1C0000E100E000ED00E080B489B000AFF860A8
:102A2C00B9607A60FB6803F00703FB61FB69C3F1D3
:102A3C000703042B28BF0423BB61FB690433062B5B
:102A4C0002D9FB69033B00E000237B614FF0FF32AE
:102A5C00BB6902FA03F3DA43BB681A407B699A40FC
:102A6C004FF0FF317B6901FA03F3D9437B680B40CC
:102A7C00134318462437BD4680BC704780B582B0DE
:102A8C0000AF78607B68013BB3F1807F01D30123F9
:102A9C000FE00A4A7B68013B53600F214FF0FF3077
:102AAC00FFF790FF054B00229A60044B07221A6037
:102ABC00002318460837BD4680BD00BF10E000E07B
:102ACC0080B582B000AF78607868FFF72DFF00BF4B
:102ADC000837BD4680BD80B586B000AF0346B960EF
:102AEC007A60FB7300237B61FFF742FF78617A68A1
:102AFC00B9687869FFF790FF024697F90F301146D5
:102B0C001846FFF75FFF00BF1837BD4680BD80B584
:102B1C0082B000AF0346FB7197F907301846FFF7F8
:102B2C0035FF00BF0837BD4680BD80B582B000AF11
:102B3C0078607868FFF7A2FF034618460837BD4651
:102B4C0080BD000080B485B000AF78600023FB60CE
:102B5C007B68002B01D1012343E07B681B681A467C
:102B6C00224B1344224AA2FB03231B099A007B68C5
:102B7C001A647B681F4ADA637B68022283F821207F
:102B8C007B681B681B68FB60FB6823F47F5323F096
:102B9C003003FB607B685A687B689B681A437B68D0
:102BAC00DB681A437B681B691A437B685B691A43B1
:102BBC007B689B691A437B68DB691343FA68134390
:102BCC00FB607B681B68FA681A607B6800229A635A
:102BDC007B68012283F821207B68002283F8202067
:102BEC00002318461437BD4680BC7047F8FFFDBF64
:102BFC00CDCCCCCC0000024080B586B000AFF860E4
:102C0C00B9607A603B600023FB75FB6893F8203059
:102C1C00012B01D102234BE0FB68012283F8202019
:102C2C00FB6893F82130DBB2012B3AD1FB6802220E
:102C3C0083F82120FB6800229A63FB681B681A68E2
:102C4C00FB681B6822F001021A603B687A68B9685D
:102C5C00F86800F0EBF9FB68DB6A002B08D0FB6826
:102C6C001B681A68FB681B6842F00E021A600FE0C2
:102C7C00FB681B681A68FB681B6822F004021A6068
:102C8C00FB681B681A68FB681B6842F00A021A6032
:102C9C00FB681B681A68FB681B6842F001021A602B
:102CAC0005E0FB68002283F820200223FB75FB7DE6
:102CBC0018461837BD4680BD80B485B000AF78602B
:102CCC000023FB737B6893F82130DBB2022B08D016
:102CDC007B6804229A637B68002283F820200123FE
:102CEC0020E07B681B681A687B681B6822F00E0268
:102CFC001A607B681B681A687B681B6822F00102EB
:102D0C001A607B681A6C7B68DB6B012101FA02F29A
:102D1C005A607B68012283F821207B68002283F8AB
:102D2C002020FB7B18461437BD4680BC7047000042
:102D3C0080B584B000AF78600023FB737B6893F898
:102D4C002130DBB2022B05D07B6804229A6301236D
:102D5C00FB7351E07B681B681A687B681B6822F068
:102D6C000E021A607B681B681A687B681B6822F06D
:102D7C0001021A607B681B68224A934229D07B6847
:102D8C001B68214A934222D07B681B681F4A9342DE
:102D9C001AD07B681B681E4A934212D07B681B6852
:102DAC001C4A93420AD07B681B681B4A934202D18F
:102DBC004FF480130EE04FF080730BE04FF4803330
:102DCC0008E04FF4805305E04FF4807302E01023C9
:102DDC0000E00123114A53607B68012283F8212013
:102DEC007B68002283F820207B685B6B002B03D070
:102DFC007B685B6B78689847FB7B18461037BD4641
:102E0C0080BD00BF080002401C00024030000240A0
:102E1C0044000240580002406C0002400000024096
:102E2C0080B584B000AF78607B68DB6B1B68FB609F
:102E3C007B681B681B68BB607B681B6C04229A4018
:102E4C00FB681340002B4FD0BB6803F00403002B2E
:102E5C004AD07B681B681B6803F02003002B07D14A
:102E6C007B681B681A687B681B6822F004021A6076
:102E7C007B681B68664A934229D07B681B68654A4D
:102E8C00934222D07B681B68634A93421AD07B68BA
:102E9C001B68624A934212D07B681B68604A93425B
:102EAC000AD07B681B685F4A934202D14FF48003BF
:102EBC000EE04FF080630BE04FF4802308E04FF4FA
:102ECC00804305E04FF4806302E0402300E00423DC
:102EDC00554A53607B68DB6A002B00F094807B685A
:102EEC00DB6A786898478EE07B681B6C02229A40FC
:102EFC00FB681340002B56D0BB6803F00203002B79
:102F0C0051D07B681B681B6803F02003002B0BD18E
:102F1C007B681B681A687B681B6822F00A021A60BF
:102F2C007B68012283F821207B681B68384A934216
:102F3C0029D07B681B68374A934222D07B681B6878
:102F4C00354A93421AD07B681B68344A934212D09C
:102F5C007B681B68324A93420AD07B681B68314AF3
:102F6C00934202D14FF400130EE04FF000730BE0CC
:102F7C004FF4003308E04FF4005305E04FF40073B6
:102F8C0002E0202300E00223274A53607B680022E2
:102F9C0083F820207B689B6A002B34D07B689B6A6B
:102FAC00786898472FE07B681B6C08229A40FB6876
:102FBC001340002B28D0BB6803F00803002B23D050
:102FCC007B681B681A687B681B6822F00E021A600B
:102FDC007B681A6C7B68DB6B012101FA02F25A6088
:102FEC007B6801229A637B68012283F821207B682D
:102FFC00002283F820207B681B6B002B04D07B689D
:10300C001B6B7868984700BF00BF1037BD4680BD6A
:10301C00080002401C000240300002404400024004
:10302C00580002406C0002400000024080B485B0A1
:10303C0000AFF860B9607A603B60FB681A6CFB68A3
:10304C00DB6B012101FA02F25A60FB681B683A68DB
:10305C005A60FB685B68102B08D1FB681B687A68A8
:10306C009A60FB681B68BA68DA6007E0FB681B684B
:10307C00BA689A60FB681B687A68DA6000BF14371C
:10308C00BD4680BC7047000080B48BB000AF786048
:10309C00396000237B6200233B6269E101227B6A79
:1030AC0002FA03F3FB613B681B68FA691340BB61CE
:1030BC00BA69FB699A4240F058813B685B689A4A4E
:1030CC0093425ED0984A934275D8984A934258D00E
:1030DC00964A93426FD8964A934252D0944A93425E
:1030EC0069D8944A93424CD0924A934263D8924AFC
:1030FC00934246D0904A93425DD8122B2AD8122B79
:10310C0059D801A252F823F08F3100086931000818
:10311C007B310008BD310008C3310008C331000801
:10312C00C3310008C3310008C3310008C3310008A3
:10313C00C3310008C3310008C3310008C331000893
:10314C00C3310008C3310008C331000871310008D5
:10315C0085310008794A934213D02CE03B68DB6838
:10316C003B6229E03B68DB6804333B6224E03B684C
:10317C00DB6808333B621FE03B68DB680C333B6267
:10318C001AE03B689B68002B02D104233B6213E0DE
:10319C003B689B68012B05D108233B627B68FA696D
:1031AC001A6109E008233B627B68FA695A6103E003
:1031BC0000233B6200E000BFBB69FF2B01D87B689A
:1031CC0001E07B6804337B61BB69FF2B02D87B6A0F
:1031DC009B0002E07B6A083B9B003B617B691A68A1
:1031EC000F213B6901FA03F3DB431A40396A3B694F
:1031FC0001FA03F31A437B691A603B685B6803F0BE
:10320C008053002B00F0B1804D4B9B694C4A43F02E
:10321C00010393614A4B9B6903F00103BB60BB68DC
:10322C00484A7B6A9B08023352F82330FB607B6A66
:10323C0003F003039B000F2202FA03F3DB43FA684B
:10324C001340FB607B68404A934213D07B683F4A33
:10325C0093420DD07B683E4A934207D07B683D4A2F
:10326C00934201D1032306E0042304E0022302E08D
:10327C00012300E000237A6A02F0030292009340DB
:10328C00FA681343FB602F497B6A9B080233FA6888
:10329C0041F823203B685B6803F48013002B06D0B5
:1032AC002D4B9A682C49BB6913438B6006E02A4B63
:1032BC009A68BB69DB43284913408B603B685B68A9
:1032CC0003F40013002B06D0234BDA682249BB69A8
:1032DC001343CB6006E0204BDA68BB69DB431E4925
:1032EC001340CB603B685B6803F40033002B06D0C3
:1032FC00194B5A681849BB6913434B6006E0164BCF
:10330C005A68BB69DB43144913404B603B685B68EC
:10331C0003F48033002B21D00F4B1A680E49BB6984
:10332C0013430B6021E000BF00003210000031108D
:10333C0000002210000021100000121000001110DB
:10334C00001002400000014000080140000C014048
:10335C000010014000140140000401400B4B1A689E
:10336C00BB69DB43094913400B607B6A01337B6209
:10337C003B681A687B6A22FA03F3002B7FF48EAE4B
:10338C0000BF00BF2C37BD4680BC70470004014015
:10339C0080B485B000AF78600B467B807B689A6800
:1033AC007B881340002B02D00123FB7301E0002328
:1033BC00FB73FB7B18461437BD4680BC704780B44A
:1033CC0083B000AF78600B467B8013467B707B78B4
:1033DC00002B03D07A887B681A6103E07B881A047F
:1033EC007B681A6100BF0C37BD4680BC704700007B
:1033FC0080B586B000AF78607B68002B01D10123CB
:10340C0072E27B681B6803F00103002B00F08780DD
:10341C00924B5B6803F00C03042B0CD08F4B5B6856
:10342C0003F00C03082B12D18C4B5B6803F4803334
:10343C00B3F5803F0BD1894B1B6803F40033002B91
:10344C006CD07B685B68002B68D101234CE27B68F5
:10345C005B68B3F5803F06D1804B1B687F4A43F411
:10346C00803313602EE07B685B68002B0CD17B4BA8
:10347C001B687A4A23F480331360784B1B68774AB5
:10348C0023F4802313601DE07B685B68B3F5A02FE9
:10349C000CD1724B1B68714A43F4802313606F4B41
:1034AC001B686E4A43F4803313600BE06B4B1B6854
:1034BC006A4A23F480331360684B1B68674A23F411
:1034CC00802313607B685B68002B13D0FFF7FEF939
:1034DC00386108E0FFF7FAF902463B69D31A642B0E
:1034EC0001D9032300E25D4B1B6803F40033002B6E
:1034FC00F0D014E0FFF7EAF9386108E0FFF7E6F9DD
:10350C0002463B69D31A642B01D90323ECE1534BDC
:10351C001B6803F40033002BF0D100E000BF7B6884
:10352C001B6803F00203002B63D04C4B5B6803F069
:10353C000C03002B0BD0494B5B6803F00C03082BDE
:10354C001CD1464B5B6803F48033002B16D1434BE4
:10355C001B6803F00203002B05D07B681B69012B51
:10356C0001D00123C0E13D4B1B6823F0F8027B68BE
:10357C005B69DB00394913430B603AE07B681B69DC
:10358C00002B20D0364B01221A60FFF79FF93861CF
:10359C0008E0FFF79BF902463B69D31A022B01D9CD
:1035AC000323A1E12D4B1B6803F00203002BF0D089
:1035BC002A4B1B6823F0F8027B685B69DB00274908
:1035CC0013430B6015E0264B00221A60FFF77EF9BF
:1035DC00386108E0FFF77AF902463B69D31A022BEF
:1035EC0001D9032380E11D4B1B6803F00203002B60
:1035FC00F0D17B681B6803F00803002B3AD07B6882
:10360C009B69002B19D0174B01221A60FFF75EF94A
:10361C00386108E0FFF75AF902463B69D31A022BCE
:10362C0001D9032360E10D4B5B6A03F00203002B0D
:10363C00F0D0012000F0CEFA1CE00A4B00221A60F8
:10364C00FFF744F938610FE0FFF740F902463B6998
:10365C00D31A022B08D9032346E100BF0010024005
:10366C000000424280044242924B5B6A03F0020328
:10367C00002BE9D17B681B6803F00403002B00F0DE
:10368C00A6800023FB758B4BDB6903F08053002B6A
:10369C000DD1884BDB69874A43F08053D361854B4E
:1036AC00DB6903F08053BB60BB680123FB75824B65
:1036BC001B6803F48073002B18D17F4B1B687E4A68
:1036CC0043F480731360FFF701F9386108E0FFF7EA
:1036DC00FDF802463B69D31A642B01D9032303E19D
:1036EC00754B1B6803F48073002BF0D07B68DB6890
:1036FC00012B06D16F4B1B6A6E4A43F00103136218
:10370C002DE07B68DB68002B0CD16A4B1B6A694A85
:10371C0023F001031362674B1B6A664A23F0040310
:10372C0013621CE07B68DB68052B0CD1614B1B6AB8
:10373C00604A43F0040313625E4B1B6A5D4A43F01C
:10374C00010313620BE05B4B1B6A5A4A23F0010323
:10375C001362584B1B6A574A23F0040313627B68AD
:10376C00DB68002B15D0FFF7B1F838610AE0FFF7E2
:10377C00ADF802463B69D31A41F28832934201D923
:10378C000323B1E04B4B1B6A03F00203002BEED07A
:10379C0014E0FFF79BF838610AE0FFF797F8024650
:1037AC003B69D31A41F28832934201D903239BE03F
:1037BC00404B1B6A03F00203002BEED1FB7D012B67
:1037CC0005D13C4BDB693B4A23F08053D3617B68CA
:1037DC00DB69002B00F08780364B5B6803F00C0331
:1037EC00082B61D07B68DB69022B46D1334B00225E
:1037FC001A60FFF76BF8386108E0FFF767F80246CC
:10380C003B69D31A022B01D903236DE0294B1B68AA
:10381C0003F00073002BF0D17B681B6AB3F5803F7B
:10382C0008D1244B5B6823F400327B689B682149E8
:10383C0013434B601F4B5B6823F474127B68196A4B
:10384C007B685B6A0B431B4913434B601B4B012288
:10385C001A60FFF73BF8386108E0FFF737F80246CB
:10386C003B69D31A022B01D903233DE0114B1B6892
:10387C0003F00073002BF0D035E0104B00221A60DF
:10388C00FFF724F8386108E0FFF720F802463B699F
:10389C00D31A022B01D9032326E0064B1B6803F035
:1038AC000073002BF0D11EE07B68DB69012B07D184
:1038BC00012319E0001002400070004060004242F9
:1038CC000B4B5B68FB60FB6803F480327B681B6A04
:1038DC009A4206D1FB6803F470127B685B6A9A42C9
:1038EC0001D0012300E0002318461837BD4680BDE7
:1038FC000010024080B584B000AF786039607B68FE
:10390C00002B01D10123D0E06A4B1B6803F00703A5
:10391C003A689A4210D9674B1B6823F00702654935
:10392C003B6813430B60634B1B6803F007033A6857
:10393C009A4201D00123B8E07B681B6803F00203B4
:10394C00002B20D07B681B6803F00403002B05D0F0
:10395C00594B5B68584A43F4E06353607B681B68BF
:10396C0003F00803002B05D0534B5B68524A43F419
:10397C0060535360504B5B6823F0F0027B689B688C
:10398C004D4913434B607B681B6803F00103002B0C
:10399C0040D07B685B68012B07D1474B1B6803F455
:1039AC000033002B15D101237FE07B685B68022B71
:1039BC0007D1414B1B6803F00073002B09D1012385
:1039CC0073E03D4B1B6803F00203002B01D1012374
:1039DC006BE0394B5B6823F003027B685B6836490C
:1039EC0013434B60FEF772FFF8600AE0FEF76EFFC0
:1039FC000246FB68D31A41F28832934201D9032361
:103A0C0053E02D4B5B6803F00C027B685B689B00FA
:103A1C009A42EBD1274B1B6803F007033A689A4292
:103A2C0010D2244B1B6823F0070222493B68134336
:103A3C000B60204B1B6803F007033A689A4201D0D5
:103A4C00012332E07B681B6803F00403002B08D0D1
:103A5C00194B5B6823F4E0627B68DB6816491343FF
:103A6C004B607B681B6803F00803002B09D0124BDA
:103A7C005B6823F460527B681B69DB000E491343BF
:103A8C004B6000F021F802460B4B5B681B0903F0FE
:103A9C000F030A49CB5C22FA03F3094A1360094B62
:103AAC001B681846FEF7D0FE002318461037BD469B
:103ABC0080BD00BF0020024000100240D45E000810
:103ACC00200000202800002080B487B000AF002325
:103ADC00FB600023BB6000237B6100237B60002321
:103AEC003B611E4B5B68FB60FB6803F00C03042B13
:103AFC0002D0082B03D027E0194B3B6127E0FB6871
:103B0C009B0C03F00F03174AD35C7B60FB6803F438
:103B1C008033002B10D0114B5B685B0C03F001035E
:103B2C00114AD35CBB607B680D4A03FB02F2BB6895
:103B3C00B2FBF3F37B6104E07B680C4A02FB03F3FA
:103B4C007B617B693B6102E0054B3B6100BF3B69DC
:103B5C0018461C37BD4680BC704700BF00100240A1
:103B6C0000127A00EC5E0008FC5E000800093D00C3
:103B7C0080B400AF024B1B681846BD4680BC704732
:103B8C002000002080B500AFFFF7F2FF0246054B86
:103B9C005B681B0A03F007030349CB5C22FA03F3AF
:103BAC00184680BD00100240E45E000880B500AFEE
:103BBC00FFF7DEFF0246054B5B68DB0A03F00703E9
:103BCC000349CB5C22FA03F3184680BD0010024077
:103BDC00E45E000880B485B000AF78600A4B1B68C7
:103BEC000A4AA2FB03235B0A7A6802FB03F3FB601D
:103BFC0000BFFB685A1EFA60002BF9D100BF00BF52
:103C0C001437BD4680BC704720000020D34D621095
:103C1C0080B582B000AF78607B68002B01D10123A6
:103C2C0041E07B6893F83D30DBB2002B06D17B681A
:103C3C00002283F83C207868FDF7CCFE7B680222DA
:103C4C0083F83D207B681A687B680433194610465C
:103C5C0000F010FF7B68012283F846207B6801226C
:103C6C0083F83E207B68012283F83F207B68012289
:103C7C0083F840207B68012283F841207B68012275
:103C8C0083F842207B68012283F843207B68012261
:103C9C0083F844207B68012283F845207B6801224D
:103CAC0083F83D20002318460837BD4680BD80B5FB
:103CBC0082B000AF78607B68002B01D1012341E01A
:103CCC007B6893F83D30DBB2002B06D17B68002279
:103CDC0083F83C20786800F039F87B68022283F87E
:103CEC003D207B681A687B6804331946104600F047
:103CFC00C1FE7B68012283F846207B68012283F891
:103D0C003E207B68012283F83F207B68012283F8E8
:103D1C0040207B68012283F841207B68012283F8D4
:103D2C0042207B68012283F843207B68012283F8C0
:103D3C0044207B68012283F845207B68012283F8AC
:103D4C003D20002318460837BD4680BD80B483B0A3
:103D5C0000AF786000BF0C37BD4680BC70470000D8
:103D6C0080B584B000AF786039603B68002B09D116
:103D7C007B6893F83E30DBB2012B14BF0123002388
:103D8C00DBB222E03B68042B09D17B6893F83F300F
:103D9C00DBB2012B14BF01230023DBB215E03B681F
:103DAC00082B09D17B6893F84030DBB2012B14BF90
:103DBC0001230023DBB208E07B6893F84130DBB2CF
:103DCC00012B14BF01230023DBB2002B01D00123F4
:103DDC005EE03B68002B04D17B68022283F83E2016
:103DEC0013E03B68042B04D17B68022283F83F204C
:103DFC000BE03B68082B04D17B68022283F840203F
:103E0C0003E07B68022283F841207B681B68012257
:103E1C003968184601F0BAF87B681B681E4A934251
:103E2C0007D17B681B685A6C7B681B6842F40042A4
:103E3C005A647B681B68184A93420ED07B681B68D7
:103E4C00B3F1804F09D07B681B68144A934204D0AD
:103E5C007B681B68124A934211D17B681B689B6874
:103E6C0003F00703FB60FB68062B10D07B681B6814
:103E7C001A687B681B6842F001021A6007E07B68D5
:103E8C001B681A687B681B6842F001021A600023E9
:103E9C0018461037BD4680BD002C01400004004080
:103EAC000008004080B586B000AFF860B9607A6059
:103EBC007B800023FB75BB68002B09D1FB6893F852
:103ECC003E30DBB2022B0CBF01230023DBB222E01D
:103EDC00BB68042B09D1FB6893F83F30DBB2022B93
:103EEC000CBF01230023DBB215E0BB68082B09D102
:103EFC00FB6893F84030DBB2022B0CBF012300238C
:103F0C00DBB208E0FB6893F84130DBB2022B0CBF4C
:103F1C0001230023DBB2002B01D0022353E1BB6849
:103F2C00002B09D1FB6893F83E30DBB2012B0CBFA0
:103F3C0001230023DBB222E0BB68042B09D1FB6810
:103F4C0093F83F30DBB2012B0CBF01230023DBB213
:103F5C0015E0BB68082B09D1FB6893F84030DBB245
:103F6C00012B0CBF01230023DBB208E0FB6893F8A4
:103F7C004130DBB2012B0CBF01230023DBB2002B41
:103F8C0024D07B68002B02D07B88002B01D101232D
:103F9C0019E1BB68002B04D1FB68022283F83E2098
:103FAC0016E0BB68042B04D1FB68022283F83F2087
:103FBC000EE0BB68082B04D1FB68022283F840207A
:103FCC0006E0FB68022283F8412001E00123FAE0BD
:103FDC00BB680C2B00F2AE8001A252F823F000BF9C
:103FEC0021400008414100084141000841410008BE
:103FFC006940000841410008414100084141000866
:10400C00B14000084141000841410008414100080D
:10401C00F9400008FB685B6A6D4A9A62FB685B6A50
:10402C006C4ADA62FB685B6A6B4A1A63FB68586A13
:10403C007968FB681B6834331A467B88FEF7DCFD15
:10404C000346002B01D00123BDE0FB681B68DA6836
:10405C00FB681B6842F40072DA606EE0FB689B6AD6
:10406C005B4A9A62FB689B6A5A4ADA62FB689B6AF3
:10407C00594A1A63FB68986A7968FB681B6838337D
:10408C001A467B88FEF7B8FD0346002B01D00123AE
:10409C0099E0FB681B68DA68FB681B6842F4806275
:1040AC00DA604AE0FB68DB6A494A9A62FB68DB6AC1
:1040BC00484ADA62FB68DB6A474A1A63FB68D86ACB
:1040CC007968FB681B683C331A467B88FEF794FDC5
:1040DC000346002B01D0012375E0FB681B68DA68EE
:1040EC00FB681B6842F40062DA6026E0FB681B6B1D
:1040FC00374A9A62FB681B6B364ADA62FB681B6BA9
:10410C00354A1A63FB68186B7968FB681B68403387
:10411C001A467B88FEF770FD0346002B01D0012365
:10412C0051E0FB681B68DA68FB681B6842F480523C
:10413C00DA6002E00123FB7500BFFB7D002B41D14F
:10414C00FB681B680122B968184600F01FFFFB686A
:10415C001B68224A934207D1FB681B685A6CFB68A8
:10416C001B6842F400425A64FB681B681B4A93426A
:10417C000ED0FB681B68B3F1804F09D0FB681B683D
:10418C00174A934204D0FB681B68164A934211D11C
:10419C00FB681B689B6803F007033B613B69062BBC
:1041AC0010D0FB681B681A68FB681B6842F00102A0
:1041BC001A6007E0FB681B681A68FB681B6842F012
:1041CC0001021A60FB7D18461837BD4680BD00BF42
:1041DC0071490008194A0008DF480008002C01400A
:1041EC00000400400008004080B584B000AF786047
:1041FC0039600023FB733B680C2B55D801A252F895
:10420C0023F000BF45420008B5420008B542000843
:10421C00B542000861420008B5420008B5420008EA
:10422C00B54200087D420008B5420008B5420008BE
:10423C00B5420008994200087B681B68DA687B6805
:10424C001B6822F40072DA607B685B6A1846FEF722
:10425C006FFD2CE07B681B68DA687B681B6822F4B6
:10426C008062DA607B689B6A1846FEF761FD1EE08F
:10427C007B681B68DA687B681B6822F40062DA6072
:10428C007B68DB6A1846FEF753FD10E07B681B6801
:10429C00DA687B681B6822F48052DA607B681B6BDF
:1042AC001846FEF745FD02E00123FB7300BFFB7BC4
:1042BC00002B57D17B681B6800223968184600F028
:1042CC0065FE7B681B682A4A934217D17B681B6882
:1042DC001A6A41F211131340002B0FD17B681B6833
:1042EC001A6A40F244431340002B07D17B681B68C9
:1042FC005A6C7B681B6822F400425A647B681B680A
:10430C001A6A41F211131340002B0FD17B681B6802
:10431C001A6A40F244431340002B07D17B681B6898
:10432C001A687B681B6822F001021A603B68002B3C
:10433C0004D17B68012283F83E2013E03B68042BF8
:10434C0004D17B68012283F83F200BE03B68082BEB
:10435C0004D17B68012283F8402003E07B680122B2
:10436C0083F84120FB7B18461037BD4680BD00BF4B
:10437C00002C014080B584B000AF78607B681B686E
:10438C00DB68FB607B681B681B69BB60BB6803F068
:10439C000203002B20D0FB6803F00203002B1BD080
:1043AC007B681B686FF002021A617B6801221A7726
:1043BC007B681B689B6903F00303002B03D07868B0
:1043CC0000F063FA05E0786800F056FA7868FCF7BC
:1043DC00E3FB7B6800221A77BB6803F00403002B15
:1043EC0020D0FB6803F00403002B1BD07B681B68F8
:1043FC006FF004021A617B6802221A777B681B68D3
:10440C009B6903F44073002B03D0786800F03DFAED
:10441C0005E0786800F030FA7868FCF7BDFB7B6843
:10442C0000221A77BB6803F00803002B20D0FB682E
:10443C0003F00803002B1BD07B681B686FF008028D
:10444C001A617B6804221A777B681B68DB6903F0AE
:10445C000303002B03D0786800F017FA05E07868A6
:10446C0000F00AFA7868FCF797FB7B6800221A7751
:10447C00BB6803F01003002B20D0FB6803F0100383
:10448C00002B1BD07B681B686FF010021A617B68D5
:10449C0008221A777B681B68DB6903F44073002BD6
:1044AC0003D0786800F0F1F905E0786800F0E4F9E1
:1044BC007868FCF771FB7B6800221A77BB6803F005
:1044CC000103002B0CD0FB6803F00103002B07D079
:1044DC007B681B686FF001021A61786800F0C3F901
:1044EC00BB6803F08003002B0CD0FB6803F0800347
:1044FC00002B07D07B681B686FF080021A6178680C
:10450C0000F0CFFDBB6803F04003002B0CD0FB6820
:10451C0003F04003002B07D07B681B686FF0400250
:10452C001A61786800F0C3F9BB6803F02003002B14
:10453C000CD0FB6803F02003002B07D07B681B68B2
:10454C006FF020021A61786800F0A2FD00BF1037EE
:10455C00BD4680BD80B586B000AFF860B9607A60AA
:10456C000023FB75FB6893F83C30012B01D102232F
:10457C00AEE0FB68012283F83C207B680C2B00F238
:10458C009F8001A252F823F0C9450008CD460008CF
:10459C00CD460008CD46000809460008CD46000867
:1045AC00CD460008CD4600084B460008CD46000815
:1045BC00CD460008CD4600088B460008FB681B68FA
:1045CC00B968184600F0C4FAFB681B689A69FB6866
:1045DC001B6842F008029A61FB681B689A69FB68C9
:1045EC001B6822F004029A61FB681B689969BB681E
:1045FC001A69FB681B680A439A6164E0FB681B68D4
:10460C00B968184600F00AFBFB681B689A69FB68DE
:10461C001B6842F400629A61FB681B689A69FB682C
:10462C001B6822F480629A61FB681B689969BB68FD
:10463C001B691A02FB681B680A439A6143E0FB681A
:10464C001B68B968184600F053FBFB681B68DA69F5
:10465C00FB681B6842F00802DA61FB681B68DA69C8
:10466C00FB681B6822F00402DA61FB681B68D969DD
:10467C00BB681A69FB681B680A43DA6123E0FB68B4
:10468C001B68B968184600F09DFBFB681B68DA696B
:10469C00FB681B6842F40062DA61FB681B68DA692C
:1046AC00FB681B6822F48062DA61FB681B68D969BD
:1046BC00BB681B691A02FB681B680A43DA6102E0DB
:1046CC000123FB7500BFFB68002283F83C20FB7DB7
:1046DC0018461837BD4680BD80B584B000AF7860F1
:1046EC0039600023FB737B6893F83C30012B01D1BC
:1046FC000223B4E07B68012283F83C207B68022211
:10470C0083F83D207B681B689B68BB60BB6823F00B
:10471C007703BB60BB6823F47F43BB607B681B687B
:10472C00BA689A603B681B68B3F5005F3ED0B3F57E
:10473C00005F00F28780B3F5805F00F08680B3F5F0
:10474C00805F7FD8702B1AD0702B7BD8602B50D009
:10475C00602B77D8502B3CD0502B73D8402B58D093
:10476C00402B6FD8302B64D0302B6BD8202B60D0E3
:10477C00202B67D8002B5CD0102B5AD062E07B68C2
:10478C0018683B6899683B685A683B68DB6800F0BE
:10479C00DEFB7B681B689B68BB60BB6843F07703E0
:1047AC00BB607B681B68BA689A604FE07B681868CE
:1047BC003B6899683B685A683B68DB6800F0C7FB4C
:1047CC007B681B689A687B681B6842F480429A601D
:1047DC003CE07B6818683B6859683B68DB681A46A4
:1047EC0000F03EFB7B681B685021184600F095FBDF
:1047FC002CE07B6818683B6859683B68DB681A4694
:10480C0000F05CFB7B681B686021184600F085FBA0
:10481C001CE07B6818683B6859683B68DB681A4683
:10482C0000F01EFB7B681B684021184600F075FBEE
:10483C000CE07B681A683B681B681946104600F050
:10484C006CFB03E00123FB7300E000BF7B680122DB
:10485C0083F83D207B68002283F83C20FB7B1846C4
:10486C001037BD4680BD80B483B000AF786000BF08
:10487C000C37BD4680BC704780B483B000AF786005
:10488C0000BF0C37BD4680BC704780B483B000AF0E
:10489C00786000BF0C37BD4680BC704780B483B0D5
:1048AC0000AF786000BF0C37BD4680BC704780B449
:1048BC0083B000AF786000BF0C37BD4680BC70473A
:1048CC0080B483B000AF786000BF0C37BD4680BCAD
:1048DC00704780B584B000AF78607B685B6AFB6022
:1048EC00FB685B6A7A689A4207D1FB6801221A77E7
:1048FC00FB68012283F83E202AE0FB689B6A7A68F9
:10490C009A4207D1FB6802221A77FB68012283F8CE
:10491C003F201DE0FB68DB6A7A689A4207D1FB688E
:10492C0004221A77FB68012283F8402010E0FB6810
:10493C001B6B7A689A4207D1FB6808221A77FB68CE
:10494C00012283F8412003E0FB68012283F83D201B
:10495C00F868FFF7B5FFFB6800221A7700BF103725
:10496C00BD4680BD80B584B000AF78607B685B6A63
:10497C00FB60FB685B6A7A689A420BD1FB68012288
:10498C001A777B689B69002B36D1FB68012283F870
:10499C003E2031E0FB689B6A7A689A420BD1FB6837
:1049AC0002221A777B689B69002B25D1FB680122B8
:1049BC0083F83F2020E0FB68DB6A7A689A420BD1CF
:1049CC00FB6804221A777B689B69002B14D1FB6867
:1049DC00012283F840200FE0FB681B6B7A689A4237
:1049EC000AD1FB6808221A777B689B69002B03D1DC
:1049FC00FB68012283F84120F868FCF7CDF8FB68CE
:104A0C0000221A7700BF1037BD4680BD80B584B038
:104A1C0000AF78607B685B6AFB60FB685B6A7A68F6
:104A2C009A4203D1FB6801221A7719E0FB689B6A52
:104A3C007A689A4203D1FB6802221A7710E0FB686D
:104A4C00DB6A7A689A4203D1FB6804221A7707E082
:104A5C00FB681B6B7A689A4202D1FB6808221A77B2
:104A6C00F868FFF71BFFFB6800221A7700BF1037AE
:104A7C00BD4680BD80B485B000AF786039607B687E
:104A8C001B68FB607B682F4A93420BD07B68B3F1A9
:104A9C00804F07D07B682C4A934203D07B682B4A0B
:104AAC00934208D1FB6823F07003FB603B685B68A2
:104ABC00FA681343FB607B68224A93420BD07B68F5
:104ACC00B3F1804F07D07B681F4A934203D07B68B9
:104ADC001E4A934208D1FB6823F44073FB603B6889
:104AEC00DB68FA681343FB60FB6823F080023B68C9
:104AFC005B691343FB607B68FA681A603B689A68D1
:104B0C007B68DA623B681A687B689A627B680D4A3C
:104B1C00934203D13B681A697B681A637B68012254
:104B2C005A617B681B6903F00103002B05D07B687D
:104B3C001B6923F001027B681A6100BF1437BD4664
:104B4C0080BC7047002C014000040040000800406D
:104B5C0080B487B000AF786039607B681B6A7B617A
:104B6C007B681B6A23F001027B681A627B685B68B6
:104B7C003B617B689B69FB60FB6823F07003FB6007
:104B8C00FB6823F00303FB603B681B68FA68134364
:104B9C00FB607B6923F002037B613B689B687A694D
:104BAC0013437B617B681C4A93420CD17B6923F0D5
:104BBC0008037B613B68DB687A6913437B617B6923
:104BCC0023F004037B617B68134A934211D13B6948
:104BDC0023F480733B613B6923F400733B613B68B6
:104BEC005B693A6913433B613B689B693A691343C0
:104BFC003B617B683A695A607B68FA689A613B68EA
:104C0C005A687B685A637B687A691A6200BF1C37E2
:104C1C00BD4680BC704700BF002C014080B487B0FB
:104C2C0000AF786039607B681B6A7B617B681B6AAC
:104C3C0023F010027B681A627B685B683B617B68BF
:104C4C009B69FB60FB6823F4E043FB60FB6823F487
:104C5C004073FB603B681B681B02FA681343FB60E4
:104C6C007B6923F020037B613B689B681B017A699D
:104C7C0013437B617B681D4A93420DD17B6923F002
:104C8C0080037B613B68DB681B017A6913437B61A2
:104C9C007B6923F040037B617B68144A934213D1F8
:104CAC003B6923F480633B613B6923F400633B6104
:104CBC003B685B699B003A6913433B613B689B69AA
:104CCC009B003A6913433B617B683A695A607B6885
:104CDC00FA689A613B685A687B689A637B687A6960
:104CEC001A6200BF1C37BD4680BC7047002C0140C7
:104CFC0080B487B000AF786039607B681B6A7B61D9
:104D0C007B681B6A23F480727B681A627B685B6821
:104D1C003B617B68DB69FB60FB6823F07003FB6025
:104D2C00FB6823F00303FB603B681B68FA681343C2
:104D3C00FB607B6923F400737B613B689B681B02FF
:104D4C007A6913437B617B681D4A93420DD17B6961
:104D5C0023F400637B613B68DB681B027A691343B5
:104D6C007B617B6923F480637B617B68144A93428B
:104D7C0013D13B6923F480533B613B6923F400530B
:104D8C003B613B685B691B013A6913433B613B68C0
:104D9C009B691B013A6913433B617B683A695A6012
:104DAC007B68FA68DA613B685A687B68DA637B680F
:104DBC007A691A6200BF1C37BD4680BC704700BFC1
:104DCC00002C014080B487B000AF786039607B68FC
:104DDC001B6A3B617B681B6A23F480527B681A62F6
:104DEC007B685B687B617B68DB69FB60FB6823F439
:104DFC00E043FB60FB6823F44073FB603B681B687B
:104E0C001B02FA681343FB603B6923F400533B61BC
:104E1C003B689B681B033A6913433B617B680F4AF1
:104E2C00934209D17B6923F480437B613B685B69C6
:104E3C009B017A6913437B617B687A695A607B6852
:104E4C00FA68DA613B685A687B681A647B683A696D
:104E5C001A6200BF1C37BD4680BC7047002C014055
:104E6C0080B487B000AFF860B9607A60FB681B6AE9
:104E7C007B61FB681B6A23F00102FB681A62FB680A
:104E8C009B693B613B6923F0F0033B617B681B0131
:104E9C003A6913433B617B6923F00A037B617A69AE
:104EAC00BB6813437B61FB683A699A61FB687A695A
:104EBC001A6200BF1C37BD4680BC704780B487B0F7
:104ECC0000AFF860B9607A60FB681B6A7B61FB68B5
:104EDC001B6A23F01002FB681A62FB689B693B613A
:104EEC003B6923F470433B617B681B033A691343B2
:104EFC003B617B6923F0A0037B61BB681B017A6972
:104F0C0013437B61FB683A699A61FB687A691A62A0
:104F1C0000BF1C37BD4680BC704780B485B000AF65
:104F2C00786039607B689B68FB60FB6823F07003DA
:104F3C00FB603A68FB68134343F00703FB607B6834
:104F4C00FA689A6000BF1437BD4680BC704780B4C5
:104F5C0087B000AFF860B9607A603B60FB689B6813
:104F6C007B617B6923F47F437B613B681A027B681E
:104F7C001A43BB6813437A6913437B61FB687A69F4
:104F8C009A6000BF1C37BD4680BC704780B487B0A8
:104F9C0000AFF860B9607A60BB6803F01F030122B0
:104FAC0002FA03F37B61FB681A6A7B69DB431A40E4
:104FBC00FB681A62FB681A6ABB6803F01F03796806
:104FCC0001FA03F31A43FB681A6200BF1C37BD4693
:104FDC0080BC704780B485B000AF786039607B6866
:104FEC0093F83C30012B01D1022346E07B6801226F
:104FFC0083F83C207B68022283F83D207B681B6889
:10500C005B68FB607B681B689B68BB60FB6823F07C
:10501C007003FB603B681B68FA681343FB607B689A
:10502C001B68FA685A607B681B68164A93420ED05C
:10503C007B681B68B3F1804F09D07B681B68124AF0
:10504C00934204D07B681B68104A93420CD1BB6816
:10505C0023F08003BB603B685B68BA681343BB609A
:10506C007B681B68BA689A607B68012283F83D20D4
:10507C007B68002283F83C20002318461437BD4679
:10508C0080BC7047002C0140000400400008004028
:10509C0080B483B000AF786000BF0C37BD4680BCD5
:1050AC00704780B483B000AF786000BF0C37BD464A
:1050BC0080BC704780B582B000AF78607B68002BF5
:1050CC0001D1012342E07B6893F84130DBB2002B25
:1050DC0006D17B68002283F840207868FCF7FAFC44
:1050EC007B68242283F841207B681B68DA687B6824
:1050FC001B6822F40052DA60786800F0B7FD7B6818
:10510C001B681A697B681B6822F490421A617B68E1
:10511C001B685A697B681B6822F02A025A617B68FB
:10512C001B68DA687B681B6842F40052DA607B68A3
:10513C0000225A647B68202283F841207B6820225D
:10514C0083F842207B6800225A63002318460837F4
:10515C00BD4680BD80B58AB002AFF860B9603B60D7
:10516C001346FB8000237B61FB6893F84130DBB274
:10517C00202B75D1BB68002B02D0FB88002B01D1F2
:10518C0001236EE0FB6800225A64FB68212283F83D
:10519C004120FDF79BFB7861FB68FA889A84FB68D9
:1051AC00FA88DA84FB689B68B3F5805F08D1FB68EA
:1051BC001B69002B04D10023FB61BB68BB6103E0BE
:1051CC00BB68FB610023BB612EE03B6800937B69ED
:1051DC0000228021F86800F01CFB0346002B05D050
:1051EC00FB68202283F8412003233AE0FB69002B63
:1051FC000BD1BB691B881A46FB681B68C2F30802FB
:10520C005A60BB690233BB6107E0FB691A78FB6823
:10521C001B685A60FB690133FB61FB68DB8C9BB23A
:10522C00013B9AB2FB68DA84FB68DB8C9BB2002BE7
:10523C00CBD13B6800937B6900224021F86800F0D9
:10524C00E8FA0346002B05D0FB68202283F84120A6
:10525C00032306E0FB68202283F84120002300E0B2
:10526C00022318462037BD4680BD80B584B000AF00
:10527C00F860B9601346FB80FB6893F84230DBB2F0
:10528C00202B12D1BB68002B02D0FB88002B01D144
:10529C0001230BE0FB6800221A63FB881A46B968ED
:1052AC00F86800F00FFB034600E0022318461037A5
:1052BC00BD4680BD80B5BAB000AF78607B681B6816
:1052CC001B68C7F8E4307B681B68DB68C7F8E03004
:1052DC007B681B685B69C7F8DC300023C7F8D830E3
:1052EC000023C7F8D430D7F8E43003F00F03C7F825
:1052FC00D830D7F8D830002B0FD1D7F8E43003F0E2
:10530C002003002B09D0D7F8E03003F02003002B4A
:10531C0003D0786800F0ECFB5BE2D7F8D830002BB8
:10532C0000F0DE80D7F8DC3003F00103002B06D14F
:10533C00D7F8E03003F49073002B00F0D180D7F84D
:10534C00E43003F00103002B0BD0D7F8E03003F46A
:10535C008073002B05D07B685B6C43F001027B688B
:10536C005A64D7F8E43003F00403002B0BD0D7F8C1
:10537C00DC3003F00103002B05D07B685B6C43F041
:10538C0002027B685A64D7F8E43003F00203002B66
:10539C000BD0D7F8DC3003F00103002B05D07B6871
:1053AC005B6C43F004027B685A64D7F8E43003F07A
:1053BC000803002B11D0D7F8E03003F02003002BAA
:1053CC0005D1D7F8DC3003F00103002B05D07B6846
:1053DC005B6C43F008027B685A647B685B6C002B47
:1053EC0000F0F281D7F8E43003F02003002B08D052
:1053FC00D7F8E03003F02003002B02D0786800F0DF
:10540C0077FB7B681B685B6903F04003002B14BFC0
:10541C0001230023DBB2C7F8D4307B685B6C03F04C
:10542C000803002B03D1D7F8D430002B4FD0786869
:10543C0000F081FA7B681B685B6903F04003002B6A
:10544C0041D07B681B681433C7F89C30D7F89C306C
:10545C0053E8003FC7F89830D7F8983023F0400352
:10546C00C7F8D0307B681B681433D7F8D020C7F846
:10547C00A820C7F8A430D7F8A410D7F8A82041E882
:10548C000023C7F8A030D7F8A030002BD9D17B6807
:10549C00DB6B002B13D07B68DB6B7E4A5A637B681B
:1054AC00DB6B1846FDF744FC0346002B16D07B68DB
:1054BC00DB6B5B6B7A68D26B104698470EE07868B2
:1054CC0000F093F90AE0786800F08FF906E078684C
:1054DC0000F08BF97B6800225A6475E100BF73E120
:1054EC007B681B6B012B40F04F81D7F8E43003F045
:1054FC001003002B00F04881D7F8E03003F01003C4
:10550C00002B00F041810023BB607B681B681B688B
:10551C00BB607B681B685B68BB60BB687B681B6897
:10552C005B6903F04003002B00F0B6807B68DB6BFB
:10553C001B685B68A7F8BE30B7F8BE30002B00F0D4
:10554C0045817B689B8DB7F8BE209A4280F03E81E6
:10555C007B68B7F8BE20DA857B68DB6B9B69202BF8
:10556C0000F088807B681B680C33C7F88830D7F84C
:10557C00883053E8003FC7F88430D7F8843023F4E0
:10558C008073C7F8B8307B681B680C33D7F8B82029
:10559C00C7F89420C7F89030D7F89010D7F894201B
:1055AC0041E80023C7F88C30D7F88C30002BD9D1C8
:1055BC007B681B6814337B677B6F53E8003F3B674A
:1055CC003B6F23F00103C7F8B4307B681B681433BE
:1055DC00D7F8B420C7F88020FB67F96FD7F8802084
:1055EC0041E80023BB67BB6F002BE1D17B681B68D4
:1055FC0014333B663B6E53E8003FFB65FB6D23F0B9
:10560C004003C7F8B0307B681B681433D7F8B02060
:10561C00FA66BB66B96EFA6E41E800237B667B6E58
:10562C00002BE3D17B68202283F842207B68002288
:10563C001A637B681B680C33FB64FB6C53E8003FFC
:10564C00BB64BB6C23F01003C7F8AC307B681B68E1
:10565C000C33D7F8AC20BA657B65796DBA6D41E82F
:10566C0000233B653B6D002BE3D17B68DB6B18465D
:10567C00FDF722FB7B6802225A637B689A8D7B685C
:10568C00DB8D9BB2D31A9BB21946786800F0B6F842
:10569C009CE000BF075A00087B689A8D7B68DB8D05
:1056AC009BB2D31AA7F8CE307B68DB8D9BB2002B54
:1056BC0000F08E80B7F8CE30002B00F089807B682C
:1056CC001B680C33BB63BB6B53E8003F7B637B6B8A
:1056DC0023F49073C7F8C8307B681B680C33D7F879
:1056EC00C8207A643B64396C7A6C41E80023FB6314
:1056FC00FB6B002BE3D17B681B6814337B627B6AEA
:10570C0053E8003F3B623B6A23F00103C7F8C43007
:10571C007B681B681433D7F8C4203A63FB62F96AC0
:10572C003A6B41E80023BB62BB6A002BE3D17B6878
:10573C00202283F842207B6800221A637B681B6856
:10574C000C333B613B6953E8003FFB60FB6823F083
:10575C001003C7F8C0307B681B680C33D7F8C02027
:10576C00FA61BB61B969FA6941E800237B617B6925
:10577C00002BE3D17B6802225A63B7F8CE3019466E
:10578C00786800F03BF823E0D7F8E43003F08003AE
:10579C00002B09D0D7F8E03003F08003002B03D0A6
:1057AC00786800F03EF914E0D7F8E43003F04003D9
:1057BC00002B0ED0D7F8E03003F04003002B08D0BC
:1057CC00786800F07DF904E000BF02E000BF00E063
:1057DC0000BFE837BD4680BD80B483B000AF7860B1
:1057EC0000BF0C37BD4680BC704780B483B000AF9F
:1057FC00786000BF0C37BD4680BC704780B483B066
:10580C0000AF78600B467B8000BF0C37BD4680BC78
:10581C00704780B586B000AFF860B9603B60134646
:10582C00FB713BE03B6AB3F1FF3F37D0FDF74EF81D
:10583C0002463B68D31A3A6A9A4202D33B6A002B5F
:10584C0001D103233AE0FB681B68DB6803F0040317
:10585C00002B23D0BB68802B20D0BB68402B1DD0E5
:10586C00FB681B681B6803F00803082B16D1002388
:10587C007B61FB681B681B687B61FB681B685B6852
:10588C007B617B69F86800F056F8FB6808225A6463
:10589C00FB68002283F8402001230FE0FB681B68A3
:1058AC001A68BB681340BA689A420CBF01230023E4
:1058BC00DBB21A46FB799A42B4D00023184618374B
:1058CC00BD4680BD80B485B000AFF860B9601346AA
:1058DC00FB80FB68BA689A62FB68FA889A85FB6859
:1058EC00FA88DA85FB6800225A64FB68222283F866
:1058FC004220FB681B69002B07D0FB681B68DA6829
:10590C00FB681B6842F48072DA60FB681B685A699A
:10591C00FB681B6842F001025A61FB681B68DA687D
:10592C00FB681B6842F02002DA600023184614372B
:10593C00BD4680BC704780B495B000AF78607B6882
:10594C001B680C337B637B6B53E8003F3B633B6B07
:10595C0023F49073FB647B681B680C33FA6C3A6419
:10596C00FB63F96B3A6C41E80023BB63BB6B002B08
:10597C00E5D17B681B6814333B623B6A53E8003FFC
:10598C00FB61FB6923F00103BB647B681B68143368
:10599C00BA6CFA62BB62B96AFA6A41E800237B62AC
:1059AC007B6A002BE5D17B681B6B012B19D17B68C3
:1059BC001B680C33FB60FB6853E8003FBB60BB68A3
:1059CC0023F010037B647B681B680C337A6CBA6120
:1059DC007B617969BA6941E800233B613B69002B23
:1059EC00E5D17B68202283F842207B6800221A6371
:1059FC0000BF5437BD4680BC704780B584B000AF43
:105A0C0078607B685B6AFB60FB680022DA85FB6868
:105A1C000022DA84F868FFF7E8FE00BF1037BD46B5
:105A2C0080BD80B485B000AF78607B6893F841305E
:105A3C00DBB2212B3ED17B689B68B3F5805F14D120
:105A4C007B681B69002B10D17B681B6AFB60FB68B1
:105A5C001B881A467B681B68C2F308025A607B6875
:105A6C001B6A9A1C7B681A6208E07B681B6A591CCB
:105A7C007A6811621A787B681B685A607B68DB8CC9
:105A8C009BB2013B9BB27A681946D184002B0FD193
:105A9C007B681B68DA687B681B6822F08002DA601E
:105AAC007B681B68DA687B681B6842F04002DA602E
:105ABC00002300E0022318461437BD4680BC704713
:105ACC0080B582B000AF78607B681B68DA687B6851
