:020000040800F2
:1000000000500020C53A0008492E0008512E000873
:10001000592E0008612E0008692E0008000000001B
:10002000000000000000000000000000712E000829
:100030007D2E000800000000892E0008952E000883
:100040000D3B00080D3B00080D3B00080D3B000870
:100050000D3B00080D3B00080D3B00080D3B000860
:100060000D3B00080D3B00080D3B00080D3B000850
:100070000D3B00080D3B00080D3B0008A12E0008B9
:100080000D3B00080D3B00080D3B00080D3B000830
:100090000D3B00080D3B00080D3B00080D3B000820
:1000A0000D3B00080D3B00080D3B00080D3B000810
:1000B000B52E00080D3B00080D3B00080D3B000865
:1000C0000D3B00080D3B00080D3B00080D3B0008F0
:1000D0000D3B0008C92E00080D3B00080D3B000831
:1000E0000D3B00080D3B00080D3B00080000000020
:1000F0000000000000000000000000000000000000
:0C01000000000000000000005FF808F1A3
:10010C0010B5054C237833B9044B13B10448AFF345
:10011C0000800123237010BD880000200000000027
:10012C00C078000808B5034B1BB103490348AFF373
:10013C00008008BD000000008C000020C078000882
:10014C00034613F8012B002AFBD1181A013870470B
:10015C0080B500AF14220021054806F01DFF044BAA
:10016C0000221A70024B01221A740023184680BD1B
:10017C00A400002080B500AF134B1B7C83F001035F
:10018C00DBB2002B01D001231CE00F4B01221A70B3
:10019C000D4B00225A800C4B00221A710A4B002284
:1001AC005A71094B00229A71074B0022DA71064BE7
:1001BC0000221A7203F0FEFC0346034AD36000F0DF
:1001CC00BDF80023184680BDA400002080B500AF08
:1001DC00084B1B7C83F00103DBB2002B01D0012305
:1001EC0005E0044B00221A7000F0A8F80023184612
:1001FC0080BD00BFA400002080B584B000AF786043
:10020C00384B1B7C83F00103DBB2002B02D17B68E3
:10021C00002B01D1012361E0324B1B78012B01D063
:10022C0001235BE02F4B5B790133DAB22D4B5A7112
:10023C00786802F071FA0346FB737B6893F84130DF
:10024C00BB73FB7B012B11D1264B9B790133DAB2AB
:10025C00244B9A71234B00221A71224B5A88BB7B78
:10026C009BB213449AB21F4B5A8020E0FB7B022BAB
:10027C000CD11C4BDB790133DAB21A4BDA71194B06
:10028C001B790133DAB2174B1A7110E0154B1B7A3C
:10029C000133DAB2134B1A72124B00221A71114B42
:1002AC005A88BB7B9BB213449AB20E4B5A8000F017
:1002BC0067F800F043F80B4B1B78022B04D102209B
:1002CC0000F078F8022309E0064B1B78032B04D1CD
:1002DC00032000F06FF8032300E0002318461037CA
:1002EC00BD4680BDA400002080B400AF024B1B783B
:1002FC001846BD4680BC7047A400002080B400AFF7
:10030C00054B5B88312B8CBF01230023DBB21846D5
:10031C00BD4680BC704700BFA400002080B400AF75
:10032C00054B1B79012B8CBF01230023DBB2184634
:10033C00BD4680BC704700BFA400002080B582B0D1
:10034C0000AF0023FB710D4B1B78022B02D1012354
:10035C00FB7105E0094B1B78032B01D10223FB71C8
:10036C00064B9879054BD979044B5A88FB7903F0E5
:10037C0062F9002318460837BD4680BDA400002052
:10038C0080B500AFFFF7BAFF0346002B03D0084B34
:10039C0002221A700BE0FFF7C1FF0346002B03D0BB
:1003AC00034B03221A7002E0014B01221A7080BD2C
:1003BC00A400002080B584B000AF0346FB71FB792C
:1003CC00022B0CD100233B73FF237B730023BB73E5
:1003DC004FF47A72F9680B4800F094FD0EE0FB794B
:1003EC00032B0BD1FF233B7200237B720023BB72C8
:1003FC004FF47A72B968044800F084FD00BF1037DE
:10040C00BD4680BDD8780008DC78000880B500AF08
:10041C000D4B1B7C002B01D0002313E01422002178
:10042C00094806F0B9FD084B00221A70064B002251
:10043C005A7003F0BFFB0346034A5360024B012280
:10044C001A740023184680BDB800002080B582B015
:10045C0000AF7860144B1B7C83F00103DBB2002BE4
:10046C0002D17B68002B01D1012318E00E4B1B78C5
:10047C00002B05D00C4B1B78032B01D002230EE074
:10048C00786801F055FF084B0022DA60064B002219
:10049C009A60012000F0ACF900F0C2F90023184674
:1004AC000837BD4680BD00BFB800002080B500AF46
:1004BC000D4B1B7C83F00103DBB2002B01D001231D
:1004CC0010E0094B1B78012B01D002230AE003F04A
:1004DC0071FB0346044A9360022000F089F900F096
:1004EC009FF90023184680BDB800002080B582B06B
:1004FC0000AF144B1B7C83F00103DBB2002B01D04B
:10050C0001231BE00F4B1B78022B01D0022315E0BB
:10051C0003F050FB02460B4B9B68D31A7B60094BD4
:10052C00DA687B681344074AD360064B00229A6052
:10053C00012000F05DF900F073F90023184608372C
:10054C00BD4680BDB800002080B584B000AF786097
:10055C001E4B1B7C83F00103DBB2002B02D17B68AA
:10056C00002B01D101232CE0184B1B78012B05D05B
:10057C00164B1B78022B01D0022322E0134B1B7865
:10058C00022B0FD103F016FB0246104B9B68D31ABB
:10059C00FB600E4BDA68FB6813440C4AD3600B4BC0
:1005AC0000229A607B6893F84330002B03D17B6860
:1005BC00032283F84320032000F01AF900F030F9ED
:1005CC00002318461037BD4680BD00BFB800002080
:1005DC0080B582B000AF78600F4B1B7C83F00103B9
:1005EC00DBB2002B02D17B68002B01D101230EE082
:1005FC00786802F086F9084B0022DA60064B00227C
:10060C009A60002000F0F4F800F00AF90023184674
:10061C000837BD4680BD00BFB800002080B584B04F
:10062C0000AF03463960FB71214B1B7C83F0010347
:10063C00DBB2002B02D13B68002B01D1012333E04C
:10064C000023FB73FB79013B042B29D801A252F840
:10065C0023F000BF75060008810600088B06000811
:10066C0095060008A10600083868FFF7EFFE034660
:10067C00FB7318E0FFF71AFF0346FB7313E0FFF759
:10068C0035FF0346FB730EE03868FFF75DFF03464A
:10069C00FB7308E03868FFF79BFF0346FB7302E02F
:1006AC000323FB7300BFFB7B18461037BD4680BD90
:1006BC00B800002080B584B000AF03463960FB71F0
:1006CC002F4B1B7C83F00103DBB2002B02D13B6868
:1006DC00002B01D100234EE00023FB730123BB73DD
:1006EC00FB790F2B3ED801A252F823F039070008F2
:1006FC0071070008710700087107000871070008EE
:10070C0071070008710700087107000871070008DD
:10071C0071070008710700087107000845070008F9
:10072C00650700084F070008590700083868FFF7ED
:10073C008DFE0346FB7318E0FFF7B8FE0346FB7310
:10074C0013E0FFF7D3FE0346FB730EE03868FFF7A8
:10075C00FBFE0346FB7308E03868FFF739FF0346DE
:10076C00FB7302E00023BB7300BFFB7B022B01D1A8
:10077C000123BB73BB7B18461037BD4680BD00BF41
:10078C00B800002080B400AF024B1846BD4680BCB8
:10079C00704700BFB800002080B483B000AF0346A0
:1007AC00FB71FB79032B13D801A252F823F000BF85
:1007BC00CD070008D1070008D5070008D9070008A5
:1007CC00064B06E0064B04E0064B02E0064B00E04D
:1007DC00064B18460C37BD4680BC70476479000840
:1007EC006C790008747900087C7900088479000819
:1007FC0080B582B000AF0346FB71084B1A78074BEB
:10080C005A70064AFB79137003F0D4F90346034A75
:10081C00536000BF0837BD4680BD00BFB800002044
:10082C0080B590B000AF094B1B781846FFF7B4FFAA
:10083C0003463846064A402106F078FB3B461846EC
:10084C0002F0E0FE00BF4037BD4680BDB80000207E
:10085C008C79000880B582B000AF2C4B93F89C319A
:10086C00002B01D000234CE04FF4D072002127481C
:10087C0006F092FB254B0A22C3F88821234B4FF438
:10088C007A72C3F88C210023FB711EE00023BB712C
:10089C0015E0F979BB791A4652001A4493001A46AE
:1008AC000B465B000B441B011344184A1344BA79E2
:1008BC00F979184600F09CFABB790133BB71BB790E
:1008CC00032BE6D9FB790133FB71FB79032BDDD9C3
:1008DC0000237B7107E07B790121184600F0B4F905
:1008EC007B7901337B717B79032BF4D903F062F9AB
:1008FC000346064AC2F89031044B012283F89C212E
:10090C00002318460837BD4680BD00BFCC00002030
:10091C0080B586B000AF624B93F89C3183F0010335
:10092C00DBB2002B40F0B78003F044F938615C4B2C
:10093C00D3F8943101335A4AC2F894310023FB7531
:10094C0092E00023BB750FE0BA7DFB7D9A4214BF89
:10095C0001230023DBB21A46BB7D1146184600F07A
:10096C0073F9BB7D0133BB75BB7D032BECD9022026
:10097C0000F05EFA00237B7570E07B7D184600F07A
:10098C0083F90346FB73FB7B002B0CBF0123002375
:10099C00BB73F97D7B7D1A4652001A4493001A46AC
:1009AC000B465B000B441B0113443D4A1344BB60D4
:1009BC00BB7B1946B86800F087F90346002B16D0AC
:1009CC00B86800F0C7F9364BD3F898310133344A84
:1009DC00C2F89831324BD3F88431002B07D0304B0E
:1009EC00D3F88431BA689278797DF87D9847BB68E2
:1009FC009B78012B2FD1BB7B002B2CD0BB685B6869
:100A0C003A69D31A7B60264BD3F88C317A689A42B8
:100A1C0021D3BB689B78022B1DD0BB689A78BB682E
:100A2C00DA70BB6802229A70B86800F093F91C4B1C
:100A3C00D3F8983101331A4AC2F89831184BD3F8CD
:100A4C008431002B07D0164BD3F88431BA689278D6
:100A5C00797DF87D98477B7D01337B757B7D032BFE
:100A6C008BD9FB7D0133FB75FB7D032B7FF669AFC7
:100A7C0000233B7507E03B7D0121184600F0E4F8AC
:100A8C003B7D01333B753B7D032BF4D9044A3B6919
:100A9C00C2F8903100E000BF1837BD4680BD00BFE2
:100AAC00CC00002090B488B000AF786007F114033C
:100ABC0000221A605A609A60254B93F89C3183F09F
:100ACC000103DBB2002B04D1214B93F88231002BB4
:100ADC0008D17B681C4607F1140393E8070084E8EF
:100AEC0007002FE01A4B93F881311946184A0B4630
:100AFC005B000B449B00134403F1C00207F1080395
:100B0C0007CA83E80700124B93F8813101335A422C
:100B1C0003F00F0302F00F0258BF5342DAB20C4B32
:100B2C0083F881210A4B93F88231013BDAB2084BEE
:100B3C0083F882217B681C4607F1080393E80700C1
:100B4C0084E8070078682037BD4690BC704700BF2A
:100B5C00CC00002080B483B000AF7860094B93F8D0
:100B6C009C3183F00103DBB2002B01D0012304E0A4
:100B7C00044A7B68C2F88431002318460C37BD4602
:100B8C0080BC7047CC00002080B582B000AF214BF8
:100B9C0093F89C3183F00103DBB2002B01D00023CE
:100BAC0034E00023FB7107E0FB790021184600F0CC
:100BBC004BF8FB790133FB71FB79032BF4D905203E
:100BCC0000F036F90023BB7100237B710CE07B79BC
:100BDC00184600F059F80346002B02D10123BB71D3
:100BEC0005E07B7901337B717B79032BEFD90023F3
:100BFC003B7107E03B790121184600F025F83B7961
:100C0C0001333B713B79032BF4D9BB791846083778
:100C1C00BD4680BDCC00002080B582B000AF02F094
:100C2C00C9FF7860074B1B687A68D31A042B04D968
:100C3C00FFF76EFE034A7B68136000BF0837BD46A2
:100C4C0080BD00BF6C02002080B582B000AF0346AF
:100C5C000A46FB711346BB71FB79032B0BD8FB794E
:100C6C00074A52F82300FB79064A32F81330BA7956
:100C7C00194603F018FD00BF0837BD4680BD00BF04
:100C8C0000000020587A000880B582B000AF0346FF
:100C9C00FB71FB79032B0DD8FB79094A52F8232001
:100CAC00FB79084931F813301946104603F0E4FC7F
:100CBC00034600E0012318460837BD4680BD00BF3F
:100CCC0010000020607A000880B584B000AF786016
:100CDC000B46FB7002F06EFFB8600023FB73FB78D1
:100CEC00002B1DD07B689B78002B2DD17B689B68DB
:100CFC00002B03D17B68BA689A6025E07B689B68FF
:100D0C00BA68D31A092B1FD97B680022DA707B686A
:100D1C0001229A707B68BA685A600123FB7313E056
:100D2C007B689B78002B0CD07B689A787B68DA7098
:100D3C007B6800229A707B6800229A600123FB7307
:100D4C0002E07B6800229A60FB7B18461037BD4698
:100D5C0080BD000080B483B000AF7860234B93F863
:100D6C0082310F2B16D9214B93F8813101335A4222
:100D7C0003F00F0302F00F0258BF5342DAB21B4BC1
:100D8C0083F88121194B93F88231013BDAB2174B6E
:100D9C0083F88221154B93F880311946134A0B4680
:100DAC005B000B449B001344C0337A6807CA83E88A
:100DBC0007000E4B93F8803101335A4203F00F03B6
:100DCC0002F00F0258BF5342DAB2084B83F880216D
:100DDC00064B93F882310133DAB2044B83F882214B
:100DEC0000BF0C37BD4680BC704700BFCC00002054
:100DFC0080B483B000AF78600B46FB701346BB70B9
:100E0C007B68FA781A707B68BA785A707B68002213
:100E1C009A707B680022DA707B6800225A607B68CB
:100E2C0000229A6000BF0C37BD4680BC70470000A2
:100E3C0080B485B000AF78600D4B5B68FB600D4BE8
:100E4C001B680D4AA2FB03239A0C7B6802FB03F37D
:100E5C00BB6000BF064B5A68FB68D31ABA689A424B
:100E6C00F8D800BF00BF1437BD4680BC704700BF28
:100E7C00001000E02800002083DE1B4380B483B008
:100E8C0000AF03460A46FB711346BB71FB79032B7B
:100E9C0002D8BB79032B01D9FF2306E0FA79BB7981
:100EAC00044992000A4413441B7818460C37BD467B
:100EBC0080BC7047487A000880B400AF0023184605
:100ECC00BD4680BC704780B584B000AF3B60034624
:100EDC00FB710B46BB7113467B71FB79184600F016
:100EEC0079F8F860FB68002B01D1022306E07A79CF
:100EFC00B9793B68F86800F09BF800231846103766
:100F0C00BD4680BD80B588B000AFF860B9601346AF
:100F1C00FB80FB68002B01D1022356E0F868FFF739
:100F2C000FF90346BB76BB7E002B01D102234CE0AC
:100F3C0001237B7600233B760023FB7740E00023E4
:100F4C00BB830AE0012002F03FFEBB8B0133BB8365
:100F5C00BB8B642B01D9012337E002F0E1FC034683
:100F6C00002BEFD102F09CFCFB7FFA68134418783D
:100F7C00797E3A7EBB68FFF7A6FF0023FB7602F072
:100F8C00A3FC0346FB75FB7D022B0AD1012002F06A
:100F9C001BFEFB7E0133FB76FB7E0A2B06D901235D
:100FAC0013E0FB7D002B01D001230EE0FB7D022B17
:100FBC00E5D0FB88184602F007FEFB7F0133FB7778
:100FCC00FA7FBB7E9A42BAD3002318462037BD461F
:100FDC0080BD000080B485B000AF0346FB71FB7987
:100FEC00FB73FB7B0133104A13441B7803F00303A0
:100FFC00022B02D1FB7B203B00E0FB7BFB71FB79DE
:10100C001F2B0BD9FB795A2B08D8FB79A3F12002A3
:10101C0013469B001344054A134400E0034B184647
:10102C001437BD4680BC7047CA7B0008687A00083C
:10103C0080B586B000AFF8607B600B46FB72134640
:10104C00BB720023FB752CE0FB7DFA6813441B7804
:10105C007B750023BB751EE07A7DBB7D42FA03F3E2
:10106C0003F00103002B13D0FA7AFB7D13443B757C
:10107C00BA7ABB7D1344FB743B7D072B08D8FB7CF1
:10108C00072B05D8397DFB7C7A68184602F0D6FB15
:10109C00BB7D0133BB75BB7D062BDDD9FB7D0133DD
:1010AC00FB75FB7D042BCFD900BF00BF1837BD46A5
:1010BC0080BD80B485B000AF786039607B68002B50
:1010CC0046D03B68002B43D00023FB601AE0002382
:1010DC00BB6011E07A68FB68DB001A44BB68134400
:1010EC0019783A68FB68DB001A44BB6813440A465B
:1010FC001A70BB680133BB60BB68072BEADDFB6869
:10110C000133FB60FB68072BE1DD7B6893F8402023
:10111C003B6883F840207B6893F841203B6883F858
:10112C0041207B6893F842203B6883F842207B681F
:10113C0093F84330002B14BF01230023DBB21A4673
:10114C003B6883F843207B685A6C3B685A6400E028
:10115C0000BF1437BD4680BC704780B594B000AF5B
:10116C00786007F1080319467868FFF7A2FF07F1CA
:10117C000803184602F0E4F9034618465037BD46FA
:10118C0080BD000080B582B000AF02F0BBFC00F067
:10119C0079F800F079F900F059F900F0B9F800F09D
:1011AC002BF9642002F010FD324BDB68314A43F01E
:1011BC008073D360304B1B682F4A43F001031360DC
:1011CC0002F000FB0346002B01D001F094F8FFF76E
:1011DC0041FB03467B717B79002B01D001F08BF82E
:1011EC00FFF7D2FC01F0B0FE0346002B21D0002308
:1011FC00FB7117E00023BB710EE0FF233B70002353
:10120C007B700023BB70B979FB793A68184602F001
:10121C0015FBBB790133BB71BB79072BEDD9FB797E
:10122C000133FB71FB79072BE4D902F04DFB01F084
:10123C0062F8642002F0C8FC02F02EF90F48FFF7A8
:10124C0089FC0F4802F08EF801F05CF80346002B85
:10125C0001D001F050F800F081F900F0B7F9FFF778
:10126C00DBFC00F0E3F902F02FF9012002F0ACFCFA
:10127C0000BFF2E7F0ED00E0001000E0F11D000807
:10128C00551E000880B590B000AF07F11803282256
:10129C000021184605F080FE3B1D00221A605A60A2
:1012AC009A60DA601A610123BB614FF48033FB61F1
:1012BC0000233B620123BB6202237B634FF4803328
:1012CC00BB634FF4E013FB6307F11803184603F0FC
:1012DC0003FA0346002B01D001F00DF80F237B60BD
:1012EC000223BB600023FB604FF480633B6100234F
:1012FC007B613B1D0221184603F070FC0346002B5A
:10130C0001D000F0F8FF00BF4037BD4680BD0000A3
:10131C0080B58EB000AF07F1280300221A605A6026
:10132C009A60DA6007F1200300221A605A603B1DB4
:10133C0000221A605A609A60DA601A615A619A61E6
:10134C002C4B4FF080421A602A4B00225A60294BDA
:10135C0000229A60274B5922DA60264B00221A6130
:10136C00244B00229A61234803F0C6FD0346002B50
:10137C0001D000F0C0FF4FF48053BB6207F128038B
:10138C0019461C4804F07AFA0346002B01D000F0F1
:10139C00B2FF184803F0FFFD0346002B01D000F00C
:1013AC00AAFF00233B6200237B6207F1200319464E
:1013BC00104804F0E1FE0346002B01D000F09BFF27
:1013CC0060237B600023BB600023FB6000237B61F8
:1013DC003B1D00221946074804F08EF90346002BEA
:1013EC0001D000F088FF034801F0A4FC00BF38379F
:1013FC00BD4680BD7002002080B500AF114B124A73
:10140C001A60104B4FF4E1325A600E4B00229A6076
:10141C000C4B0022DA600B4B00221A61094B0C2298
:10142C005A61084B00229A61064B0022DA6105488A
:10143C0004F012FF0346002B01D000F05CFF00BF4C
:10144C0080BD00BFFC0200200038014080B582B096
:10145C0000AF0C4B5B690B4A43F001035361094B22
:10146C005B6903F001037B607B68002202210F2083
:10147C0002F0A5FC0F2002F0BEFC00BF0837BD46F1
:10148C0080BD00BF0010024080B588B000AF07F1EE
:10149C00100300221A605A609A60DA60244B9B6930
:1014AC00234A43F020039361214B9B6903F02003F3
:1014BC00FB60FB681E4B9B691D4A43F00403936160
:1014CC001B4B9B6903F00403BB60BB68184B9B6907
:1014DC00174A43F008039361154B9B6903F008030B
:1014EC007B607B6801224FF47041124803F0DBF8FB
:1014FC004FF470433B6101237B610023BB610223EA
:10150C00FB6107F1100319460A4802F031FF4FF452
:10151C00F0733B6100237B610123BB6107F1100376
:10152C001946044802F024FF00BF2037BD4680BD99
:10153C0000100240000C014080B582B000AF786012
:10154C007B681B68B3F1804F02D1034802F01CFA90
:10155C0000BF0837BD4680BDB802002080B500AF83
:10156C0020220021154805F017FDFEF74FFF03461A
:10157C00002B01D000F0BFFEFEF7EAFD0346002B66
:10158C0001D000F0B8FEFFF797FC0346002B01D00A
:10159C0000F0B1FE0A4800F0CBFE0346002B07D149
:1015AC00084B01221A70084B1B680133064A136062
:1015BC0002F076F900F06EF800BF80BDE003002069
:1015CC0044030020000400200404002080B584B0F3
:1015DC0000AF134B1B78DBB2002B05D0104B002255
:1015EC001A7000F003FB18E03B1D1846FFF75AFA7F
:1015FC00BB79002B03D03B1D184600F0C9F800F056
:10160C00D7FA084B1B78002B07D0074801F064F879
:10161C000346002B01D000F0E9FA1037BD4680BD1F
:10162C000E040020000400204403002080B582B08A
:10163C0000AF154B1B7883F00103DBB2002B1ED1DE
:10164C0002F0B8FA7860114B1B687A68D31AB3F5BC
:10165C00FA7F15D30D4A7B6813600D4B1B78002B5A
:10166C0014BF01230023DBB283F00103DBB203F0D0
:10167C000103DAB2064B1A7000F00CF800E000BF60
:10168C000837BD4680BD00BF0004002008040020C0
:10169C002200002080B584B000AF364B1B7883F05D
:1016AC000103DBB2002B61D102F0FAF80023FB73CB
:1016BC0037E00023BB732EE0BA7BFB7B19462E4828
:1016CC0001F000F903463B733B7B012B0FD12B4AF6
:1016DC0007F108031268114619800233120C1A70B4
:1016EC00B97BFB7BBA68184602F0A8F810E03B7B8C
:1016FC00022B0DD1224A3B1D126811461980023370
:10170C00120C1A70B97BFB7B7A68184602F096F8BB
:10171C00BB7B0133BB73BB7B072BCDD9FB7B01336D
:10172C00FB73FB7B072BC4D9164B1B78002B1AD0F1
:10173C00154B1B78154A127819460F4801F0C2F860
:10174C0003467B737B7B002B0DD10F4B1B780F4A11
:10175C00117800223A70FF227A700022BA703A682F
:10176C00184602F06BF802F0AFF800E000BF10373B
:10177C00BD4680BD00040020440300201C7A0008F4
:10178C00207A0008220000202000002021000020E8
:10179C0080B58AB000AF7860AF4B1B7883F0010343
:1017AC00DBB2002B40F0C5817B68002B00F0C181BF
:1017BC007B681A787B685B7819461046FFF75EFBEE
:1017CC00034687F827307B689B78012B40F0C48157
:1017DC0097F82730A1491846FEF76CFF0346002BFB
:1017EC0012D097F82730002B03D097F827300D2B09
:1017FC0004D19B4B1B680133994A1360FFF74AFFD6
:10180C009648FFF7AAFCA7E197F827300B2B27D1B6
:10181C00944B1B78002B14BF01230023DBB283F005
:10182C000103DBB203F00103DAB28E4B1A708D4B5D
:10183C001B78002B02D08C4B01221A70FFF72AFF69
:10184C00884B1B7887F82030874B1B7887F8213022
:10185C0007F1200302221946112001F0A3FB7BE1C2
:10186C0097F82730032B2AD17E4B1B78002B00F0E6
:10187C0062817D4B01221A707C4A07F11C031268AD
:10188C00114619800233120C1A70794B1B78794A65
:10189C001178FA69184601F0D1FF02F015F8C8204A
:1018AC0002F092F9FFF7F6FE734B1B883B8307F1AE
:1018BC00180302221946112001F074FB4CE197F831
:1018CC002730072B2AD1674B1B78002B00F0358172
:1018DC00654B02221A70694A07F11403126811460B
:1018EC0019800233120C1A70614B1B78614A117803
:1018FC007A69184601F0A2FF01F0E6FFC82002F059
:10190C0063F9FFF7C7FE5E4B1B883B8207F11003A0
:10191C0002221946112001F045FB1DE1FEF732FFB2
:10192C0003461B78012B40F00A8197F827300F2BC8
:10193C0000F2078101A252F823F000BF4F1B0008F0
:10194C00891900084F1B00084F1B0008B519000827
:10195C00E1190008C51A00084F1B00084F1B0008AE
:10196C00EF1A0008371B00084F1B00084F1B00081C
:10197C00191B00084F1B00084F1B00083C4B1B7821
:10198C00002B00F0E0803A4B1B78013BDAB2384B6D
:10199C001A703C4B01221A7002F00CF903463A4AB9
:1019AC001360FFF777FECEE0324B1B78002B00F074
:1019BC00CC80304B1B78013BDAB22E4B1A70314B7A
:1019CC0001221A7002F0F6F803462F4A1360FFF753
:1019DC0061FEBAE0234B1B78002B11D0244B1978F5
:1019EC00244B1A78204B1B781C4800F0F9FD034659
:1019FC0087F82530FFF74EFE1848FFF7AEFBABE03B
:101A0C001B4B19781B4B1A78144B93F84030134826
:101A1C0000F0F0FC0346002B38D0154B1978154B11
:101A2C001A780E4B93F840300C4800F01DFD03461D
:101A3C0087F8263097F82630002B00F08880FFF7C7
:101A4C0029FE0648FFF789FB044B93F84330002B23
:101A5C007DD000F08FF87AE00004002044030020D1
:101A6C00040400200D04002024000020247A000827
:101A7C002000002021000020287A0008207A00088D
:101A8C002C7A00082200002008040020344B1B781C
:101A9C00344A1178FF223A7300227A730022BA7307
:101AAC00FA68184601F0CAFE01F00EFFC82002F0D9
:101ABC008BF8FFF7EFFD4AE02A4B1B78062B48D832
:101ACC00284B1B780133DAB2264B1A70264B0122B5
:101ADC001A7002F06FF80346244A1360FFF7DAFD20
:101AEC0037E01F4B1B78062B35D81D4B1B78013369
:101AFC00DAB21B4B1A701C4B01221A7002F05AF806
:101B0C0003461A4A1360FFF7C5FD24E0184800F09D
:101B1C000FFC134B03221A70124B03221A70124B38
:101B2C0001221A70FFF7B6FD16E01148FFF715FBFE
:101B3C0012E000BF10E000BF0EE000BF0CE000BFE1
:101B4C000AE000BF08E000BF06E000BF04E000BFF1
:101B5C0002E000BF00E000BF2837BD4680BD00BFDB
:101B6C00200000202100002022000020080400207A
:101B7C004403002080B582B000AF0B4B1B7883F080
:101B8C000103DBB2002B0AD1084B93F84330002B36
:101B9C0006D0064800F0C0FD0346FB7100E000BF14
:101BAC000837BD4680BD00BF000400204403002060
:101BBC0080B582B000AF01F0FDFF7860094B1B6867
:101BCC007A68D31A632B08D9064A7B681360064BD4
:101BDC001B78002B01D0FFF75DFD00BF0837BD4619
:101BEC0080BD00BF100400200004002080B58AB026
:101BFC0000AF714B1A68714B1B689A4200F0D88089
:101C0C006D4B1B686D4A13606D4B01221A706D4948
:101C1C006D4800F08FFE6B4800F07EFD034687F8A0
:101C2C00253097F82530012B0FD100233B77FF236C
:101C3C007B770023BB774FF47A72F9696348FFF71F
:101C4C0061F9034687F8223025E097F82530022BFE
:101C5C000FD1FF233B7600237B760023BB764FF41A
:101C6C007A72B9695A48FFF74DF9034687F8233061
:101C7C0011E0584A07F11403126811461980023317
:101C8C00120C1A704FF47A7279695348FFF73AF9CB
:101C9C00034687F8243001F003FE01F015FE4FF4E3
:101CAC00FA7001F091FF4D4B1B78022B16D1454871
:101CBC00FEF7A2FA034687F8213097F82130022B61
:101CCC0004D140F6B83001F07FFF07E097F82130DF
:101CDC00032B03D140F6B83001F076FF01F0E0FDA4
:101CEC0097F82530012B09D100233B7400237B741A
:101CFC000023BB74386901F01DFE4CE097F82530C9
:101D0C00022B0CD1364A07F10C03126811461980CC
:101D1C000233120C1A70F86801F00CFE3BE0002341
:101D2C0087F8273033E0002387F8263026E097F831
:101D3C00272097F826301344DBB203F00103002B65
:101D4C0006D100233B7200237B720023BB7208E098
:101D5C00234A07F108031268114619800233120C4A
:101D6C001A7097F8261097F82730BA68184601F0C1
:101D7C0065FD97F82630013387F8263097F8263022
:101D8C00072BD4D997F82730013387F8273097F8E9
:101D9C002730072BC7D901F097FD0A48FFF7DDF96B
:101DAC0041F2883001F010FF054B00221A7000E060
:101DBC0000BF2837BD4680BD040400201404002059
:101DCC000C04002044030020E0030020307A0008BB
:101DDC00347A0008447A00083C7A0008230000207A
:101DEC00207A000880B584B000AF0346FB710B4627
:101DFC00BB7113467B71BA79FB7911461846FFF714
:101E0C003DF80346FB73FB7B7A79B979F87901F0DD
:101E1C00AAFB7B79012B13D1FB79072B10D8BB794B
:101E2C00072B0DD800233B73FF237B730023BB735D
:101E3C00B979FB79FA68184601F000FD01F044FD10
:101E4C0000BF1037BD4680BD80B58CB000AF0346D7
:101E5C003960FB711346BB71FB79013B102B00F20F
:101E6C002C8201A252F823F0E31F0008B91E0008CF
:101E7C002F1F0008C7220008551F00085B1F000811
:101E8C00DD1F0008C7220008C7220008C72200086F
:101E9C006D1F00081F21000891210008C7220008AF
:101EAC001B220008BB22000851220008BB79082B1A
:101EBC0031D13B687B617B6919787B695A78AD4B72
:101ECC0093F84030AB4800F095FA0346002B1CD039
:101EDC007B6919787B695A78A64B93F84030A548F2
:101EEC0000F0C2FA0346FB74FB7C002B07D0FFF713
:101EFC00D1FBFB790021184601F04EFAE4E1FB79A5
:101F0C000221184601F048FADEE1FB79012118465E
:101F1C0001F042FAD8E1FB790321184601F03CFAB2
:101F2C00D2E1944800F004FA934B1B680133924AB7
:101F3C001360FFF7AFFBFB790021184601F02CFA78
:101F4C008C48FFF70AF9BFE101F034FBBCE189488A
:101F5C00FFF703F9FB790021184601F01DFAB3E1F4
:101F6C00BB79032B2ED93B681B78BB763B685B781F
:101F7C007B763B689B783B733B68DB787B73BB79E8
:101F8C00042B03D93B6804331B7800E00023BB739C
:101F9C00BB7E072B10D87B7E072B0DD8797EBB7EA2
:101FAC00FA68184601F04AFC01F08EFCFB7900211E
:101FBC00184601F0F1F987E1FB790221184601F08E
:101FCC00EBF981E1FB790121184601F0E5F97BE1A0
:101FDC0001F062FA78E1694B1B78002B05D0FB7994
:101FEC000421184601F0D8F96EE1BB79482B40F07A
:101FFC008A80002387F82F301AE097F82F30DB08FF
:10200C00BB7497F82F3003F007037B7497F82F30CD
:10201C003A68D118BA7C7B7C08785649D2000A44BD
:10202C00134402461A7097F82F30013387F82F307B
:10203C0097F82F303F2BE0D93B6840331A784D4B43
:10204C0083F840203B6893F841204A4B83F84120A9
:10205C003B6893F84220474B83F84220002387F8D3
:10206C002E303B6843331B78012B21D1414B93F825
:10207C004120404B93F842309A4204D93D4B012207
:10208C0083F8432010E03B4B93F84120394B93F8F5
:10209C0042309A4204D2374B022283F8432003E0A9
:1020AC00344B032283F84320012387F82E3003E0BE
:1020BC00304B002283F843203B6844331B781A468C
:1020CC003B6845331B781B021A433B6846331B782D
:1020DC001B041A433B6847331B781B061343254AE2
:1020EC00536497F82E30002B05D0254B01221A7023
:1020FC00FFF7D0FA01E0FFF7CDFAFB790021184683
:10210C0001F04AF9E0E0FB790121184601F044F9AD
:10211C00DAE0BB79082B26D13B68FB61FB691B78A5
:10212C0014491846FEF77AFA0346FB76FB7E002B21
:10213C000AD1FFF7AFFAFB790021184601F02CF910
:10214C000C48FFF70AF8BFE0FB7E022B05D1FB79A8
:10215C000121184601F020F9B6E0FB79022118465E
:10216C0001F01AF9B0E0FB790321184601F014F9DB
:10217C00AAE000BF44030020040400200C0400204B
:10218C000E040020BB79042B3BD13B683B623B6ABD
:10219C001A784F4B1A704E4B1B78022B10D1FDF74F
:1021AC00E9FF0346002B05D1FB790021184601F00D
:1021BC00F3F889E0FB790221184601F0EDF883E091
:1021CC00434B1B78012B0CD1FEF78EF80346002BEA
:1021DC0001D0FDF7FBFFFB790021184601F0DCF87C
:1021EC0072E03B4B1B78032B05D1FB790121184680
:1021FC0001F0D2F868E0FB790321184601F0CCF825
:10220C0062E0FB790421184601F0C6F85CE0BB796A
:10221C00012B11D93B681B781BB21B021AB23B680D
:10222C0001331B781BB213431BB2BB84FB79002117
:10223C00184601F0B1F847E0FB790121184601F08E
:10224C00ABF841E0BB79022B2BD13B68BB62BB6A7C
:10225C005B78012B09D0BB6A5B78022B05D0FB792C
:10226C000121184601F098F82EE01A4B1B7887F8DC
:10227C002730BB6A1B78002B14BF01230023DAB272
:10228C00144B1A70BB6A5A78134B1A70FFF702FA88
:10229C00FB790021184601F07FF81048FEF75DFF2E
:1022AC0012E0FB790121184601F076F80CE0FB797D
:1022BC00FF21184601F070F806E0FB1D01221946BB
:1022CC00012001F081F800BF00BF3037BD4680BD52
:1022DC00230000200D0400202400002044030020D3
:1022EC0080B582B000AF7860786801F0C7F900BFA4
:1022FC000837BD4680BD80B400AF72B600BF00BFCA
:10230C00FDE7000080B500AF084B1B78002B01D017
:10231C00002308E024220021044804F03DFE034B76
:10232C0001221A700023184680BD00BF180400203B
:10233C0080B582B000AF78602D4B1B7883F0010321
:10234C00DBB2002B02D17B68002B01D101234AE0C8
:10235C009C220021786804F01FFE7B680122DA764B
:10236C007B68012283F824207B6802221A777B6821
:10237C00022283F823207B68012283F840207B68AB
:10238C00022283F841207B68022283F842207B687A
:10239C00002283F843207B6800225A647B68002269
:1023AC0083F8502001F006FC02467B685A657B6876
:1023BC00012283F899207B68FF2283F848207B68F0
:1023CC00FF2283F849207B68002283F84A207B682F
:1023DC00002283F84B207B685A6D7B68DA6478683E
:1023EC0000F0E5FB002318460837BD4680BD00BF52
:1023FC001804002080B582B000AF78600846114602
:10240C001A460346FB700B46BB7013467B707B6809
:10241C00002B0BD0FB78072B08D8BB78072B05D8E3
:10242C007B78012B04D07B78022B01D0002316E0A3
:10243C00FA78BB787968D2000A4413441B78002BD5
:10244C0001D000230BE07B78BA78F978786800F03B
:10245C00B3F90346002B14BF01230023DBB218464B
:10246C000837BD4680BD000090B589B004AF7860D8
:10247C00084611461A460346FB700B46BB701346C2
:10248C007B707B68002B10D07B6893F84330002B5B
:10249C000BD17B78BA78F9787868FFF7ABFF0346F5
:1024AC0083F00103DBB2002B01D0002390E000236A
:1024BC00FB73FA78BB787968D2000A4413447A78B3
:1024CC001A700023BB601DE0434ABB6812F913402D
:1024DC00414ABB685B00134493F90130B878F97832
:1024EC00012202927A780192009323460246786880
:1024FC0000F0A2FA03461A46FB7B1344FB73BB683D
:10250C000133BB60BB68072BDEDD7B68FA7883F890
:10251C0048207B68BA7883F849207B687A7883F8FE
:10252C004A207B68FA7B83F84B2001F043FB024680
:10253C007B68DA647B685B6C5A1C7B685A647B68CA
:10254C00002283F85020786800F013FB786800F0C4
:10255C002EFB224B1B78002B39D17B78012B01D120
:10256C00022200E001227B6883F840207B6893F80C
:10257C0040301946786800F0F1F8034683F0010307
:10258C00DBB2002B16D07B781946786800F0E6F8A1
:10259C00034683F00103DBB2002B03D0786800F014
:1025AC001CFB07E07B687A7883F840207B6801226B
:1025BC0083F850207B6893F841301A467B6893F877
:1025CC0042301344402B02D1786800F006FBFB7BB1
:1025DC0018461437BD4690BD907B00080D040020B2
:1025EC0090B589B004AF7860084611461A46034688
:1025FC00FB700B46BB7013467B707B68002B10D0B6
:10260C007B6893F84330002B0BD1FB78072B08D851
:10261C00BB78072B05D87B78012B04D07B78022B59
:10262C0001D0002352E00023FB73FA78BB78796861
:10263C00D2000A4413447A781A700023BB601DE060
:10264C00244ABB6812F91340224ABB685B0013444E
:10265C0093F90130B878F978012202927A780192D4
:10266C00009323460246786800F0E6F903461A46C2
:10267C00FB7B1344FB73BB680133BB60BB68072B4C
:10268C00DEDD7B68FA7883F848207B68BA7883F8BB
:10269C0049207B687A7883F84A207B68FA7B83F838
:1026AC004B2001F087FA02467B68DA647B685B6C2E
:1026BC005A1C7B685A647B68002283F85020786827
:1026CC0000F057FA786800F072FAFB7B1846143762
:1026DC00BD4690BD907B000880B483B000AF78609D
:1026EC000C4B1B78002B01D000230DE07B68002BDA
:1026FC0004D07B6893F84330002B01D0012300E019
:10270C00002303F00103DBB218460C37BD4680BC36
:10271C00704700BF0D04002080B483B000AF786018
:10272C007B68002B04D07B6893F84330002B01D1DD
:10273C0000230EE07B6893F84330012B01D1012379
:10274C0007E07B6893F84330022B01D1022300E0B1
:10275C00002318460C37BD4680BC704780B584B04A
:10276C0000AF78600B46FB707B68002B01D1002317
:10277C001DE00023FB7316E00023BB730DE0FB7818
:10278C00BA7BF97B7868FFF735FE0346002B01D046
:10279C0001230CE0BB7B0133BB73BB7B072BEED956
:1027AC00FB7B0133FB73FB7B072BE5D9002318461E
:1027BC001037BD4680BD000090B589B004AF78607D
:1027CC00084611461A460346FB700B46BB7013466F
:1027DC007B707B68002B14D0FB78072B11D8BB784F
:1027EC00072B0ED8FA78BB787968D2000A441344C8
:1027FC001B78002B05D17B78012B04D07B78022B26
:10280C0001D0002326E00023FB730023BB601DE0F6
:10281C00124ABB6812F91340104ABB685B001344A0
:10282C0093F90130B878F978002202927A78019203
:10283C00009323460246786800F0FEF803461A46D9
:10284C00FB7B1344FB73BB680133BB60BB68072B7A
:10285C00DEDDFB7B18461437BD4690BD907B00082F
:10286C0080B485B000AF78600B46FB707B68002BA2
:10287C0001D1002321E00023FB730023BB7318E07C
:10288C0000237B730FE0BA7B7B7B7968D2000A4410
:10289C0013441B78FA789A4202D1FB7B0133FB7309
:1028AC007B7B01337B737B7B072BECD9BB7B0133AD
:1028BC00BB73BB7B072BE3D9FB7B18461437BD4698
:1028CC0080BC704780B483B000AF78600B46FB705F
:1028DC001346BB707B68002B05D0FB78072B02D806
:1028EC00BB78072B01D9002306E0FA78BB7879680E
:1028FC00D2000A4413441B7818460C37BD4680BCE2
:10290C00704780B584B000AF78607B68002B01D134
:10291C0001230BE07B6893F89930FB737868FFF721
:10292C0007FD7B68FA7B83F8992000231846103743
:10293C00BD4680BD80B584B000AF786039607B68DF
:10294C00002B02D03B68002B01D1012356E07B68A1
:10295C001B685A1C7B681A607B681A693B685B6C45
:10296C001A447B681A613B6893F84330032B12D0EE
:10297C00032B16DC012B02D0022B06D011E07B6856
:10298C005B685A1C7B685A600CE07B689B685A1C1D
:10299C007B689A6006E07B68DB685A1C7B68DA60AF
:1029AC0000E000BF7B681B68012B08D13B685A6CA8
:1029BC007B685A613B685A6C7B689A6113E03B6890
:1029CC005A6C7B685B699A4203D93B685A6C7B688A
:1029DC005A613B685A6C7B689B699A4203D23B688C
:1029EC005A6C7B689A61386800F00CF8F8607B6868
:1029FC00DA69FB681A447B68DA61002318461037E1
:102A0C00BD4680BD80B584B000AF78607B68002B7C
:102A1C0001D100230AE001F0CDF8F8607B685B6D12
:102A2C00FA68D31A034AA2FB03239B0918461037F2
:102A3C00BD4680BDD34D621080B485B000AF7860C8
:102A4C00084611461A460346FB700B46BB701346EC
:102A5C007B703B7F012B01D1022300E00123FB7231
:102A6C000023FB737A78FB781344DBB2BB733A7E9A
:102A7C00BB781344DBB27B730CE0FB7B0133FB7341
:102A8C00BA7B7B781344DBB2BB737A7B3B7E1344FB
:102A9C00DBB27B7397F90E30002B17DB97F90E30F6
:102AAC00072B13DC97F90D30002B0FDB97F90D304A
:102ABC00072B0BDC97F90E2097F90D307968D200B3
:102ACC000A4413441B78FA7A9A42D6D0FB7B002B2B
:102ADC0049D097F90E30002B45DB97F90E30072BB8
:102AEC0041DC97F90D30002B3DDB97F90D30072BAE
:102AFC0039DC97F90E2097F90D307968D2000A4429
:102B0C0013441B783A7F9A422DD197F82030002B32
:102B1C0027D07A78FB781344DBB2BB733A7EBB7850
:102B2C001344DBB27B7300233B7316E097F90E2042
:102B3C0097F90D307968D2000A4413443A7F1A7021
:102B4C00BA7B7B781344DBB2BB737A7B3B7E13443A
:102B5C00DBB27B733B7B01333B733A7BFB7B9A424F
:102B6C00E4D3FB7B00E0002318461437BD4680BC41
:102B7C00704780B582B000AF78607B68002B12D0B4
:102B8C0001217868FFF76CFE03461A467B6883F8D0
:102B9C00412002217868FFF763FE03461A467B68E2
:102BAC0083F8422000E000BF0837BD4680BD80B5E9
:102BBC0082B000AF78607B68002B0AD07B68002263
:102BCC0083F898207B68583340220021184604F083
:102BDC00E3F900BF0837BD4680BD80B483B000AFB9
:102BEC0078607B68002B1ED07B6893F841207B6853
:102BFC0093F842309A4204D97B68012283F843202F
:102C0C0012E07B6893F842207B6893F841309A423B
:102C1C0004D97B68022283F8432005E07B680322F9
:102C2C0083F8432000E000BF0C37BD4680BC7047E2
:102C3C0080B485B000AF154B9B69144A43F0010377
:102C4C009361124B9B6903F00103BB60BB680F4B94
:102C5C00DB690E4A43F08053D3610C4BDB6903F004
:102C6C0080537B607B680A4B5B68FB60FB6823F0DE
:102C7C00E063FB60FB6843F00073FB60044AFB6895
:102C8C00536000BF1437BD4680BC70470010024033
:102C9C000000014080B584B000AF78607B681B6891
:102CAC00B3F1804F3BD1204BDB691F4A43F001034A
:102CBC00D3611D4BDB6903F00103FB60FB681B4B0D
:102CCC001B4A1A60194B10225A60184B00229A604A
:102CDC00164B8022DA60154B4FF480721A61134B3D
:102CEC004FF480625A61114B00229A610F4B002203
:102CFC00DA610E4801F09AF80346002B01D0FFF779
:102D0C00FAFA7B68094A5A62084A7B6853620022C5
:102D1C0002211C2001F053F81C2001F06CF800BFBC
:102D2C001037BD4680BD00BF00100240B802002025
:102D3C005800024080B588B000AF786007F11003EE
:102D4C0000221A605A609A60DA607B681B68B3F1E3
:102D5C00804F17D10D4B9B690C4A43F004039361D0
:102D6C000A4B9B6903F00403FB60FB6801233B6186
:102D7C0002237B610323FB6107F11003194604480E
:102D8C0001F0F6FA00BF2037BD4680BD00100240AE
:102D9C000008014080B588B000AF786007F11003DF
:102DAC0000221A605A609A60DA607B681B68204ABD
:102DBC00934239D11F4B9B691E4A43F48043936164
:102DCC001C4B9B6903F48043FB60FB68194B9B69AC
:102DDC00184A43F004039361164B9B6903F00403F8
:102DEC00BB60BB684FF400733B6102237B61032320
:102DFC00FB6107F1100319460F4801F0B9FA4FF4C3
:102E0C0080633B6100237B610023BB6107F11003EE
:102E1C001946094801F0ACFA00220121252000F0E6
:102E2C00CEFF252000F0E7FF00BF2037BD4680BD58
:102E3C0000380140001002400008014080B400AF8F
:102E4C0000BFFDE780B400AF00BFFDE780B400AF6A
:102E5C0000BFFDE780B400AF00BFFDE780B400AF5A
:102E6C0000BFFDE780B400AF00BFBD4680BC70471B
:102E7C0080B400AF00BFBD4680BC704780B400AFCB
:102E8C0000BFBD4680BC704780B500AF00F080FE2F
:102E9C0000BF80BD80B500AF024801F035F900BF1E
:102EAC0080BD00BFB802002080B500AF024802F020
:102EBC0033FB00BF80BD00BF7002002080B500AFA7
:102ECC00024803F0C9FA00BF80BD00BFFC0200201D
:102EDC0080B586B000AF7860144A154BD31A7B616D
:102EEC007B693B61134B1B68002B02D1114B124ABF
:102EFC001A60104B1A687B6813443A699A4207D2DD
:102F0C0004F052F803460C221A604FF0FF3309E02C
:102F1C00084B1B68FB60074B1A687B681344054A17
:102F2C001360FB6818461837BD4680BD0050002062
:102F3C00000400003C040020D815002080B400AF31
:102F4C0000BFBD4680BC704780B500AF124B93F8F4
:102F5C003433002B01D000231CE04FF44E720021BF
:102F6C000D4804F019F800F0A7FB01220B490C489E
:102F7C0003F04DFA0346002B01D001230AE000F0C8
:102F8C0019FE0346044AC2F83033034B012283F87E
:102F9C0034230023184680BD400400207507002010
:102FAC00FC02002080B5ADF5067D00AF07F5067379
:102FBC00A3F506731960114607F50673A3F21123E6
:102FCC0002461A7007F50673A3F212230A461A700A
:102FDC00744B93F8343383F00103DBB2002B01D034
:102FEC000123DAE00023A7F8163207F50673A3F5E0
:102FFC00847302221A7007F50673A3F5847307F520
:10300C000672A2F2112212785A7007F50673A3F514
:10301C00847307F50672A2F2122212789A7007F5E1
:10302C000673A3F506731B68002B16D007F5067301
:10303C00A3F212231B78002B0FD007F50673A3F213
:10304C001223197807F50673A3F5067307F5887232
:10305C00D01C0A46196803F0D3FF07F5887318468D
:10306C0000F040FB03461A4607F50673A3F584737C
:10307C0083F8032107F50673A3F58473032283F801
:10308C000421B7F816325A1CA7F816221A4607F56F
:10309C000673A3F58473197807F50673A3F5047307
:1030AC009954B7F816325A1CA7F816221A4607F587
:1030BC000673A3F58473597807F50673A3F50473A7
:1030CC009954B7F816325A1CA7F816221A4607F567
:1030DC000673A3F58473997807F50673A3F5047347
:1030EC00995407F50673A3F212231B78002B1AD000
:1030FC00B7F8163207F10802D01807F50673A3F2D9
:10310C0012231A7807F588730333194603F078FFF6
:10311C0007F50673A3F212231B789AB2B7F816328E
:10312C001344A7F81632B7F816325A1CA7F8162211
:10313C001A4607F50673A3F5847393F8031107F584
:10314C000673A3F504739954B7F816325A1CA7F8F2
:10315C0016221A4607F50673A3F5847393F8041127
:10316C0007F50673A3F504739954B7F8162207F103
:10317C0008031146184600F0D7FA034687F81532B3
:10318C0097F81532002B06D1064BD3F81C330133BC
:10319C00044AC2F81C3397F81532184607F506771F
:1031AC00BD4680BD4004002080B586B000AF03460C
:1031BC00FB716B4B93F8343383F00103DBB2002BC0
:1031CC0001D00123C8E0664B7B6100F0F3FC386151
:1031DC007B6993F80531002B10D07B69D3F808314B
:1031EC003A69D31AB3F57A7F08D900F065FA5C4BCB
:1031FC00D3F8283301335A4AC2F828337B6993F841
:10320C000531052B00F2A18001A252F823F000BF7A
:10321C003532000855320008653200088D3200083E
:10322C00E1320008F3320008FB79022B40F0908069
:10323C007B69FA791A707B69012283F805217B6915
:10324C003A69C3F8082183E07B69FA795A707B6983
:10325C00022283F805217EE07B69FA799A707B69FA
:10326C00002283F80621FB79002B04D07B69032212
:10327C0083F805216FE07B69042283F805216AE05D
:10328C007B6993F806217B699B789A4218D27B69FB
:10329C0093F806315A1CD1B27A6982F806111A4693
:1032AC007B691344FA79DA707B6993F806217B69A0
:1032BC009B789A424ED37B69042283F8052149E01E
:1032CC0000F0FAF9264BD3F82C330133244AC2F818
:1032DC002C333FE07B69FA7983F803217B69052263
:1032EC0083F8052137E0FB79032B2BD17B69FA7925
:1032FC0083F804217B69062283F805217B69184633
:10330C0000F0F0F90346FB737B6993F80331FA7B09
:10331C009A420DD17B69012283F80C21104BD3F812
:10332C00203301330E4AC2F8203300F021FA12E0A8
:10333C000B4BD3F824330133094AC2F8243300F081
:10334C00BBF908E000F0B8F905E000F0B5F902E0CF
:10335C0000BF00E000BF002318461837BD4680BDF3
:10336C004004002080B483B000AF7860094B93F820
:10337C00343383F00103DBB2002B01D0012304E0D2
:10338C00044A7B68C2F81833002318460C37BD4634
:10339C0080BC70474004002080B584B000AF034669
:1033AC000A46FB711346BB71FB793B73BB797B738C
:1033BC0007F10C03022219460820FFF7F3FD034620
:1033CC0018461037BD4680BD80B5C2B000AF07F5BA
:1033DC008473A3F584731960114607F58473A3F203
:1033EC00011302461A7007F58473A3F581730A461C
:1033FC001A7007F58473A3F5807307F58472A2F233
:10340C00011212781A7007F58473A3F584731B6884
:10341C00002B29D007F58473A3F581731B78002B3F
:10342C0022D007F58473A3F581731B78FF2B1BD077
:10343C0007F58473A3F58173197807F58473A3F5E5
:10344C00847307F10802501C0A46196803F0D8FD72
:10345C0007F58473A3F5817307F58472A2F5817265
:10346C00127801321A7005E007F58473A3F58173A5
:10347C0001221A7007F58473A3F581731A7807F18A
:10348C0008031946FF20FFF78DFD0346184607F584
:10349C008477BD4680BD000080B582B000AF00F0DF
:1034AC0089FB0346074AA2FB03239B097B603B1D58
:1034BC00042219460720FFF775FD03461846083706
:1034CC00BD4680BDD34D621080B582B000AF1B4BA2
:1034DC0093F8343383F00103DBB2002B2AD100F0D4
:1034EC0069FB7860154BD3F830337A68D31A41F204
:1034FC008732934205D9FFF7CFFF104A7B68C2F899
:10350C0030330E4B3B603B6893F80531002B12D0E7
:10351C003B68D3F808317A68D31AB3F57A7F0AD9A5
:10352C0000F0CAF8054BD3F828330133034AC2F82C
:10353C00283300E000BF0837BD4680BD40040020A2
:10354C0080B582B000AF78607B68002B01D101237D
:10355C0005E0482279680120FFF724FD0346184650
:10356C000837BD4680BD90B585B000AF044608460F
:10357C0011461A462346FB710346BB710B467B7101
:10358C0013463B71FB793B72BB797B727B79BB72C7
:10359C003B79FB7200F00EFB0346FB6007F108035E
:1035AC00082219460A20FFF7FDFC0346184614377B
:1035BC00BD4690BD80B586B000AF00F0FBFA034667
:1035CC000E4AA2FB03239B097B600D4BBB6000F0F2
:1035DC00E9F80346FB6000F0EDF803463B74C823A2
:1035EC007B821E23BB823B1D142219460520FFF74C
:1035FC00D9FC034618461837BD4680BDD34D621022
:10360C000100000180B584B000AF78607B68002BAE
:10361C0001D101230BE07868FCF792FD0346FB73A4
:10362C00FB7B1A4679680920FFF7BCFC0346184659
:10363C001037BD4680BD90B585B000AF0446084636
:10364C0011461A462346FB710346BB710B46BB80E1
:10365C001346FB70FB793B72BB797B72BB887B8119
:10366C00FB783B7307F10803062219460E20FFF77F
:10367C0099FC034618461437BD4690BD80B582B000
:10368C0000AF78607B68094A93420AD1084B93F8E3
:10369C0035331846FFF788FD01220649034802F02E
:1036AC00B6FE00BF0837BD4680BD00BFFC0200203F
:1036BC00400400207507002080B582B000AF084B95
:1036CC007B604FF488720021786803F065FC7B689E
:1036DC00002283F8052100BF0837BD4680BD00BF1E
:1036EC004004002080B485B000AF78607B685A78C5
:1036FC007B689B785340FB730023BB7309E0BB7B57
:10370C007A681344DA78FB7B5340FB73BB7B013341
:10371C00BB737B689B78BA7B9A42F0D3FB7B1846D1
:10372C001437BD4680BC704780B584B000AF78605C
:10373C000B467B807B68002B02D07B88002B01D151
:10374C0001230EE07A884FF47A737968074802F007
:10375C00D3FD0346FB73FB7B002B14BF012300231B
:10376C00DBB218461037BD4680BD00BFFC020020FE
:10377C0080B582B000AF0A4BD3F81833002B0BD0B6
:10378C00074B7B60064BD3F818337A6850787A680D
:10379C00D11C7A689278984700BF0837BD4680BD27
:1037AC004004002080B400AF4FF480631846BD463F
:1037BC0080BC704780B400AF19231846BD4680BC4E
:1037CC007047000080B582B000AF184B1B68B3F196
:1037DC00804F01D0012324E04FF4456200211448AE
:1037EC0003F0DAFBC0220021124803F0D5FB4FF4A2
:1037FC00C063FB8007E0FB880D4A002122F8131000
:10380C00FB880133FB80FB88B3F5C56FF3D30A4B00
:10381C00FF221A70084B00225A70074B01229A7033
:10382C00002318460837BD4680BD00BF700200203B
:10383C0078070020C81300202C00002080B485B02D
:10384C0000AF03463A60FB710B46BB71124B9B7881
:10385C00002B01D101231AE0FB79072B02D8BB798D
:10386C00072B01D9012312E0FB79DB00DAB2BB791B
:10387C001344FB73FA7B094913465B0013440B4456
:10388C001A463B4619889B78118093700023184682
:10389C001437BD4680BC70472C000020C813002094
:1038AC0080B500AF064B9B78002B01D1012305E0BE
:1038BC00C0220021034803F06FFB0023184680BD93
:1038CC002C000020C813002080B500AF114B9B7852
:1038DC00002B01D101231AE00E4B5B78002B01D099
:1038EC00022314E000F06AF80A4B01225A704FF4DC
:1038FC00C563094A0021094801F0A6FB0346002BC9
:10390C0004D0044B00225A70012300E00023184617
:10391C0080BD00BF2C000020780700207002002022
:10392C0080B400AF024B5B781846BD4680BC704734
:10393C002C00002080B485B000AF7860104B9B78D1
:10394C00002B01D1012315E00023FB730EE0FA7B61
:10395C000C4913465B0013440B441A463B1D198853
:10396C009B7811809370FB7B0133FB73FB7B3F2BAC
:10397C00EDD9002318461437BD4680BC704700BFF4
:10398C002C000020C813002080B582B000AF7860F6
:10399C007B681B68064A934206D10021054801F05A
:1039AC00F5FC054B00225A7000BF0837BD4680BDA0
:1039BC0058000240700200202C00002080B485B01A
:1039CC0000AF0023FB8100237B7366E07A7B3749D1
:1039DC0013465B0013440B441B781A46344B1B787C
:1039EC0002FB03F31B12BB727A7B304913465B005C
:1039FC0013440B4401331B781A462D4B1B7802FBE6
:103A0C0003F31B127B727A7B284913465B00134429
:103A1C000B4402331B781A46254B1B7802FB03F32D
:103A2C001B123B727B7A3B71BB7A7B713B7ABB710D
:103A3C0000233B732BE00723FB7221E03B7B10330D
:103A4C003B4413F80C3C1A4697F90B3042FA03F33B
:103A5C0003F00103002B05D0FB89164A3A2122F80A
:103A6C00131004E0FB89134A1D2122F81310FB8963
:103A7C000133FB8197F90B30DBB2013BDBB2FB72FC
:103A8C0097F90B30002BD9DA3B7B01333B733B7B33
:103A9C00022BD0D97B7B01337B737B7B3F2B95D95E
:103AAC0000BF00BF1437BD4680BC7047C813002050
:103ABC002C00002078070020FFF740FA0B480C4937
:103ACC000C4A002302E0D458C4500433C4188C426E
:103ADC00F9D3094A094C002301E013600432A242D5
:103AEC00FBD303F067FAFDF74DFB70470000002095
:103AFC0088000020107D000888000020D4150020CC
:103B0C00FEE7000080B500AF084B1B68074A43F086
:103B1C0010031360032000F047F90F2000F008F8A1
:103B2C00FFF786F80023184680BD00BF0020024036
:103B3C0080B582B000AF7860124B1A68124B1B78BC
:103B4C0019464FF47A73B3FBF1F3B2FBF3F3184657
:103B5C0000F05FF90346002B01D001230EE07B68D7
:103B6C000F2B0AD8002279684FF0FF3000F027F9AC
:103B7C00064A7B681360002300E0012318460837CF
:103B8C00BD4680BD280000203400002030000020FD
:103B9C0080B400AF054B1B781A46054B1B681344C9
:103BAC00034A136000BFBD4680BC70473400002040
:103BBC008814002080B400AF024B1B681846BD4629
:103BCC0080BC70478814002080B584B000AF78604A
:103BDC00FFF7F0FFB8607B68FB60FB68B3F1FF3F59
:103BEC0005D00A4B1B781A46FB681344FB6000BFD8
:103BFC00FFF7E0FF0246BB68D31AFA689A42F7D87F
:103C0C0000BF00BF1037BD4680BD00BF3400002090
:103C1C0080B485B000AF78607B6803F00703FB606D
:103C2C000C4BDB68BB60BA684FF6FF031340BB60FC
:103C3C00FB681A02BB68134343F0BF6343F40033C1
:103C4C00BB60044ABB68D36000BF1437BD4680BC60
:103C5C00704700BF00ED00E080B400AF044BDB68A0
:103C6C001B0A03F007031846BD4680BC704700BF13
:103C7C0000ED00E080B483B000AF0346FB7197F910
:103C8C000730002B0BDBFB7903F01F02064997F979
:103C9C0007305B09012000FA02F241F8232000BF33
:103CAC000C37BD4680BC704700E100E080B483B0A7
:103CBC0000AF03463960FB7197F90730002B0ADB24
:103CCC003B68DAB20C4997F907301201D2B20B44B7
:103CDC0083F800230AE03B68DAB20849FB7903F069
:103CEC000F03043B1201D2B20B441A7600BF0C37FF
:103CFC00BD4680BC704700BF00E100E000ED00E075
:103D0C0080B489B000AFF860B9607A60FB6803F0EA
:103D1C000703FB61FB69C3F10703042B28BF0423D2
:103D2C00BB61FB690433062B02D9FB69033B00E042
:103D3C0000237B614FF0FF32BB6902FA03F3DA43D5
:103D4C00BB681A407B699A404FF0FF317B6901FADE
:103D5C0003F3D9437B680B40134318462437BD4605
:103D6C0080BC704780B582B000AF78607B68013B47
:103D7C00B3F1807F01D301230FE00A4A7B68013B3A
:103D8C0053600F214FF0FF30FFF790FF054B0022DF
:103D9C009A60044B07221A60002318460837BD4668
:103DAC0080BD00BF10E000E080B582B000AF78604D
:103DBC007868FFF72DFF00BF0837BD4680BD80B582
:103DCC0086B000AF0346B9607A60FB7300237B6159
:103DDC00FFF742FF78617A68B9687869FFF790FF5E
:103DEC00024697F90F3011461846FFF75FFF00BFE8
:103DFC001837BD4680BD80B582B000AF0346FB715D
:103E0C0097F907301846FFF735FF00BF0837BD4656
:103E1C0080BD80B582B000AF78607868FFF7A2FFF4
:103E2C00034618460837BD4680BD000080B485B0F7
:103E3C0000AF78600023FB607B68002B01D101236D
:103E4C0043E07B681B681A46224B1344224AA2FBB0
:103E5C0003231B099A007B681A647B681F4ADA6388
:103E6C007B68022283F821207B681B681B68FB603F
:103E7C00FB6823F47F5323F03003FB607B685A68A4
:103E8C007B689B681A437B68DB681A437B681B69F9
:103E9C001A437B685B691A437B689B691A437B688E
:103EAC00DB691343FA681343FB607B681B68FA6891
:103EBC001A607B6800229A637B68012283F82120B8
:103ECC007B68002283F82020002318461437BD4657
:103EDC0080BC7047F8FFFDBFCDCCCCCC00000240BD
:103EEC0080B586B000AFF860B9607A603B600023A3
:103EFC00FB75FB6893F82030012B01D102234BE0BA
:103F0C00FB68012283F82020FB6893F82130DBB298
:103F1C00012B3AD1FB68022283F82120FB68002296
:103F2C009A63FB681B681A68FB681B6822F0010225
:103F3C001A603B687A68B968F86800F0EBF9FB68BE
:103F4C00DB6A002B08D0FB681B681A68FB681B68CF
:103F5C0042F00E021A600FE0FB681B681A68FB68DF
:103F6C001B6822F004021A60FB681B681A68FB6865
:103F7C001B6842F00A021A60FB681B681A68FB682F
:103F8C001B6842F001021A6005E0FB68002283F80E
:103F9C0020200223FB75FB7D18461837BD4680BDDB
:103FAC0080B485B000AF78600023FB737B6893F816
:103FBC002130DBB2022B08D07B6804229A637B6829
:103FCC00002283F82020012320E07B681B681A68FC
:103FDC007B681B6822F00E021A607B681B681A68EB
:103FEC007B681B6822F001021A607B681A6C7B6884
:103FFC00DB6B012101FA02F25A607B68012283F823
:10400C0021207B68002283F82020FB7B1846143784
:10401C00BD4680BC7047000080B584B000AF7860AE
:10402C000023FB737B6893F82130DBB2022B05D0A5
:10403C007B6804229A630123FB7351E07B681B6845
:10404C001A687B681B6822F00E021A607B681B687A
:10405C001A687B681B6822F001021A607B681B6877
:10406C00224A934229D07B681B68214A934222D072
:10407C007B681B681F4A93421AD07B681B681E4AD8
:10408C00934212D07B681B681C4A93420AD07B680F
:10409C001B681B4A934202D14FF480130EE04FF081
:1040AC0080730BE04FF4803308E04FF4805305E04D
:1040BC004FF4807302E0102300E00123114A536097
:1040CC007B68012283F821207B68002283F8202062
:1040DC007B685B6B002B03D07B685B6B78689847C5
:1040EC00FB7B18461037BD4680BD00BF0800024060
:1040FC001C000240300002404400024058000240C4
:10410C006C0002400000024080B584B000AF7860C3
:10411C007B68DB6B1B68FB607B681B681B68BB6088
:10412C007B681B6C04229A40FB681340002B4FD019
:10413C00BB6803F00403002B4AD07B681B681B6828
:10414C0003F02003002B07D17B681B681A687B687F
:10415C001B6822F004021A607B681B68664A934253
:10416C0029D07B681B68654A934222D07B681B6808
:10417C00634A93421AD07B681B68624A934212D0FE
:10418C007B681B68604A93420AD07B681B685F4A55
:10419C00934202D14FF480030EE04FF080630BE0AA
:1041AC004FF4802308E04FF4804305E04FF4806324
:1041BC0002E0402300E00423554A53607B68DB6A2D
:1041CC00002B00F094807B68DB6A786898478EE05F
:1041DC007B681B6C02229A40FB681340002B56D064
:1041EC00BB6803F00203002B51D07B681B681B6873
:1041FC0003F02003002B0BD17B681B681A687B68CB
:10420C001B6822F00A021A607B68012283F82120C5
:10421C007B681B68384A934229D07B681B68374AF5
:10422C00934222D07B681B68354A93421AD07B6834
:10423C001B68344A934212D07B681B68324A934203
:10424C000AD07B681B68314A934202D14FF40013A9
:10425C000EE04FF000730BE04FF4003308E04FF426
:10426C00005305E04FF4007302E0202300E002232A
:10427C00274A53607B68002283F820207B689B6A66
:10428C00002B34D07B689B6A786898472FE07B685A
:10429C001B6C08229A40FB681340002B28D0BB688B
:1042AC0003F00803002B23D07B681B681A687B681B
:1042BC001B6822F00E021A607B681A6C7B68DB6B41
:1042CC00012101FA02F25A607B6801229A637B6831
:1042DC00012283F821207B68002283F820207B6850
:1042EC001B6B002B04D07B681B6B7868984700BF56
:1042FC0000BF1037BD4680BD080002401C000240C4
:10430C003000024044000240580002406C00024061
:10431C000000024080B485B000AFF860B9607A60EC
:10432C003B60FB681A6CFB68DB6B012101FA02F243
:10433C005A60FB681B683A685A60FB685B68102B14
:10434C0008D1FB681B687A689A60FB681B68BA68BE
:10435C00DA6007E0FB681B68BA689A60FB681B6848
:10436C007A68DA6000BF1437BD4680BC7047000025
:10437C0080B48BB000AF7860396000237B6200237F
:10438C003B6269E101227B6A02FA03F3FB613B6841
:10439C001B68FA691340BB61BA69FB699A4240F029
:1043AC0058813B685B689A4A93425ED0984A934224
:1043BC0075D8984A934258D0964A93426FD8964AE9
:1043CC00934252D0944A934269D8944A93424CD027
:1043DC00924A934263D8924A934246D0904A93426F
:1043EC005DD8122B2AD8122B59D801A252F823F0DF
:1043FC00774400085144000863440008A5440008B1
:10440C00AB440008AB440008AB440008AB440008C4
:10441C00AB440008AB440008AB440008AB440008B4
:10442C00AB440008AB440008AB440008AB440008A4
:10443C00AB440008594400086D440008794A934283
:10444C0013D02CE03B68DB683B6229E03B68DB68FF
:10445C0004333B6224E03B68DB6808333B621FE0BB
:10446C003B68DB680C333B621AE03B689B68002BB3
:10447C0002D104233B6213E03B689B68012B05D1FE
:10448C0008233B627B68FA691A6109E008233B62E6
:10449C007B68FA695A6103E000233B6200E000BFCD
:1044AC00BB69FF2B01D87B6801E07B6804337B611F
:1044BC00BB69FF2B02D87B6A9B0002E07B6A083B3E
:1044CC009B003B617B691A680F213B6901FA03F37E
:1044DC00DB431A40396A3B6901FA03F31A437B69DF
:1044EC001A603B685B6803F08053002B00F0B180CE
:1044FC004D4B9B694C4A43F0010393614A4B9B69BA
:10450C0003F00103BB60BB68484A7B6A9B0802331B
:10451C0052F82330FB607B6A03F003039B000F22ED
:10452C0002FA03F3DB43FA681340FB607B68404AF2
:10453C00934213D07B683F4A93420DD07B683E4A2E
:10454C00934207D07B683D4A934201D1032306E096
:10455C00042304E0022302E0012300E000237A6A32
:10456C0002F0030292009340FA681343FB602F4958
:10457C007B6A9B080233FA6841F823203B685B682E
:10458C0003F48013002B06D02D4B9A682C49BB6981
:10459C0013438B6006E02A4B9A68BB69DB432849BE
:1045AC0013408B603B685B6803F40013002B06D050
:1045BC00234BDA682249BB691343CB6006E0204BDE
:1045CC00DA68BB69DB431E491340CB603B685B6810
:1045DC0003F40033002B06D0194B5A681849BB69F9
:1045EC0013434B6006E0164B5A68BB69DB43144916
:1045FC0013404B603B685B6803F48033002B21D085
:10460C000F4B1A680E49BB6913430B6021E000BFC6
:10461C0000003210000031100000221000002110A8
:10462C0000001210000011100010024000000140A8
:10463C0000080140000C0140001001400014014032
:10464C00000401400B4B1A68BB69DB43094913405A
:10465C000B607B6A01337B623B681A687B6A22FAC7
:10466C0003F3002B7FF48EAE00BF00BF2C37BD468A
:10467C0080BC70470004014080B485B000AF786006
:10468C000B467B807B689A687B881340002B02D09A
:10469C000123FB7301E00023FB73FB7B18461437EB
:1046AC00BD4680BC704780B483B000AF78600B46C9
:1046BC007B8013467B707B78002B03D07A887B68D9
:1046CC001A6103E07B881A047B681A6100BF0C37FF
:1046DC00BD4680BC7047000080B586B000AF7860E6
:1046EC007B68002B01D1012372E27B681B6803F00D
:1046FC000103002B00F08780924B5B6803F00C03E6
:10470C00042B0CD08F4B5B6803F00C03082B12D1DD
:10471C008C4B5B6803F48033B3F5803F0BD1894B32
:10472C001B6803F40033002B6CD07B685B68002B98
:10473C0068D101234CE27B685B68B3F5803F06D1FE
:10474C00804B1B687F4A43F4803313602EE07B68F8
:10475C005B68002B0CD17B4B1B687A4A23F48033AB
:10476C001360784B1B68774A23F4802313601DE099
:10477C007B685B68B3F5A02F0CD1724B1B68714A38
:10478C0043F4802313606F4B1B686E4A43F48033F1
:10479C0013600BE06B4B1B686A4A23F48033136085
:1047AC00684B1B68674A23F4802313607B685B6843
:1047BC00002B13D0FFF7FEF9386108E0FFF7FAF988
:1047CC0002463B69D31A642B01D9032300E25D4BEB
:1047DC001B6803F40033002BF0D014E0FFF7EAF968
:1047EC00386108E0FFF7E6F902463B69D31A642BFF
:1047FC0001D90323ECE1534B1B6803F40033002B6A
:10480C00F0D100E000BF7B681B6803F00203002BB3
:10481C0063D04C4B5B6803F00C03002B0BD0494B63
:10482C005B6803F00C03082B1CD1464B5B6803F44C
:10483C008033002B16D1434B1B6803F00203002B73
:10484C0005D07B681B69012B01D00123C0E13D4BD6
:10485C001B6823F0F8027B685B69DB003949134362
:10486C000B603AE07B681B69002B20D0364B012291
:10487C001A60FFF79FF9386108E0FFF79BF90246D1
:10488C003B69D31A022B01D90323A1E12D4B1B68E1
:10489C0003F00203002BF0D02A4B1B6823F0F80224
:1048AC007B685B69DB00274913430B6015E0264BE3
:1048BC0000221A60FFF77EF9386108E0FFF77AF9F9
:1048CC0002463B69D31A022B01D9032380E11D4B0D
:1048DC001B6803F00203002BF0D17B681B6803F00C
:1048EC000803002B3AD07B689B69002B19D0174B1F
:1048FC0001221A60FFF75EF9386108E0FFF75AF9F8
:10490C0002463B69D31A022B01D9032360E10D4BFC
:10491C005B6A03F00203002BF0D0012000F0CEFA0A
:10492C001CE00A4B00221A60FFF744F938610FE0D3
:10493C00FFF740F902463B69D31A022B08D903232F
:10494C0046E100BF00100240000042428004424297
:10495C00924B5B6A03F00203002BE9D17B681B6866
:10496C0003F00403002B00F0A6800023FB758B4B97
:10497C00DB6903F08053002B0DD1884BDB69874A30
:10498C0043F08053D361854BDB6903F08053BB60EC
:10499C00BB680123FB75824B1B6803F48073002BEF
:1049AC0018D17F4B1B687E4A43F480731360FFF76A
:1049BC0001F9386108E0FFF7FDF802463B69D31AAC
:1049CC00642B01D9032303E1754B1B6803F480733B
:1049DC00002BF0D07B68DB68012B06D16F4B1B6A78
:1049EC006E4A43F0010313622DE07B68DB68002BF9
:1049FC000CD16A4B1B6A694A23F001031362674BA3
:104A0C001B6A664A23F0040313621CE07B68DB68B4
:104A1C00052B0CD1614B1B6A604A43F004031362F3
:104A2C005E4B1B6A5D4A43F0010313620BE05B4B68
:104A3C001B6A5A4A23F001031362584B1B6A574AEC
:104A4C0023F0040313627B68DB68002B15D0FFF79F
:104A5C00B1F838610AE0FFF7ADF802463B69D31AAA
:104A6C0041F28832934201D90323B1E04B4B1B6ACC
:104A7C0003F00203002BEED014E0FFF79BF8386133
:104A8C000AE0FFF797F802463B69D31A41F28832E5
:104A9C00934201D903239BE0404B1B6A03F00203B2
:104AAC00002BEED1FB7D012B05D13C4BDB693B4A46
:104ABC0023F08053D3617B68DB69002B00F0878087
:104ACC00364B5B6803F00C03082B61D07B68DB6909
:104ADC00022B46D1334B00221A60FFF76BF838617A
:104AEC0008E0FFF767F802463B69D31A022B01D99D
:104AFC0003236DE0294B1B6803F00073002BF0D1EE
:104B0C007B681B6AB3F5803F08D1244B5B6823F4A8
:104B1C0000327B689B68214913434B601F4B5B68D9
:104B2C0023F474127B68196A7B685B6A0B431B491C
:104B3C0013434B601B4B01221A60FFF73BF83861A3
:104B4C0008E0FFF737F802463B69D31A022B01D96C
:104B5C0003233DE0114B1B6803F00073002BF0D0D6
:104B6C0035E0104B00221A60FFF724F8386108E09A
:104B7C00FFF720F802463B69D31A022B01D9032315
:104B8C0026E0064B1B6803F00073002BF0D11EE0EF
:104B9C007B68DB69012B07D1012319E0001002406F
:104BAC0000700040600042420B4B5B68FB60FB688E
:104BBC0003F480327B681B6A9A4206D1FB6803F4CB
:104BCC0070127B685B6A9A4201D0012300E00023DB
:104BDC0018461837BD4680BD0010024080B584B021
:104BEC0000AF786039607B68002B01D10123D0E0E5
:104BFC006A4B1B6803F007033A689A4210D9674B5B
:104C0C001B6823F0070265493B6813430B60634B39
:104C1C001B6803F007033A689A4201D00123B8E0FD
:104C2C007B681B6803F00203002B20D07B681B6899
:104C3C0003F00403002B05D0594B5B68584A43F42E
:104C4C00E06353607B681B6803F00803002B05D0FE
:104C5C00534B5B68524A43F460535360504B5B6850
:104C6C0023F0F0027B689B684D4913434B607B68D3
:104C7C001B6803F00103002B40D07B685B68012BA1
:104C8C0007D1474B1B6803F40033002B15D10123CC
:104C9C007FE07B685B68022B07D1414B1B6803F0FC
:104CAC000073002B09D1012373E03D4B1B6803F00B
:104CBC000203002B01D101236BE0394B5B6823F01D
:104CCC0003027B685B68364913434B60FEF772FF47
:104CDC00F8600AE0FEF76EFF0246FB68D31A41F259
:104CEC008832934201D9032353E02D4B5B6803F0C8
:104CFC000C027B685B689B009A42EBD1274B1B68CC
:104D0C0003F007033A689A4210D2244B1B6823F035
:104D1C00070222493B6813430B60204B1B6803F0CE
:104D2C0007033A689A4201D0012332E07B681B6882
:104D3C0003F00403002B08D0194B5B6823F4E062EA
:104D4C007B68DB68164913434B607B681B6803F078
:104D5C000803002B09D0124B5B6823F460527B686C
:104D6C001B69DB000E4913434B6000F021F802462F
:104D7C000B4B5B681B0903F00F030A49CB5C22FA4F
:104D8C0003F3094A1360094B1B681846FEF7D0FE63
:104D9C00002318461037BD4680BD00BF00200240DE
:104DAC0000100240A07B00082800002030000020EA
:104DBC0080B487B000AF0023FB600023BB600023EE
:104DCC007B6100237B6000233B611E4B5B68FB60B7
:104DDC00FB6803F00C03042B02D0082B03D027E054
:104DEC00194B3B6127E0FB689B0C03F00F03174A40
:104DFC00D35C7B60FB6803F48033002B10D0114B29
:104E0C005B685B0C03F00103114AD35CBB607B68ED
:104E1C000D4A03FB02F2BB68B2FBF3F37B6104E0C7
:104E2C007B680C4A02FB03F37B617B693B6102E00C
:104E3C00054B3B6100BF3B6918461C37BD4680BC27
:104E4C00704700BF0010024000127A00B87B0008C7
:104E5C00C87B000800093D0080B400AF024B1B6802
:104E6C001846BD4680BC70472800002080B500AFB6
:104E7C00FFF7F2FF0246054B5B681B0A03F00703C2
:104E8C000349CB5C22FA03F3184680BD00100240A4
:104E9C00B07B000880B500AFFFF7DEFF0246054B84
:104EAC005B68DB0A03F007030349CB5C22FA03F3CC
:104EBC00184680BD00100240B07B000880B485B05D
:104ECC0000AF78600A4B1B680A4AA2FB03235B0AFB
:104EDC007A6802FB03F3FB6000BFFB685A1EFA60A2
:104EEC00002BF9D100BF00BF1437BD4680BC704702
:104EFC0028000020D34D621080B582B000AF7860DE
:104F0C007B68002B01D1012341E07B6893F83D3095
:104F1C00DBB2002B06D17B68002283F83C2078683A
:104F2C00FDF7B8FE7B68022283F83D207B681A6887
:104F3C007B6804331946104600F06EFE7B68012234
:104F4C0083F846207B68012283F83E207B6801228F
:104F5C0083F83F207B68012283F840207B68012284
:104F6C0083F841207B68012283F842207B68012270
:104F7C0083F843207B68012283F844207B6801225C
:104F8C0083F845207B68012283F83D2000231846D6
:104F9C000837BD4680BD80B582B000AF78607B68B5
:104FAC00002B01D1012341E07B6893F83D30DBB24B
:104FBC00002B06D17B68002283F83C20786800F037
:104FCC0039F87B68022283F83D207B681A687B687D
:104FDC0004331946104600F01FFE7B68012283F84B
:104FEC0046207B68012283F83E207B68012283F8EF
:104FFC003F207B68012283F840207B68012283F8E4
:10500C0041207B68012283F842207B68012283F8CF
:10501C0043207B68012283F844207B68012283F8BB
:10502C0045207B68012283F83D2000231846083771
:10503C00BD4680BD80B483B000AF786000BF0C3734
:10504C00BD4680BC7047000080B586B000AFF860EC
:10505C00B9607A607B800023FB75BB68002B09D19B
:10506C00FB6893F83E30DBB2022B0CBF012300230C
:10507C00DBB222E0BB68042B09D1FB6893F83F300C
:10508C00DBB2022B0CBF01230023DBB215E0BB68A3
:10509C00082B09D1FB6893F84030DBB2022B0CBF14
:1050AC0001230023DBB208E0FB6893F84130DBB24C
:1050BC00022B0CBF01230023DBB2002B01D00223F7
:1050CC0053E1BB68002B09D1FB6893F83E30DBB28F
:1050DC00012B0CBF01230023DBB222E0BB68042BA5
:1050EC0009D1FB6893F83F30DBB2012B0CBF0123D5
:1050FC000023DBB215E0BB68082B09D1FB6893F8E1
:10510C004030DBB2012B0CBF01230023DBB208E0E3
:10511C00FB6893F84130DBB2012B0CBF0123002359
:10512C00DBB2002B24D07B68002B02D07B88002BB9
:10513C0001D1012319E1BB68002B04D1FB680222C9
:10514C0083F83E2016E0BB68042B04D1FB680222D6
:10515C0083F83F200EE0BB68082B04D1FB680222C9
:10516C0083F8402006E0FB68022283F8412001E02E
:10517C000123FAE0BB680C2B00F2AE8001A252F8BE
:10518C0023F000BFC5510008E5520008E5520008A5
:10519C00E55200080D520008E5520008E5520008DF
:1051AC00E552000855520008E5520008E552000887
:1051BC00E55200089D520008FB685B6A6D4A9A62D2
:1051CC00FB685B6A6C4ADA62FB685B6A6B4A1A635F
:1051DC00FB68586A7968FB681B6834331A467B880D
:1051EC00FEF77EFE0346002B01D00123BDE0FB68D9
:1051FC001B68DA68FB681B6842F40072DA606EE0C8
:10520C00FB689B6A5B4A9A62FB689B6A5A4ADA6241
:10521C00FB689B6A594A1A63FB68986A7968FB6851
:10522C001B6838331A467B88FEF75AFE0346002B60
:10523C0001D0012399E0FB681B68DA68FB681B68E6
:10524C0042F48062DA604AE0FB68DB6A494A9A629F
:10525C00FB68DB6A484ADA62FB68DB6A474A1A6316
:10526C00FB68D86A7968FB681B683C331A467B88F4
:10527C00FEF736FE0346002B01D0012375E0FB68D8
:10528C001B68DA68FB681B6842F40062DA6026E08F
:10529C00FB681B6B374A9A62FB681B6B364ADA62F7
:1052AC00FB681B6B354A1A63FB68186B7968FB68E3
:1052BC001B6840331A467B88FEF712FE0346002B10
:1052CC0001D0012351E0FB681B68DA68FB681B689E
:1052DC0042F48052DA6002E00123FB7500BFFB7DD3
:1052EC00002B41D1FB681B680122B968184600F0FD
:1052FC001FFFFB681B68224A934207D1FB681B689F
:10530C005A6CFB681B6842F400425A64FB681B68C9
:10531C001B4A93420ED0FB681B68B3F1804F09D037
:10532C00FB681B68174A934204D0FB681B68164A3B
:10533C00934211D1FB681B689B6803F007033B6128
:10534C003B69062B10D0FB681B681A68FB681B684E
:10535C0042F001021A6007E0FB681B681A68FB68E0
:10536C001B6842F001021A60FB7D18461837BD46D7
:10537C0080BD00BF155B0008BD5B0008835A0008A8
:10538C00002C0140000400400008004080B584B0AF
:10539C0000AF786039600023FB733B680C2B55D849
:1053AC0001A252F823F000BFE95300085954000839
:1053BC005954000859540008055400085954000861
:1053CC005954000859540008215400085954000835
:1053DC0059540008595400083D5400087B681B6858
:1053EC00DA687B681B6822F40072DA607B685B6A9F
:1053FC001846FEF711FE2CE07B681B68DA687B68A8
:10540C001B6822F48062DA607B689B6A1846FEF7A0
:10541C0003FE1EE07B681B68DA687B681B6822F45D
:10542C000062DA607B68DB6A1846FEF7F5FD10E077
:10543C007B681B68DA687B681B6822F48052DA6030
:10544C007B681B6B1846FEF7E7FD02E00123FB733C
:10545C0000BFFB7B002B57D17B681B68002239688F
:10546C00184600F065FE7B681B682A4A934217D1E8
:10547C007B681B681A6A41F211131340002B0FD181
:10548C007B681B681A6A40F244431340002B07D117
:10549C007B681B685A6C7B681B6822F400425A6458
:1054AC007B681B681A6A41F211131340002B0FD151
:1054BC007B681B681A6A40F244431340002B07D1E7
:1054CC007B681B681A687B681B6822F001021A60F3
:1054DC003B68002B04D17B68012283F83E2013E04B
:1054EC003B68042B04D17B68012283F83F200BE03E
:1054FC003B68082B04D17B68012283F8402003E031
:10550C007B68012283F84120FB7B18461037BD468F
:10551C0080BD00BF002C014080B584B000AF786026
:10552C007B681B68DB68FB607B681B681B69BB6066
:10553C00BB6803F00203002B20D0FB6803F00203CE
:10554C00002B1BD07B681B686FF002021A617B6812
:10555C0001221A777B681B689B6903F00303002BFD
:10556C0003D0786800F063FA05E0786800F056FA2A
:10557C007868FBF7E1FF7B6800221A77BB6803F0C1
:10558C000403002B20D0FB6803F00403002B1BD07A
:10559C007B681B686FF004021A617B6802221A7721
:1055AC007B681B689B6903F44073002B03D07868FD
:1055BC0000F03DFA05E0786800F030FA7868FBF707
:1055CC00BBFF7B6800221A77BB6803F00803002B33
:1055DC0020D0FB6803F00803002B1BD07B681B68F2
:1055EC006FF008021A617B6804221A777B681B68CB
:1055FC00DB6903F00303002B03D0786800F017FA83
:10560C0005E0786800F00AFA7868FBF795FF7B688C
:10561C0000221A77BB6803F01003002B20D0FB6824
:10562C0003F01003002B1BD07B681B686FF010027B
:10563C001A617B6808221A777B681B68DB6903F4A4
:10564C004073002B03D0786800F0F1F905E078681E
:10565C0000F0E4F97868FBF76FFF7B6800221A779B
:10566C00BB6803F00103002B0CD0FB6803F00103B3
:10567C00002B07D07B681B686FF001021A617868F9
:10568C0000F0C3F9BB6803F08003002B0CD0FB685F
:10569C0003F08003002B07D07B681B686FF080023F
:1056AC001A61786800F0CFFDBB6803F04003002B53
:1056BC000CD0FB6803F04003002B07D07B681B6801
:1056CC006FF040021A61786800F0C3F9BB6803F010
:1056DC002003002B0CD0FB6803F02003002B07D019
:1056EC007B681B686FF020021A61786800F0A2FDDD
:1056FC0000BF1037BD4680BD80B586B000AFF860E6
:10570C00B9607A600023FB75FB6893F83C30012B81
:10571C0001D10223AEE0FB68012283F83C207B68B8
:10572C000C2B00F29F8001A252F823F06D57000859
:10573C00715800087158000871580008AD570008DE
:10574C00715800087158000871580008EF5700088C
:10575C007158000871580008715800082F5800083B
:10576C00FB681B68B968184600F0C4FAFB681B6834
:10577C009A69FB681B6842F008029A61FB681B6817
:10578C009A69FB681B6822F004029A61FB681B682B
:10579C009969BB681A69FB681B680A439A6164E0E3
:1057AC00FB681B68B968184600F00AFBFB681B68AD
:1057BC009A69FB681B6842F400629A61FB681B687B
:1057CC009A69FB681B6822F480629A61FB681B680B
:1057DC009969BB681B691A02FB681B680A439A61CA
:1057EC0043E0FB681B68B968184600F053FBFB6884
:1057FC001B68DA69FB681B6842F00802DA61FB6817
:10580C001B68DA69FB681B6822F00402DA61FB682A
:10581C001B68D969BB681A69FB681B680A43DA61A3
:10582C0023E0FB681B68B968184600F09DFBFB6819
:10583C001B68DA69FB681B6842F40062DA61FB687A
:10584C001B68DA69FB681B6822F48062DA61FB680A
:10585C001B68D969BB681B691A02FB681B680A4381
:10586C00DA6102E00123FB7500BFFB68002283F8BC
:10587C003C20FB7D18461837BD4680BD80B584B0F2
:10588C0000AF786039600023FB737B6893F83C3081
:10589C00012B01D10223B4E07B68012283F83C2068
:1058AC007B68022283F83D207B681B689B68BB6089
:1058BC00BB6823F07703BB60BB6823F47F43BB60FA
:1058CC007B681B68BA689A603B681B68B3F5005F1D
:1058DC003ED0B3F5005F00F28780B3F5805F00F037
:1058EC008680B3F5805F7FD8702B1AD0702B7BD855
:1058FC00602B50D0602B77D8502B3CD0502B73D8CA
:10590C00402B58D0402B6FD8302B64D0302B6BD819
:10591C00202B60D0202B67D8002B5CD0102B5AD0BA
:10592C0062E07B6818683B6899683B685A683B681A
:10593C00DB6800F0DEFB7B681B689B68BB60BB68A8
:10594C0043F07703BB607B681B68BA689A604FE0D2
:10595C007B6818683B6899683B685A683B68DB68E9
:10596C0000F0C7FB7B681B689A687B681B6842F475
:10597C0080429A603CE07B6818683B6859683B68D9
:10598C00DB681A4600F03EFB7B681B68502118460A
:10599C0000F095FB2CE07B6818683B6859683B6805
:1059AC00DB681A4600F05CFB7B681B6860211846BC
:1059BC0000F085FB1CE07B6818683B6859683B6805
:1059CC00DB681A4600F01EFB7B681B6840211846FA
:1059DC0000F075FB0CE07B681A683B681B68194685
:1059EC00104600F06CFB03E00123FB7300E000BFEA
:1059FC007B68012283F83D207B68002283F83C20E1
:105A0C00FB7B18461037BD4680BD80B483B000AF19
:105A1C00786000BF0C37BD4680BC704780B483B043
:105A2C0000AF786000BF0C37BD4680BC704780B4B7
:105A3C0083B000AF786000BF0C37BD4680BC7047A8
:105A4C0080B483B000AF786000BF0C37BD4680BC1B
:105A5C00704780B483B000AF786000BF0C37BD4690
:105A6C0080BC704780B483B000AF786000BF0C3747
:105A7C00BD4680BC704780B584B000AF78607B6851
:105A8C005B6AFB60FB685B6A7A689A4207D1FB68C9
:105A9C0001221A77FB68012283F83E202AE0FB687A
:105AAC009B6A7A689A4207D1FB6802221A77FB68D4
:105ABC00012283F83F201DE0FB68DB6A7A689A427A
:105ACC0007D1FB6804221A77FB68012283F8402077
