:020000040800F2
:1000000000500020F1380008892C0008912C0008CD
:10001000992C0008A12C0008A92C00080000000061
:10002000000000000000000000000000B12C0008EB
:10003000BD2C000800000000C92C0008D52C0008C9
:1000400039390008393900083939000839390008C8
:1000500039390008393900083939000839390008B8
:1000600039390008393900083939000839390008A8
:10007000393900083939000839390008E12C0008FD
:100080003939000839390008393900083939000888
:100090003939000839390008393900083939000878
:1000A0003939000839390008393900083939000868
:1000B000F52C0008393900083939000839390008A9
:1000C0003939000839390008393900083939000848
:1000D00039390008092D0008393900083939000874
:1000E00039390008393900083939000800000000A2
:1000F0000000000000000000000000000000000000
:0C01000000000000000000005FF808F1A3
:10010C0010B5054C237833B9044B13B10448AFF345
:10011C0000800123237010BD84000020000000002B
:10012C00EC76000808B5034B1BB103490348AFF349
:10013C00008008BD0000000088000020EC7600085C
:10014C00034613F8012B002AFBD1181A013870470B
:10015C0080B500AF14220021054806F033FE044B95
:10016C0000221A70024B01221A740023184680BD1B
:10017C00A000002080B500AF134B1B7C83F0010363
:10018C00DBB2002B01D001231CE00F4B01221A70B3
:10019C000D4B00225A800C4B00221A710A4B002284
:1001AC005A71094B00229A71074B0022DA71064BE7
:1001BC0000221A7203F014FC0346034AD36000F0C9
:1001CC00BDF80023184680BDA000002080B500AF0C
:1001DC00084B1B7C83F00103DBB2002B01D0012305
:1001EC0005E0044B00221A7000F0A8F80023184612
:1001FC0080BD00BFA000002080B584B000AF786047
:10020C00384B1B7C83F00103DBB2002B02D17B68E3
:10021C00002B01D1012361E0324B1B78012B01D063
:10022C0001235BE02F4B5B790133DAB22D4B5A7112
:10023C00786802F092F90346FB737B6893F84130BF
:10024C00BB73FB7B012B11D1264B9B790133DAB2AB
:10025C00244B9A71234B00221A71224B5A88BB7B78
:10026C009BB213449AB21F4B5A8020E0FB7B022BAB
:10027C000CD11C4BDB790133DAB21A4BDA71194B06
:10028C001B790133DAB2174B1A7110E0154B1B7A3C
:10029C000133DAB2134B1A72124B00221A71114B42
:1002AC005A88BB7B9BB213449AB20E4B5A8000F017
:1002BC0067F800F043F80B4B1B78022B04D102209B
:1002CC0000F078F8022309E0064B1B78032B04D1CD
:1002DC00032000F06FF8032300E0002318461037CA
:1002EC00BD4680BDA000002080B400AF024B1B783F
:1002FC001846BD4680BC7047A000002080B400AFFB
:10030C00054B5B88312B8CBF01230023DBB21846D5
:10031C00BD4680BC704700BFA000002080B400AF79
:10032C00054B1B79012B8CBF01230023DBB2184634
:10033C00BD4680BC704700BFA000002080B582B0D5
:10034C0000AF0023FB710D4B1B78022B02D1012354
:10035C00FB7105E0094B1B78032B01D10223FB71C8
:10036C00064B9879054BD979044B5A88FB7903F0E5
:10037C0082F8002318460837BD4680BDA000002037
:10038C0080B500AFFFF7BAFF0346002B03D0084B34
:10039C0002221A700BE0FFF7C1FF0346002B03D0BB
:1003AC00034B03221A7002E0014B01221A7080BD2C
:1003BC00A000002080B584B000AF0346FB71FB7930
:1003CC00022B0CD100233B73FF237B730023BB73E5
:1003DC004FF47A72F9680B4800F094FD0EE0FB794B
:1003EC00032B0BD1FF233B7200237B720023BB72C8
:1003FC004FF47A72B968044800F084FD00BF1037DE
:10040C00BD4680BD047700080877000880B500AFB2
:10041C000D4B1B7C002B01D0002313E01422002178
:10042C00094806F0CFFC084B00221A70064B00223C
:10043C005A7003F0D5FA0346034A5360024B01226B
:10044C001A740023184680BDB400002080B582B019
:10045C0000AF7860144B1B7C83F00103DBB2002BE4
:10046C0002D17B68002B01D1012318E00E4B1B78C5
:10047C00002B05D00C4B1B78032B01D002230EE074
:10048C00786801F0FBFE084B0022DA60064B002274
:10049C009A60012000F0ACF900F0C2F90023184674
:1004AC000837BD4680BD00BFB400002080B500AF4A
:1004BC000D4B1B7C83F00103DBB2002B01D001231D
:1004CC0010E0094B1B78012B01D002230AE003F04A
:1004DC0087FA0346044A9360022000F089F900F081
:1004EC009FF90023184680BDB400002080B582B06F
:1004FC0000AF144B1B7C83F00103DBB2002B01D04B
:10050C0001231BE00F4B1B78022B01D0022315E0BB
:10051C0003F066FA02460B4B9B68D31A7B60094BBF
:10052C00DA687B681344074AD360064B00229A6052
:10053C00012000F05DF900F073F90023184608372C
:10054C00BD4680BDB400002080B584B000AF78609B
:10055C001E4B1B7C83F00103DBB2002B02D17B68AA
:10056C00002B01D101232CE0184B1B78012B05D05B
:10057C00164B1B78022B01D0022322E0134B1B7865
:10058C00022B0FD103F02CFA0246104B9B68D31AA6
:10059C00FB600E4BDA68FB6813440C4AD3600B4BC0
:1005AC0000229A607B6893F84330002B03D17B6860
:1005BC00032283F84320032000F01AF900F030F9ED
:1005CC00002318461037BD4680BD00BFB400002084
:1005DC0080B582B000AF78600F4B1B7C83F00103B9
:1005EC00DBB2002B02D17B68002B01D101230EE082
:1005FC00786802F0A6F8084B0022DA60064B00225D
:10060C009A60002000F0F4F800F00AF90023184674
:10061C000837BD4680BD00BFB400002080B584B053
:10062C0000AF03463960FB71214B1B7C83F0010347
:10063C00DBB2002B02D13B68002B01D1012333E04C
:10064C000023FB73FB79013B042B29D801A252F840
:10065C0023F000BF75060008810600088B06000811
:10066C0095060008A10600083868FFF7EFFE034660
:10067C00FB7318E0FFF71AFF0346FB7313E0FFF759
:10068C0035FF0346FB730EE03868FFF75DFF03464A
:10069C00FB7308E03868FFF79BFF0346FB7302E02F
:1006AC000323FB7300BFFB7B18461037BD4680BD90
:1006BC00B400002080B584B000AF03463960FB71F4
:1006CC002F4B1B7C83F00103DBB2002B02D13B6868
:1006DC00002B01D100234EE00023FB730123BB73DD
:1006EC00FB790F2B3ED801A252F823F039070008F2
:1006FC0071070008710700087107000871070008EE
:10070C0071070008710700087107000871070008DD
:10071C0071070008710700087107000845070008F9
:10072C00650700084F070008590700083868FFF7ED
:10073C008DFE0346FB7318E0FFF7B8FE0346FB7310
:10074C0013E0FFF7D3FE0346FB730EE03868FFF7A8
:10075C00FBFE0346FB7308E03868FFF739FF0346DE
:10076C00FB7302E00023BB7300BFFB7B022B01D1A8
:10077C000123BB73BB7B18461037BD4680BD00BF41
:10078C00B400002080B400AF024B1846BD4680BCBC
:10079C00704700BFB400002080B483B000AF0346A4
:1007AC00FB71FB79032B13D801A252F823F000BF85
:1007BC00CD070008D1070008D5070008D9070008A5
:1007CC00064B06E0064B04E0064B02E0064B00E04D
:1007DC00064B18460C37BD4680BC70479077000816
:1007EC0098770008A0770008A8770008B077000871
:1007FC0080B582B000AF0346FB71084B1A78074BEB
:10080C005A70064AFB79137003F0EAF80346034A60
:10081C00536000BF0837BD4680BD00BFB400002048
:10082C0080B590B000AF094B1B781846FFF7B4FFAA
:10083C0003463846064A402106F08EFA3B461846D7
:10084C0002F000FE00BF4037BD4680BDB400002062
:10085C00B877000880B582B000AF2C4B93F89C3170
:10086C00002B01D000234CE04FF4D072002127481C
:10087C0006F0A8FA254B0A22C3F88821234B4FF423
:10088C007A72C3F88C210023FB711EE00023BB712C
:10089C0015E0F979BB791A4652001A4493001A46AE
:1008AC000B465B000B441B011344184A1344BA79E2
:1008BC00F979184600F09CFABB790133BB71BB790E
:1008CC00032BE6D9FB790133FB71FB79032BDDD9C3
:1008DC0000237B7107E07B790121184600F0B4F905
:1008EC007B7901337B717B79032BF4D903F078F896
:1008FC000346064AC2F89031044B012283F89C212E
:10090C00002318460837BD4680BD00BFC800002034
:10091C0080B586B000AF624B93F89C3183F0010335
:10092C00DBB2002B40F0B78003F05AF838615C4B17
:10093C00D3F8943101335A4AC2F894310023FB7531
:10094C0092E00023BB750FE0BA7DFB7D9A4214BF89
:10095C0001230023DBB21A46BB7D1146184600F07A
:10096C0073F9BB7D0133BB75BB7D032BECD9022026
:10097C0000F05EFA00237B7570E07B7D184600F07A
:10098C0083F90346FB73FB7B002B0CBF0123002375
:10099C00BB73F97D7B7D1A4652001A4493001A46AC
:1009AC000B465B000B441B0113443D4A1344BB60D4
:1009BC00BB7B1946B86800F087F90346002B16D0AC
:1009CC00B86800F0C7F9364BD3F898310133344A84
:1009DC00C2F89831324BD3F88431002B07D0304B0E
:1009EC00D3F88431BA689278797DF87D9847BB68E2
:1009FC009B78012B2FD1BB7B002B2CD0BB685B6869
:100A0C003A69D31A7B60264BD3F88C317A689A42B8
:100A1C0021D3BB689B78022B1DD0BB689A78BB682E
:100A2C00DA70BB6802229A70B86800F093F91C4B1C
:100A3C00D3F8983101331A4AC2F89831184BD3F8CD
:100A4C008431002B07D0164BD3F88431BA689278D6
:100A5C00797DF87D98477B7D01337B757B7D032BFE
:100A6C008BD9FB7D0133FB75FB7D032B7FF669AFC7
:100A7C0000233B7507E03B7D0121184600F0E4F8AC
:100A8C003B7D01333B753B7D032BF4D9044A3B6919
:100A9C00C2F8903100E000BF1837BD4680BD00BFE2
:100AAC00C800002090B488B000AF786007F1140340
:100ABC0000221A605A609A60254B93F89C3183F09F
:100ACC000103DBB2002B04D1214B93F88231002BB4
:100ADC0008D17B681C4607F1140393E8070084E8EF
:100AEC0007002FE01A4B93F881311946184A0B4630
:100AFC005B000B449B00134403F1C00207F1080395
:100B0C0007CA83E80700124B93F8813101335A422C
:100B1C0003F00F0302F00F0258BF5342DAB20C4B32
:100B2C0083F881210A4B93F88231013BDAB2084BEE
:100B3C0083F882217B681C4607F1080393E80700C1
:100B4C0084E8070078682037BD4690BC704700BF2A
:100B5C00C800002080B483B000AF7860094B93F8D4
:100B6C009C3183F00103DBB2002B01D0012304E0A4
:100B7C00044A7B68C2F88431002318460C37BD4602
:100B8C0080BC7047C800002080B582B000AF214BFC
:100B9C0093F89C3183F00103DBB2002B01D00023CE
:100BAC0034E00023FB7107E0FB790021184600F0CC
:100BBC004BF8FB790133FB71FB79032BF4D905203E
:100BCC0000F036F90023BB7100237B710CE07B79BC
:100BDC00184600F059F80346002B02D10123BB71D3
:100BEC0005E07B7901337B717B79032BEFD90023F3
:100BFC003B7107E03B790121184600F025F83B7961
:100C0C0001333B713B79032BF4D9BB791846083778
:100C1C00BD4680BDC800002080B582B000AF02F098
:100C2C00DFFE7860074B1B687A68D31A042B04D953
:100C3C00FFF76EFE034A7B68136000BF0837BD46A2
:100C4C0080BD00BF6802002080B582B000AF0346B3
:100C5C000A46FB711346BB71FB79032B0BD8FB794E
:100C6C00074A52F82300FB79064A32F81330BA7956
:100C7C00194603F02EFC00BF0837BD4680BD00BFEF
:100C8C00000000208C78000880B582B000AF0346CD
:100C9C00FB71FB79032B0DD8FB79094A52F8232001
:100CAC00FB79084931F813301946104603F0FAFB6A
:100CBC00034600E0012318460837BD4680BD00BF3F
:100CCC00100000209478000880B584B000AF7860E4
:100CDC000B46FB7002F084FEB8600023FB73FB78BC
:100CEC00002B1DD07B689B78002B2DD17B689B68DB
:100CFC00002B03D17B68BA689A6025E07B689B68FF
:100D0C00BA68D31A092B1FD97B680022DA707B686A
:100D1C0001229A707B68BA685A600123FB7313E056
:100D2C007B689B78002B0CD07B689A787B68DA7098
:100D3C007B6800229A707B6800229A600123FB7307
:100D4C0002E07B6800229A60FB7B18461037BD4698
:100D5C0080BD000080B483B000AF7860234B93F863
:100D6C0082310F2B16D9214B93F8813101335A4222
:100D7C0003F00F0302F00F0258BF5342DAB21B4BC1
:100D8C0083F88121194B93F88231013BDAB2174B6E
:100D9C0083F88221154B93F880311946134A0B4680
:100DAC005B000B449B001344C0337A6807CA83E88A
:100DBC0007000E4B93F8803101335A4203F00F03B6
:100DCC0002F00F0258BF5342DAB2084B83F880216D
:100DDC00064B93F882310133DAB2044B83F882214B
:100DEC0000BF0C37BD4680BC704700BFC800002058
:100DFC0080B483B000AF78600B46FB701346BB70B9
:100E0C007B68FA781A707B68BA785A707B68002213
:100E1C009A707B680022DA707B6800225A607B68CB
:100E2C0000229A6000BF0C37BD4680BC70470000A2
:100E3C0080B485B000AF78600D4B5B68FB600D4BE8
:100E4C001B680D4AA2FB03239A0C7B6802FB03F37D
:100E5C00BB6000BF064B5A68FB68D31ABA689A424B
:100E6C00F8D800BF00BF1437BD4680BC704700BF28
:100E7C00001000E02400002083DE1B4380B483B00C
:100E8C0000AF03460A46FB711346BB71FB79032B7B
:100E9C0002D8BB79032B01D9FF2306E0FA79BB7981
:100EAC00044992000A4413441B7818460C37BD467B
:100EBC0080BC70477C78000880B400AF00231846D3
:100ECC00BD4680BC704780B584B000AF3B60034624
:100EDC00FB710B46BB7113467B71FB79184600F016
:100EEC004BF8F860FB68002B01D1022306E07A79FD
:100EFC00B9793B68F86800F06DF800231846103794
:100F0C00BD4680BD80B586B000AFF860B9601346B1
:100F1C00FB80FB68002B01D1022329E0F868FFF766
:100F2C000FF90346BB75BB7D002B01D102231FE0DB
:100F3C0001237B7500233B750023FB7513E002F046
:100F4C00CFFBFB7DFA6813441878797D3A7DBB683A
:100F5C00FFF7B9FF02F0D8FBFB88184602F04AFDF8
:100F6C00FB7D0133FB75FA7DBB7D9A42E7D30023F1
:100F7C0018461837BD4680BD80B485B000AF034617
:100F8C00FB71FB79FB73FB7B0133104A13441B7819
:100F9C0003F00303022B02D1FB7B203B00E0FB7B25
:100FAC00FB71FB791F2B0BD9FB795A2B08D8FB79DA
:100FBC00A3F1200213469B001344054A134400E09E
:100FCC00034B18461437BD4680BC7047FE790008A9
:100FDC009C78000880B586B000AFF8607B600B464B
:100FEC00FB721346BB720023FB752CE0FB7DFA6889
:100FFC0013441B787B750023BB751EE07A7DBB7D8B
:10100C0042FA03F303F00103002B13D0FA7AFB7DB1
:10101C0013443B75BA7ABB7D1344FB743B7D072BA1
:10102C0008D8FB7C072B05D8397DFB7C7A681846E1
:10103C0002F024FBBB7D0133BB75BB7D062BDDD9D8
:10104C00FB7D0133FB75FB7D042BCFD900BF00BFAB
:10105C001837BD4680BD80B485B000AF786039606C
:10106C007B68002B46D03B68002B43D00023FB60F1
:10107C001AE00023BB6011E07A68FB68DB001A44BD
:10108C00BB68134419783A68FB68DB001A44BB68E8
:10109C0013440A461A70BB680133BB60BB68072B4C
:1010AC00EADDFB680133FB60FB68072BE1DD7B6845
:1010BC0093F840203B6883F840207B6893F84120EC
:1010CC003B6883F841207B6893F842203B6883F8A7
:1010DC0042207B6893F84330002B14BF012300237C
:1010EC00DBB21A463B6883F843207B685A6C3B683A
:1010FC005A6400E000BF1437BD4680BC704780B511
:10110C0094B000AF786007F1080319467868FFF7D0
:10111C00A2FF07F10803184602F032F903461846FD
:10112C005037BD4680BD000080B582B000AF02F0E4
:10113C00FFFB00F079F800F079F900F059F900F0B4
:10114C00B9F800F02BF9642002F054FC324BDB6848
:10115C00314A43F08073D360304B1B682F4A43F005
:10116C000103136002F04EFA0346002B01D001F08C
:10117C0068F8FFF76FFB03467B717B79002B01D07E
:10118C0001F05FF8FFF700FD01F0FEFD0346002BB8
:10119C0021D00023FB7117E00023BB710EE0FF236D
:1011AC003B7000237B700023BB70B979FB793A68E4
:1011BC00184602F063FABB790133BB71BB79072B7C
:1011CC00EDD9FB790133FB71FB79072BE4D902F0E4
:1011DC009BFA01F036F8642002F00CFC02F07CF86B
:1011EC000F48FFF7B7FC0F4801F0DCFF01F030F8B7
:1011FC000346002B01D001F024F800F081F900F037
:10120C00B1F9FFF709FD00F0DDF902F07DF80120DE
:10121C0002F0F0FB00BFF2E7F0ED00E0001000E0A0
:10122C00351D0008991D000880B590B000AF07F17E
:10123C00180328220021184605F0C4FD3B1D00228E
:10124C001A605A609A60DA601A610123BB614FF42C
:10125C008033FB6100233B620123BB6202237B636F
:10126C004FF48033BB634FF4E013FB6307F11803B7
:10127C00184603F047F90346002B01D000F0E1FFBC
:10128C000F237B600223BB600023FB604FF4806361
:10129C003B6100237B613B1D0221184603F0B4FB2C
:1012AC000346002B01D000F0CCFF00BF4037BD46F9
:1012BC0080BD000080B58EB000AF07F1280300227E
:1012CC001A605A609A60DA6007F1200300221A60F3
:1012DC005A603B1D00221A605A609A60DA601A61EB
:1012EC005A619A612C4B4FF080421A602A4B0022B3
:1012FC005A60294B00229A60274B5922DA60264B00
:10130C0000221A61244B00229A61234803F00AFD43
:10131C000346002B01D000F094FF4FF48053BB62C6
:10132C0007F1280319461C4804F0BEF90346002BAC
:10133C0001D000F086FF184803F043FD0346002B54
:10134C0001D000F07EFF00233B6200237B6207F19B
:10135C0020031946104804F025FE0346002B01D04B
:10136C0000F06FFF60237B600023BB600023FB60F9
:10137C0000237B613B1D00221946074804F0D2F87C
:10138C000346002B01D000F05CFF034801F0F2FB98
:10139C0000BF3837BD4680BD6C02002080B500AF61
:1013AC00114B124A1A60104B4FF4E1325A600E4B3B
:1013BC0000229A600C4B0022DA600B4B00221A615F
:1013CC00094B0C225A61084B00229A61064B0022F1
:1013DC00DA61054804F056FE0346002B01D000F0FC
:1013EC0030FF00BF80BD00BFF80200200038014074
:1013FC0080B582B000AF0C4B5B690B4A43F0010324
:10140C005361094B5B6903F001037B607B6800222D
:10141C0002210F2002F0E9FB0F2002F002FC00BFBA
:10142C000837BD4680BD00BF0010024080B588B0B3
:10143C0000AF07F1100300221A605A609A60DA605C
:10144C00244B9B69234A43F020039361214B9B69F6
:10145C0003F02003FB60FB681E4B9B691D4A43F0A5
:10146C00040393611B4B9B6903F00403BB60BB68D3
:10147C00184B9B69174A43F008039361154B9B6902
:10148C0003F008037B607B6801224FF47041124823
:10149C0003F01FF84FF470433B6101237B61002381
:1014AC00BB610223FB6107F1100319460A4802F0E5
:1014BC0075FE4FF4F0733B6100237B610123BB612C
:1014CC0007F110031946044802F068FE00BF2037EC
:1014DC00BD4680BD00100240000C014080B582B0BA
:1014EC0000AF78607B681B68B3F1804F02D1034872
:1014FC0002F060F900BF0837BD4680BDB402002081
:10150C0080B500AF20220021134805F05BFCFEF7EC
:10151C007DFF0346002B01D000F093FEFEF718FE72
:10152C000346002B01D000F08CFEFFF7C5FC0346F0
:10153C00002B01D000F085FE084800F09FFE03460A
:10154C00002B02D1064B01221A7002F0C9F800F0F0
:10155C006DF800BF80BD00BFDC03002040030020FD
:10156C00FC03002080B584B000AF134B1B78DBB2BA
:10157C00002B05D0104B00221A7000F057FA18E01F
:10158C003B1D1846FFF78EFABB79002B03D03B1D91
:10159C00184600F0C9F800F02BFA084B1B78002B0A
:1015AC0007D0074800F0C2FF0346002B01D000F023
:1015BC003DFA1037BD4680BD05040020FC03002019
:1015CC004003002080B582B000AF154B1B7883F030
:1015DC000103DBB2002B1ED102F002FA7860114B32
:1015EC001B687A68D31AB3F5FA7F15D30D4A7B685A
:1015FC0013600D4B1B78002B14BF01230023DBB2AF
:10160C0083F00103DBB203F00103DAB2064B1A706C
:10161C0000F00CF800E000BF0837BD4680BD00BFED
:10162C00FC030020000400202200002080B584B0C0
:10163C0000AF364B1B7883F00103DBB2002B61D17A
:10164C0002F04EF80023FB7337E00023BB732EE04F
:10165C00BA7BFB7B19462E4801F054F803463B73CA
:10166C003B7B012B0FD12B4A07F108031268114663
:10167C0019800233120C1A70B97BFB7BBA681846BE
:10168C0001F0FCFF10E03B7B022B0DD1224A3B1DED
:10169C001268114619800233120C1A70B97BFB7B4D
:1016AC007A68184601F0EAFFBB7B0133BB73BB7B46
:1016BC00072BCDD9FB7B0133FB73FB7B072BC4D9E9
:1016CC00164B1B78002B1AD0154B1B78154A127829
:1016DC0019460F4801F016F803467B737B7B002BF1
:1016EC000DD10F4B1B780F4A117800223A70FF2254
:1016FC007A700022BA703A68184601F0BFFF02F007
:10170C0003F800E000BF1037BD4680BDFC0300208D
:10171C0040030020487800084C7800082200002084
:10172C00200000202100002080B584B000AF78603C
:10173C00994B1B7883F00103DBB2002B40F01A812C
:10174C007B68002B00F016817B681A787B685B78CD
:10175C0019461046FFF792FB0346FB737B689B7898
:10176C00012B40F01681FB7B8C491846FEF7A2FF3B
:10177C000346002B05D0FFF759FF8848FFF7BFFC45
:10178C0007E1FB7B0B2B1FD1854B1B78042B0BD15B
:10179C00834B01221A70814B012283F899207F4BD5
:1017AC00012283F8402009E07D4B04221A707B480B
:1017BC0000F0C7FF794B042283F89920FFF736FF1E
:1017CC007648FFF79CFCE4E0FEF7DCFF03461B7851
:1017DC00012B40F0D180FB7B0F2B00F2CF8001A2BC
:1017EC0052F823F0891900083118000889190008EB
:1017FC00891900085D1800088918000807190008E5
:10180C00891900088919000831190008791900088C
:10181C0089190008891900085B1900088919000842
:10182C00891900085F4B1B78002B00F0A9805D4BD9
:10183C001B78013BDAB25B4B1A705B4B01221A70BE
:10184C0002F0CEF80346594A1360FFF7EFFE97E01B
:10185C00574B1B78002B00F09580554B1B78013BA8
:10186C00DAB2534B1A70504B01221A7002F0B8F8CE
:10187C0003464E4A1360FFF7D9FE83E0494B1978B3
:10188C004B4B1A78454B93F84030444800F058FDC8
:10189C000346002B1BD0434B1978454B1A783F4B12
:1018AC0093F840303D4800F085FD0346BB73BB7B8D
:1018BC00002B69D0FFF7BAFE3848FFF720FC374BF6
:1018CC0093F84330002B5FD000F074F85CE0354B9C
:1018DC001B78374A1178FF223A7200227A72002262
:1018EC00BA72BA68184601F0C9FE01F00DFFC820A3
:1018FC0002F080F8FFF79AFE46E02D4B1B78062B82
:10190C0044D82B4B1B780133DAB2294B1A70264B77
:10191C0001221A7002F064F80346244A1360FFF7A0
:10192C0085FE33E01F4B1B78062B31D81D4B1B78E3
:10193C000133DAB21B4B1A701B4B01221A7002F0E6
:10194C004FF80346194A1360FFF770FE20E0134866
:10195C0000F094FC134B03221A70154B03221A70DF
:10196C00114B01221A70FFF761FE12E00B48FFF7D2
:10197C00C6FB0EE000BF0CE000BF0AE000BF08E0B1
:10198C0000BF06E000BF04E000BF02E000BF00E0C3
:10199C0000BF1037BD4680BDFC0300204003002073
:1019AC002300002020000020220000200004002042
:1019BC002100002080B582B000AF0B4B1B7883F068
:1019CC000103DBB2002B0AD1084B93F84330002BF8
:1019DC0006D0064800F0C1FD0346FB7100E000BFD5
:1019EC000837BD4680BD00BFFC030020400300202B
:1019FC0080B582B000AF01F0F3FF7860094B1B6833
:101A0C007A68D31A632B08D9064A7B681360064B95
:101A1C001B78002B01D0FFF709FE00BF0837BD462D
:101A2C0080BD00BF08040020FC03002080B592B0EC
:101A3C0000AFAC4B5A6CAC4B1B689A4200F04D811A
:101A4C00A84B5B6CA84A1360A84B01221A70A549DD
:101A5C00A74800F08FFEA34800F07FFD034687F8EF
:101A6C00453097F84530012B2DD1002387F84030B5
:101A7C00FF2387F84130002387F842304FF47A7205
:101A8C00396C9C48FFF73EFA002387F83C30FF2363
:101A9C0087F83D30002387F83E304FF47A72F96BAB
:101AAC009548FFF72FFA002387F83830FF2387F883
:101ABC003930002387F83A304FF47A72B96B8F487B
:101ACC00FFF720FA7CE097F84530022B3CD1FF233E
:101ADC0087F83430002387F83530002387F8363008
:101AEC004FF47A72796B8648FFF70CFAFF2387F86C
:101AFC003030002387F83130002387F832304FF430
:101B0C007A72396B7F48FFF7FDF9FF2387F82C3089
:101B1C00002387F82D30002387F82E304FF47A728B
:101B2C00F96A7948FFF7EEF9FF2387F8283000238C
:101B3C0087F82930002387F82A304FF47A72B96A73
:101B4C007248FFF7DFF93BE0714A07F12403126892
:101B5C00114619800233120C1A704FF47A72796A9A
:101B6C006C48FFF7CFF96A4A07F120031268114657
:101B7C0019800233120C1A704FF47A72396A664863
:101B8C00FFF7C0F9624A07F11C031268114619806D
:101B9C000233120C1A704FF47A72F9695F48FFF72E
:101BAC00B1F95B4A07F11803126811461980023328
:101BBC00120C1A704FF47A72B9694E48FFF7A2F9F9
:101BCC0001F08EFD01F0A0FD4FF4FA7001F012FF50
:101BDC00534B1B78022B16D14248FEF70DFB0346E4
:101BEC0087F8443097F84430022B04D140F6B830D3
:101BFC0001F000FF07E097F84430032B03D140F6C7
:101C0C00B83001F0F7FE01F06BFD97F84530012B71
:101C1C0009D100233B7500237B750023BB757869C4
:101C2C0001F09EFD4CE097F84530022B0CD13D4A5B
:101C3C0007F110031268114619800233120C1A7046
:101C4C00386901F08DFD3BE0002387F8473033E025
:101C5C00002387F8463026E097F8472097F846305F
:101C6C001344DBB203F00103002B06D100233B73BA
:101C7C0000237B730023BB7308E02A4A07F10C0393
:101C8C001268114619800233120C1A7097F846101C
:101C9C0097F84730FA68184601F0F0FC97F8463090
:101CAC00013387F8463097F84630072BD4D997F88C
:101CBC004730013387F8473097F84730072BC7D99F
:101CCC0001F022FD0748FFF71AFA41F2883001F0C3
:101CDC0091FE064B00221A7000E000BF4837BD464B
:101CEC0080BD00BF400300200C0400200404002031
:101CFC00DC0300205078000854780008587800085D
:101D0C005C7800086078000864780008687800083F
:101D1C00787800086C7800087078000874780008EF
:101D2C00230000204C78000880B584B000AF034637
:101D3C00FB710B46BB7113467B71BA79FB7911466B
:101D4C001846FFF79BF80346FB73FB7B7A79B9794E
:101D5C00F87901F028FB7B79012B13D1FB79072B48
:101D6C0010D8BB79072B0DD800233B73FF237B7353
:101D7C000023BB73B979FB79FA68184601F07EFC35
:101D8C0001F0C2FC00BF1037BD4680BD80B58CB0E1
:101D9C0000AF03463960FB711346BB71FB79013B05
:101DAC000F2B00F2338201A252F823F0191F000806
:101DBC00F91D00086F1E0008192200088B1E000870
:101DCC00911E0008131F0008192200081922000890
:101DDC0019220008A31E000855200008C120000885
:101DEC001922000881210008B7210008BB79082BB3
:101DFC0031D13B687B617B6919787B695A78AA4B36
:101E0C0093F84030A84800F09BFA0346002B1CD0F6
:101E1C007B6919787B695A78A34B93F84030A248B8
:101E2C0000F0C8FA0346FB74FB7C002B07D0FFF7CD
:101E3C00FDFBFB790021184601F0CEF9EDE1FB79B1
:101E4C000221184601F0C8F9E7E1FB790121184697
:101E5C0001F0C2F9E1E1FB790321184601F0BCF96C
:101E6C00DBE1914800F00AFAFFF7E0FBFB79002177
:101E7C00184601F0B1F98C48FFF741F9CDE101F0BA
:101E8C00B9FACAE18848FFF73AF9FB7900211846FC
:101E9C0001F0A2F9C1E1BB79032B2ED93B681B7869
:101EAC00BB763B685B787B763B689B783B733B6887
:101EBC00DB787B73BB79042B03D93B6804331B7829
:101ECC0000E00023BB73BB7E072B10D87B7E072B57
:101EDC000DD8797EBB7EFA68184601F0CFFB01F075
:101EEC0013FCFB790021184601F076F995E1FB799A
:101EFC000221184601F070F98FE1FB790121184697
:101F0C0001F06AF989E101F0E7F986E1674B1B788A
:101F1C00002B05D0FB790421184601F05DF97CE11A
:101F2C00BB79482B40F08A80002387F82F301AE0C9
:101F3C0097F82F30DB08BB7497F82F3003F00703AA
:101F4C007B7497F82F303A68D118BA7C7B7C087870
:101F5C005549D2000A44134402461A7097F82F30A0
:101F6C00013387F82F3097F82F303F2BE0D93B689F
:101F7C0040331A784C4B83F840203B6893F841204F
:101F8C00494B83F841203B6893F84220464B83F839
:101F9C004220002387F82E303B6843331B78012BFB
:101FAC0021D1414B93F841203F4B93F842309A4258
:101FBC0004D93D4B012283F8432010E03A4B93F8AF
:101FCC004120394B93F842309A4204D2364B0222CC
:101FDC0083F8432003E0344B032283F8432001238E
:101FEC0087F82E3003E0304B002283F843203B6807
:101FFC0044331B781A463B6845331B781B021A4343
:10200C003B6846331B781B041A433B6847331B78E9
:10201C001B061343244A536497F82E30002B05D02B
:10202C00234B01221A70FFF701FB01E0FFF7FEFAC8
:10203C00FB790021184601F0CFF8EEE0FB79012185
:10204C00184601F0C9F8E8E0BB79082B26D13B68AB
:10205C00FB61FB691B7814491846FEF7DFFA03464F
:10206C00FB76FB7E002B0AD1FFF7E0FAFB7900210F
:10207C00184601F0B1F80C48FFF741F8CDE0FB7EB3
:10208C00022B05D1FB790121184601F0A5F8C4E01B
:10209C00FB790221184601F09FF8BEE0FB79032181
:1020AC00184601F099F8B8E0400300200404002021
:1020BC0005040020BB79042B56D13B683B623B6A7C
:1020CC001A78584B1A70574B1B78022B10D1FEF70D
:1020DC0051F80346002B05D1FB790021184601F07D
:1020EC007BF89AE0FB790221184601F075F894E030
:1020FC004C4B1B78012B0CD1FEF7F6F80346002B4A
:10210C0001D0FEF763F8FB790021184601F064F862
:10211C0083E0444B1B78032B05D1FB790121184636
:10212C0001F05AF879E03F4B1B78042B16D1FEF7DF
:10213C00DBF80346002B01D0FEF748F83A4800F0D4
:10214C0000FB394B042283F89920FB7900211846B7
:10215C0001F042F83448FEF7D2FF5EE0FB79032130
:10216C00184601F039F858E0FB790421184601F0C3
:10217C0033F852E0BB79012B11D93B681B781BB2A9
:10218C001B021AB23B6801331B781BB213431BB200
:10219C00FB84FB790021184601F01EF83DE0FB7929
:1021AC000121184601F018F837E0BB79012B27D133
:1021BC003B68BB62BB6A1B78012B09D0BB6A1B78DE
:1021CC00022B05D0FB790121184601F005F824E01B
:1021DC00144B1B78042B05D0FB790221184600F018
:1021EC00FBFF1AE0BB6A1A780F4B83F84020FB798F
:1021FC000021184600F0F0FF0B48FEF780FF0CE0C2
:10220C00FB790321184600F0E7FF06E0FB1D0122D5
:10221C001946012000F0F8FF00BF00BF3037BD4663
:10222C0080BD00BF230000204003002080B582B099
:10223C0000AF7860786801F041F900BF0837BD46FF
:10224C0080BD80B400AF72B600BF00BFFDE70000D8
:10225C0080B500AF084B1B78002B01D0002308E0A1
:10226C0024220021044804F0ADFD034B01221A7016
:10227C000023184680BD00BF1004002080B582B03A
:10228C0000AF78602D4B1B7883F00103DBB2002B81
:10229C0002D17B68002B01D101234AE09C22002152
:1022AC00786804F08FFD7B680122DA767B68012266
:1022BC0083F824207B6802221A777B68022283F839
:1022CC0023207B68012283F840207B68022283F85C
:1022DC0041207B68022283F842207B68002283F82D
:1022EC0043207B6800225A647B68002283F85020CC
:1022FC0001F076FB02467B685A657B68012283F805
:10230C0099207B68FF2283F848207B68FF2283F8A2
:10231C0049207B68002283F84A207B68002283F8DE
:10232C004B207B685A6D7B68DA64786800F05FFB41
:10233C00002318460837BD4680BD00BF100400209E
:10234C0080B582B000AF7860084611461A46034645
:10235C00FB700B46BB7013467B707B68002B0BD05D
:10236C00FB78072B08D8BB78072B05D87B78012B7B
:10237C0004D07B78022B01D0002316E0FA78BB78CE
:10238C007968D2000A4413441B78002B01D0002337
:10239C000BE07B78BA78F978786800F02DF9034671
:1023AC00002B14BF01230023DBB218460837BD46AF
:1023BC0080BD000090B589B004AF78600846114626
:1023CC001A460346FB700B46BB7013467B707B684A
:1023DC00002B10D07B6893F84330002B0BD17B780B
:1023EC00BA78F9787868FFF7ABFF034683F00103FE
:1023FC00DBB2002B01D0002391E00023FB73FA78B1
:10240C00BB787968D2000A4413447A781A70002396
:10241C00BB601DE0444ABB6812F91340424ABB68DA
:10242C005B00134493F90130B878F97801220292D9
:10243C007A780192009323460246786800F01CFAE1
:10244C0003461A46FB7B1344FB73BB680133BB602A
:10245C00BB68072BDEDD7B68FA7883F848207B6845
:10246C00BA7883F849207B687A7883F84A207B68AD
:10247C00FA7B83F84B2001F0B3FA02467B68DA64EE
:10248C007B685B6C5A1C7B685A647B68002283F8FF
:10249C005020786800F08DFA786800F0A8FA7B6814
:1024AC0093F89930042B39D07B78012B01D102227F
:1024BC0000E001227B6883F840207B6893F8403071
:1024CC001946786800F06BF8034683F00103DBB221
:1024DC00002B16D07B781946786800F060F803461C
:1024EC0083F00103DBB2002B03D0786800F095FA7F
:1024FC0007E07B687A7883F840207B68012283F8B8
:10250C0050207B6893F841301A467B6893F8423030
:10251C001344402B02D1786800F07FFAFB7B1846FD
:10252C001437BD4690BD00BFC479000880B483B099
:10253C0000AF78607B68002B04D07B6893F8433045
:10254C00002B01D0012300E0002303F00103DBB2D8
:10255C0018460C37BD4680BC704780B483B000AFC2
:10256C0078607B68002B04D07B6893F84330002B99
:10257C0001D100230EE07B6893F84330012B01D18D
:10258C00012307E07B6893F84330022B01D102232F
:10259C0000E0002318460C37BD4680BC704780B560
:1025AC0084B000AF78600B46FB707B68002B01D1C8
:1025BC0000231DE00023FB7316E00023BB730DE02A
:1025CC00FB78BA7BF97B7868FFF7BAFE0346002BE1
:1025DC0001D001230CE0BB7B0133BB73BB7B072B0E
:1025EC00EED9FB7B0133FB73FB7B072BE5D9002377
:1025FC0018461037BD4680BD90B589B004AF7860E1
:10260C00084611461A460346FB700B46BB70134630
:10261C007B707B68002B14D0FB78072B11D8BB7810
:10262C00072B0ED8FA78BB787968D2000A44134489
:10263C001B78002B05D17B78012B04D07B78022BE7
:10264C0001D0002326E00023FB730023BB601DE0B8
:10265C00124ABB6812F91340104ABB685B00134462
:10266C0093F90130B878F978002202927A780192C5
:10267C00009323460246786800F0FEF803461A469B
:10268C00FB7B1344FB73BB680133BB60BB68072B3C
:10269C00DEDDFB7B18461437BD4690BDC4790008BF
:1026AC0080B485B000AF78600B46FB707B68002B64
:1026BC0001D1002321E00023FB730023BB7318E03E
:1026CC0000237B730FE0BA7B7B7B7968D2000A44D2
:1026DC0013441B78FA789A4202D1FB7B0133FB73CB
:1026EC007B7B01337B737B7B072BECD9BB7B01336F
:1026FC00BB73BB7B072BE3D9FB7B18461437BD465A
:10270C0080BC704780B483B000AF78600B46FB7020
:10271C001346BB707B68002B05D0FB78072B02D8C7
:10272C00BB78072B01D9002306E0FA78BB787968CF
:10273C00D2000A4413441B7818460C37BD4680BCA3
:10274C00704780B584B000AF78607B68002B01D1F6
:10275C0001230BE07B6893F89930FB737868FFF7E3
:10276C008DFD7B68FA7B83F899200023184610377F
:10277C00BD4680BD80B584B000AF786039607B68A1
:10278C00002B02D03B68002B01D1012356E07B6863
:10279C001B685A1C7B681A607B681A693B685B6C07
:1027AC001A447B681A613B6893F84330032B12D0B0
:1027BC00032B16DC012B02D0022B06D011E07B6818
:1027CC005B685A1C7B685A600CE07B689B685A1CDF
:1027DC007B689A6006E07B68DB685A1C7B68DA6071
:1027EC0000E000BF7B681B68012B08D13B685A6C6A
:1027FC007B685A613B685A6C7B689A6113E03B6852
:10280C005A6C7B685B699A4203D93B685A6C7B684B
:10281C005A613B685A6C7B689B699A4203D23B684D
:10282C005A6C7B689A61386800F00CF8F8607B6829
:10283C00DA69FB681A447B68DA61002318461037A2
:10284C00BD4680BD80B584B000AF78607B68002B3E
:10285C0001D100230AE001F0C3F8F8607B685B6DDE
:10286C00FA68D31A034AA2FB03239B0918461037B4
:10287C00BD4680BDD34D621080B485B000AF78608A
:10288C00084611461A460346FB700B46BB701346AE
:10289C007B703B7F012B01D1022300E00123FB72F3
:1028AC000023FB737A78FB781344DBB2BB733A7E5C
:1028BC00BB781344DBB27B730CE0FB7B0133FB7303
:1028CC00BA7B7B781344DBB2BB737A7B3B7E1344BD
:1028DC00DBB27B7397F90E30002B17DB97F90E30B8
:1028EC00072B13DC97F90D30002B0FDB97F90D300C
:1028FC00072B0BDC97F90E2097F90D307968D20075
:10290C000A4413441B78FA7A9A42D6D0FB7B002BEC
:10291C0049D097F90E30002B45DB97F90E30072B79
:10292C0041DC97F90D30002B3DDB97F90D30072B6F
:10293C0039DC97F90E2097F90D307968D2000A44EA
:10294C0013441B783A7F9A422DD197F82030002BF4
:10295C0027D07A78FB781344DBB2BB733A7EBB7812
:10296C001344DBB27B7300233B7316E097F90E2004
:10297C0097F90D307968D2000A4413443A7F1A70E3
:10298C00BA7B7B781344DBB2BB737A7B3B7E1344FC
:10299C00DBB27B733B7B01333B733A7BFB7B9A4211
:1029AC00E4D3FB7B00E0002318461437BD4680BC03
:1029BC00704780B582B000AF78607B68002B12D076
:1029CC0001217868FFF76CFE03461A467B6883F892
:1029DC00412002217868FFF763FE03461A467B68A4
:1029EC0083F8422000E000BF0837BD4680BD80B5AB
:1029FC0082B000AF78607B68002B0AD07B68002225
:102A0C0083F898207B68583340220021184604F044
:102A1C00D9F900BF0837BD4680BD80B483B000AF84
:102A2C0078607B68002B1ED07B6893F841207B6814
:102A3C0093F842309A4204D97B68012283F84320F0
:102A4C0012E07B6893F842207B6893F841309A42FD
:102A5C0004D97B68022283F8432005E07B680322BB
:102A6C0083F8432000E000BF0C37BD4680BC7047A4
:102A7C0080B485B000AF154B9B69144A43F0010339
:102A8C009361124B9B6903F00103BB60BB680F4B56
:102A9C00DB690E4A43F08053D3610C4BDB6903F0C6
:102AAC0080537B607B680A4B5B68FB60FB6823F0A0
:102ABC00E063FB60FB6843F00073FB60044AFB6857
:102ACC00536000BF1437BD4680BC704700100240F5
:102ADC000000014080B584B000AF78607B681B6853
:102AEC00B3F1804F3BD1204BDB691F4A43F001030C
:102AFC00D3611D4BDB6903F00103FB60FB681B4BCF
:102B0C001B4A1A60194B10225A60184B00229A600B
:102B1C00164B8022DA60154B4FF480721A61134BFE
:102B2C004FF480625A61114B00229A610F4B0022C4
:102B3C00DA610E4801F090F80346002B01D0FFF744
:102B4C0080FB7B68094A5A62084A7B685362002200
:102B5C0002211C2001F049F81C2001F062F800BF92
:102B6C001037BD4680BD00BF00100240B4020020EB
:102B7C005800024080B588B000AF786007F11003B0
:102B8C0000221A605A609A60DA607B681B68B3F1A5
:102B9C00804F17D10D4B9B690C4A43F00403936192
:102BAC000A4B9B6903F00403FB60FB6801233B6148
:102BBC0002237B610323FB6107F1100319460448D0
:102BCC0001F0ECFA00BF2037BD4680BD001002407A
:102BDC000008014080B588B000AF786007F11003A1
:102BEC0000221A605A609A60DA607B681B68204A7F
:102BFC00934239D11F4B9B691E4A43F48043936126
:102C0C001C4B9B6903F48043FB60FB68194B9B696D
:102C1C00184A43F004039361164B9B6903F00403B9
:102C2C00BB60BB684FF400733B6102237B610323E1
:102C3C00FB6107F1100319460F4801F0AFFA4FF48E
:102C4C0080633B6100237B610023BB6107F11003B0
:102C5C001946094801F0A2FA00220121252000F0B2
:102C6C00C4FF252000F0DDFF00BF2037BD4680BD2E
:102C7C0000380140001002400008014080B400AF51
:102C8C0000BFFDE780B400AF00BFFDE780B400AF2C
:102C9C0000BFFDE780B400AF00BFFDE780B400AF1C
:102CAC0000BFFDE780B400AF00BFBD4680BC7047DD
:102CBC0080B400AF00BFBD4680BC704780B400AF8D
:102CCC0000BFBD4680BC704780B500AF00F076FEFB
:102CDC0000BF80BD80B500AF024801F02BF900BFEA
:102CEC0080BD00BFB402002080B500AF024802F0E6
:102CFC0029FB00BF80BD00BF6C02002080B500AF77
:102D0C00024803F0BFFA00BF80BD00BFF8020020EC
:102D1C0080B586B000AF7860144A154BD31A7B612E
:102D2C007B693B61134B1B68002B02D1114B124A80
:102D3C001A60104B1A687B6813443A699A4207D29E
:102D4C0004F048F803460C221A604FF0FF3309E0F8
:102D5C00084B1B68FB60074B1A687B681344054AD9
:102D6C001360FB6818461837BD4680BD0050002024
:102D7C000004000034040020D015002080B400AF03
:102D8C0000BFBD4680BC704780B500AF124B93F8B6
:102D9C003433002B01D000231CE04FF44E72002181
:102DAC000D4804F00FF800F0A7FB01220B490C486A
:102DBC0003F043FA0346002B01D001230AE000F094
:102DCC000FFE0346044AC2F83033034B012283F84A
:102DDC0034230023184680BD380400206D070020E2
:102DEC00F802002080B5ADF5067D00AF07F506733F
:102DFC00A3F506731960114607F50673A3F21123A8
:102E0C0002461A7007F50673A3F212230A461A70CB
:102E1C00744B93F8343383F00103DBB2002B01D0F5
:102E2C000123DAE00023A7F8163207F50673A3F5A1
:102E3C00847302221A7007F50673A3F5847307F5E1
:102E4C000672A2F2112212785A7007F50673A3F5D6
:102E5C00847307F50672A2F2122212789A7007F5A3
:102E6C000673A3F506731B68002B16D007F50673C3
:102E7C00A3F212231B78002B0FD007F50673A3F2D5
:102E8C001223197807F50673A3F5067307F58872F4
:102E9C00D01C0A46196803F0C9FF07F58873184659
:102EAC0000F040FB03461A4607F50673A3F584733E
:102EBC0083F8032107F50673A3F58473032283F8C3
:102ECC000421B7F816325A1CA7F816221A4607F531
:102EDC000673A3F58473197807F50673A3F50473C9
:102EEC009954B7F816325A1CA7F816221A4607F549
:102EFC000673A3F58473597807F50673A3F5047369
:102F0C009954B7F816325A1CA7F816221A4607F528
:102F1C000673A3F58473997807F50673A3F5047308
:102F2C00995407F50673A3F212231B78002B1AD0C1
:102F3C00B7F8163207F10802D01807F50673A3F29A
:102F4C0012231A7807F588730333194603F06EFFC2
:102F5C0007F50673A3F212231B789AB2B7F8163250
:102F6C001344A7F81632B7F816325A1CA7F81622D3
:102F7C001A4607F50673A3F5847393F8031107F546
:102F8C000673A3F504739954B7F816325A1CA7F8B4
:102F9C0016221A4607F50673A3F5847393F80411E9
:102FAC0007F50673A3F504739954B7F8162207F1C5
:102FBC0008031146184600F0D7FA034687F8153275
:102FCC0097F81532002B06D1064BD3F81C3301337E
:102FDC00044AC2F81C3397F81532184607F50677E1
:102FEC00BD4680BD3804002080B586B000AF0346D6
:102FFC00FB716B4B93F8343383F00103DBB2002B82
:10300C0001D00123C8E0664B7B6100F0E9FC38611C
:10301C007B6993F80531002B10D07B69D3F808310C
:10302C003A69D31AB3F57A7F08D900F065FA5C4B8C
:10303C00D3F8283301335A4AC2F828337B6993F802
:10304C000531052B00F2A18001A252F823F000BF3C
:10305C007530000895300008A5300008CD30000808
:10306C002131000833310008FB79022B40F09080AD
:10307C007B69FA791A707B69012283F805217B69D7
:10308C003A69C3F8082183E07B69FA795A707B6945
:10309C00022283F805217EE07B69FA799A707B69BC
:1030AC00002283F80621FB79002B04D07B690322D4
:1030BC0083F805216FE07B69042283F805216AE01F
:1030CC007B6993F806217B699B789A4218D27B69BD
:1030DC0093F806315A1CD1B27A6982F806111A4655
:1030EC007B691344FA79DA707B6993F806217B6962
:1030FC009B789A424ED37B69042283F8052149E0E0
:10310C0000F0FAF9264BD3F82C330133244AC2F8D9
:10311C002C333FE07B69FA7983F803217B69052224
:10312C0083F8052137E0FB79032B2BD17B69FA79E6
:10313C0083F804217B69062283F805217B691846F4
:10314C0000F0F0F90346FB737B6993F80331FA7BCB
:10315C009A420DD17B69012283F80C21104BD3F8D4
:10316C00203301330E4AC2F8203300F021FA12E06A
:10317C000B4BD3F824330133094AC2F8243300F043
:10318C00BBF908E000F0B8F905E000F0B5F902E091
:10319C0000BF00E000BF002318461837BD4680BDB5
:1031AC003804002080B483B000AF7860094B93F8EA
:1031BC00343383F00103DBB2002B01D0012304E094
:1031CC00044A7B68C2F81833002318460C37BD46F6
:1031DC0080BC70473804002080B584B000AF034633
:1031EC000A46FB711346BB71FB793B73BB797B734E
:1031FC0007F10C03022219460820FFF7F3FD0346E2
:10320C0018461037BD4680BD80B5C2B000AF07F57B
:10321C008473A3F584731960114607F58473A3F2C4
:10322C00011302461A7007F58473A3F581730A46DD
:10323C001A7007F58473A3F5807307F58472A2F2F4
:10324C00011212781A7007F58473A3F584731B6846
:10325C00002B29D007F58473A3F581731B78002B01
:10326C0022D007F58473A3F581731B78FF2B1BD039
:10327C0007F58473A3F58173197807F58473A3F5A7
:10328C00847307F10802501C0A46196803F0CEFD3E
:10329C0007F58473A3F5817307F58472A2F5817227
:1032AC00127801321A7005E007F58473A3F5817367
:1032BC0001221A7007F58473A3F581731A7807F14C
:1032CC0008031946FF20FFF78DFD0346184607F546
:1032DC008477BD4680BD000080B582B000AF00F0A1
:1032EC007FFB0346074AA2FB03239B097B603B1D24
:1032FC00042219460720FFF775FD034618460837C8
:10330C00BD4680BDD34D621080B582B000AF1B4B63
:10331C0093F8343383F00103DBB2002B2AD100F095
:10332C005FFB7860154BD3F830337A68D31A41F2CF
:10333C008732934205D9FFF7CFFF104A7B68C2F85A
:10334C0030330E4B3B603B6893F80531002B12D0A9
:10335C003B68D3F808317A68D31AB3F57A7F0AD967
:10336C0000F0CAF8054BD3F828330133034AC2F8EE
:10337C00283300E000BF0837BD4680BD380400206C
:10338C0080B582B000AF78607B68002B01D101233F
:10339C0005E0482279680120FFF724FD0346184612
:1033AC000837BD4680BD90B585B000AF04460846D1
:1033BC0011461A462346FB710346BB710B467B71C3
:1033CC0013463B71FB793B72BB797B727B79BB7289
:1033DC003B79FB7200F004FB0346FB6007F108032A
:1033EC00082219460A20FFF7FDFC0346184614373D
:1033FC00BD4690BD80B586B000AF00F0F1FA034633
:10340C000E4AA2FB03239B097B600D4BBB6000F0B3
:10341C00E9F80346FB6000F0EDF803463B74C82363
:10342C007B821E23BB823B1D142219460520FFF70D
:10343C00D9FC034618461837BD4680BDD34D6210E3
:10344C000100000180B584B000AF78607B68002B70
:10345C0001D101230BE07868FCF772FE0346FB7385
:10346C00FB7B1A4679680920FFF7BCFC034618461B
:10347C001037BD4680BD90B585B000AF04460846F8
:10348C0011461A462346FB710346BB710B46BB80A3
:10349C001346FB70FB793B72BB797B72BB887B81DB
:1034AC00FB783B7307F10803062219460E20FFF741
:1034BC0099FC034618461437BD4690BD80B582B0C2
:1034CC0000AF78607B68094A93420AD1084B93F8A5
:1034DC0035331846FFF788FD01220649034802F0F0
:1034EC00ACFE00BF0837BD4680BD00BFF80200200F
:1034FC00380400206D07002080B582B000AF084B67
:10350C007B604FF488720021786803F05BFC7B6869
:10351C00002283F8052100BF0837BD4680BD00BFDF
:10352C003804002080B485B000AF78607B685A788E
:10353C007B689B785340FB730023BB7309E0BB7B18
:10354C007A681344DA78FB7B5340FB73BB7B013303
:10355C00BB737B689B78BA7B9A42F0D3FB7B184693
:10356C001437BD4680BC704780B584B000AF78601E
:10357C000B467B807B68002B02D07B88002B01D113
:10358C0001230EE07A884FF47A737968074802F0C9
:10359C00C9FD0346FB73FB7B002B14BF01230023E7
:1035AC00DBB218461037BD4680BD00BFF8020020C4
:1035BC0080B582B000AF0A4BD3F81833002B0BD078
:1035CC00074B7B60064BD3F818337A6850787A68CF
:1035DC00D11C7A689278984700BF0837BD4680BDE9
:1035EC003804002080B400AF4FF480631846BD4609
:1035FC0080BC704780B400AF19231846BD4680BC10
:10360C007047000080B582B000AF184B1B68B3F157
:10361C00804F01D0012324E04FF44562002114486F
:10362C0003F0D0FBC0220021124803F0CBFB4FF477
:10363C00C063FB8007E0FB880D4A002122F81310C1
:10364C00FB880133FB80FB88B3F5C56FF3D30A4BC2
:10365C00FF221A70084B00225A70074B01229A70F5
:10366C00002318460837BD4680BD00BF6C02002001
:10367C0070070020C01300202800002080B485B003
:10368C0000AF03463A60FB710B46BB71124B9B7843
:10369C00002B01D101231AE0FB79072B02D8BB794F
:1036AC00072B01D9012312E0FB79DB00DAB2BB79DD
:1036BC001344FB73FA7B094913465B0013440B4418
:1036CC001A463B4619889B78118093700023184644
:1036DC001437BD4680BC704728000020C013002062
:1036EC0080B500AF064B9B78002B01D1012305E080
:1036FC00C0220021034803F065FB0023184680BD5F
:10370C0028000020C013002080B500AF114B9B781F
:10371C00002B01D101231AE00E4B5B78002B01D05A
:10372C00022314E000F060F80A4B01225A704FF4A7
:10373C00C563094A0021094801F09CFB0346002B94
:10374C0004D0044B00225A70012300E000231846D9
:10375C0080BD00BF28000020700700206C020020F4
:10376C0080B485B000AF7860104B9B78002B01D1F2
:10377C00012315E00023FB730EE0FA7B0C49134682
:10378C005B0013440B441A463B1D19889B7811802F
:10379C009370FB7B0133FB73FB7B3F2BEDD9002339
:1037AC0018461437BD4680BC704700BF2800002067
:1037BC00C013002080B582B000AF78607B681B68B6
:1037CC00064A934206D10021054801F0F5FC054B51
:1037DC0000225A7000BF0837BD4680BD5800024019
:1037EC006C0200202800002080B485B000AF0023BC
:1037FC00FB8100237B7366E07A7B374913465B00C1
:10380C0013440B441B781A46344B1B7802FB03F30E
:10381C001B12BB727A7B304913465B0013440B447A
:10382C0001331B781A462D4B1B7802FB03F31B123A
:10383C007B727A7B284913465B0013440B4402339A
:10384C001B781A46254B1B7802FB03F31B123B72A9
:10385C007B7A3B71BB7A7B713B7ABB7100233B73E8
:10386C002BE00723FB7221E03B7B10333B4413F826
:10387C000C3C1A4697F90B3042FA03F303F00103A0
:10388C00002B05D0FB89164A3A2122F8131004E0CC
:10389C00FB89134A1D2122F81310FB890133FB818C
:1038AC0097F90B30DBB2013BDBB2FB7297F90B30B3
:1038BC00002BD9DA3B7B01333B733B7B022BD0D9FA
:1038CC007B7B01337B737B7B3F2B95D900BF00BF88
:1038DC001437BD4680BC7047C01300202800002060
:1038EC0070070020FFF74AFA0B480C490C4A0023DA
:1038FC0002E0D458C4500433C4188C42F9D3094A9A
:10390C00094C002301E013600432A242FBD303F004
:10391C0067FAFDF709FC70470000002084000020C6
:10392C00447B000884000020CC150020FEE700003A
:10393C0080B500AF084B1B68074A43F010031360B7
:10394C00032000F047F90F2000F008F8FFF790F87B
:10395C000023184680BD00BF0020024080B582B015
:10396C0000AF7860124B1A68124B1B7819464FF453
:10397C007A73B3FBF1F3B2FBF3F3184600F05FF983
:10398C000346002B01D001230EE07B680F2B0AD8D5
:10399C00002279684FF0FF3000F027F9064A7B6867
:1039AC001360002300E0012318460837BD4680BD94
:1039BC0024000020300000202C00002080B400AF38
:1039CC00054B1B781A46054B1B681344034A1360BE
:1039DC0000BFBD4680BC7047300000208014002022
:1039EC0080B400AF024B1B681846BD4680BC7047C4
:1039FC008014002080B584B000AF7860FFF7F0FF32
:103A0C00B8607B68FB60FB68B3F1FF3F05D00A4BE5
:103A1C001B781A46FB681344FB6000BFFFF7E0FFFE
:103A2C000246BB68D31AFA689A42F7D800BF00BFA7
:103A3C001037BD4680BD00BF3000002080B485B07B
:103A4C0000AF78607B6803F00703FB600C4BDB680E
:103A5C00BB60BA684FF6FF031340BB60FB681A02E9
:103A6C00BB68134343F0BF6343F40033BB60044AA9
:103A7C00BB68D36000BF1437BD4680BC704700BF25
:103A8C0000ED00E080B400AF044BDB681B0A03F0D0
:103A9C0007031846BD4680BC704700BF00ED00E030
:103AAC0080B483B000AF0346FB7197F90730002B4D
:103ABC000BDBFB7903F01F02064997F907305B0912
:103ACC00012000FA02F241F8232000BF0C37BD465A
:103ADC0080BC704700E100E080B483B000AF0346C7
:103AEC003960FB7197F90730002B0ADB3B68DAB2BF
:103AFC000C4997F907301201D2B20B4483F800231A
:103B0C000AE03B68DAB20849FB7903F00F03043B87
:103B1C001201D2B20B441A7600BF0C37BD4680BCE2
:103B2C00704700BF00E100E000ED00E080B489B018
:103B3C0000AFF860B9607A60FB6803F00703FB61C3
:103B4C00FB69C3F10703042B28BF0423BB61FB698A
:103B5C000433062B02D9FB69033B00E000237B6195
:103B6C004FF0FF32BB6902FA03F3DA43BB681A4029
:103B7C007B699A404FF0FF317B6901FA03F3D9431B
:103B8C007B680B40134318462437BD4680BC7047F6
:103B9C0080B582B000AF78607B68013BB3F1807F69
:103BAC0001D301230FE00A4A7B68013B53600F21CC
:103BBC004FF0FF30FFF790FF054B00229A60044B4B
:103BCC0007221A60002318460837BD4680BD00BF87
:103BDC0010E000E080B582B000AF78607868FFF745
:103BEC002DFF00BF0837BD4680BD80B586B000AF45
:103BFC000346B9607A60FB7300237B61FFF742FFD9
:103C0C0078617A68B9687869FFF790FF024697F98E
:103C1C000F3011461846FFF75FFF00BF1837BD463F
:103C2C0080BD80B582B000AF0346FB7197F90730B9
:103C3C001846FFF735FF00BF0837BD4680BD80B57D
:103C4C0082B000AF78607868FFF7A2FF0346184691
:103C5C000837BD4680BD000080B485B000AF7860E9
:103C6C000023FB607B68002B01D1012343E07B68C0
:103C7C001B681A46224B1344224AA2FB03231B093E
:103C8C009A007B681A647B681F4ADA637B6802229D
:103C9C0083F821207B681B681B68FB60FB6823F49E
:103CAC007F5323F03003FB607B685A687B689B680A
:103CBC001A437B68DB681A437B681B691A437B6871
:103CCC005B691A437B689B691A437B68DB69134306
:103CDC00FA681343FB607B681B68FA681A607B68A0
:103CEC0000229A637B68012283F821207B680022E2
:103CFC0083F82020002318461437BD4680BC70473B
:103D0C00F8FFFDBFCDCCCCCC0000024080B586B016
:103D1C0000AFF860B9607A603B600023FB75FB680C
:103D2C0093F82030012B01D102234BE0FB680122D8
:103D3C0083F82020FB6893F82130DBB2012B3AD1B9
:103D4C00FB68022283F82120FB6800229A63FB683F
:103D5C001B681A68FB681B6822F001021A603B683A
:103D6C007A68B968F86800F0EBF9FB68DB6A002B3D
:103D7C0008D0FB681B681A68FB681B6842F00E02CF
:103D8C001A600FE0FB681B681A68FB681B6822F05E
:103D9C0004021A60FB681B681A68FB681B6842F017
:103DAC000A021A60FB681B681A68FB681B6842F001
:103DBC0001021A6005E0FB68002283F82020022330
:103DCC00FB75FB7D18461837BD4680BD80B485B0A9
:103DDC0000AF78600023FB737B6893F82130DBB273
:103DEC00022B08D07B6804229A637B68002283F83C
:103DFC002020012320E07B681B681A687B681B6805
:103E0C0022F00E021A607B681B681A687B681B68BC
:103E1C0022F001021A607B681A6C7B68DB6B012153
:103E2C0001FA02F25A607B68012283F821207B6838
:103E3C00002283F82020FB7B18461437BD4680BC3B
:103E4C007047000080B584B000AF78600023FB732E
:103E5C007B6893F82130DBB2022B05D07B680422FF
:103E6C009A630123FB7351E07B681B681A687B68BB
:103E7C001B6822F00E021A607B681B681A687B684C
:103E8C001B6822F001021A607B681B68224A93426D
:103E9C0029D07B681B68214A934222D07B681B681F
:103EAC001F4A93421AD07B681B681E4A934212D059
:103EBC007B681B681C4A93420AD07B681B681B4AB0
:103ECC00934202D14FF480130EE04FF080730BE05D
:103EDC004FF4803308E04FF4805305E04FF48073C7
:103EEC0002E0102300E00123114A53607B68012299
:103EFC0083F821207B68002283F820207B685B6B91
:103F0C00002B03D07B685B6B78689847FB7B18466B
:103F1C001037BD4680BD00BF080002401C000240A7
:103F2C003000024044000240580002406C00024045
:103F3C000000024080B584B000AF78607B68DB6B1A
:103F4C001B68FB607B681B681B68BB607B681B6C19
:103F5C0004229A40FB681340002B4FD0BB6803F03F
:103F6C000403002B4AD07B681B681B6803F02003FA
:103F7C00002B07D17B681B681A687B681B6822F0D2
:103F8C0004021A607B681B68664A934229D07B68DE
:103F9C001B68654A934222D07B681B68634A934234
:103FAC001AD07B681B68624A934212D07B681B68EC
:103FBC00604A93420AD07B681B685F4A934202D1E5
:103FCC004FF480030EE04FF080630BE04FF480233E
:103FDC0008E04FF4804305E04FF4806302E0402397
:103FEC0000E00423554A53607B68DB6A002B00F029
:103FFC0094807B68DB6A786898478EE07B681B6CE2
:10400C0002229A40FB681340002B56D0BB6803F089
:10401C000203002B51D07B681B681B6803F0200344
:10402C00002B0BD17B681B681A687B681B6822F01D
:10403C000A021A607B68012283F821207B681B68C6
:10404C00384A934229D07B681B68374A934222D066
:10405C007B681B68354A93421AD07B681B68344ACC
:10406C00934212D07B681B68324A93420AD07B6819
:10407C001B68314A934202D14FF400130EE04FF00B
:10408C0000730BE04FF4003308E04FF4005305E0ED
:10409C004FF4007302E0202300E00223274A536010
:1040AC007B68002283F820207B689B6A002B34D02D
:1040BC007B689B6A786898472FE07B681B6C0822AA
:1040CC009A40FB681340002B28D0BB6803F0080310
:1040DC00002B23D07B681B681A687B681B6822F056
:1040EC000E021A607B681A6C7B68DB6B012101FA8B
:1040FC0002F25A607B6801229A637B68012283F882
:10410C0021207B68002283F820207B681B6B002B0E
:10411C0004D07B681B6B7868984700BF00BF1037D2
:10412C00BD4680BD080002401C0002403000024029
:10413C0044000240580002406C0002400000024063
:10414C0080B485B000AFF860B9607A603B60FB6802
:10415C001A6CFB68DB6B012101FA02F25A60FB68F6
:10416C001B683A685A60FB685B68102B08D1FB68C7
:10417C001B687A689A60FB681B68BA68DA6007E0AB
:10418C00FB681B68BA689A60FB681B687A68DA601F
:10419C0000BF1437BD4680BC7047000080B48BB0A4
:1041AC0000AF7860396000237B6200233B6269E1D9
:1041BC0001227B6A02FA03F3FB613B681B68FA6914
:1041CC001340BB61BA69FB699A4240F058813B6865
:1041DC005B689A4A93425ED0984A934275D8984A43
:1041EC00934258D0964A93426FD8964A934252D0F3
:1041FC00944A934269D8944A93424CD0924A93423F
:10420C0063D8924A934246D0904A93425DD8122B7F
:10421C002AD8122B59D801A252F823F0A342000835
:10422C007D4200088F420008D1420008D7420008A6
:10423C00D7420008D7420008D7420008D7420008EE
:10424C00D7420008D7420008D7420008D7420008DE
:10425C00D7420008D7420008D7420008D7420008CE
:10426C008542000899420008794A934213D02CE009
:10427C003B68DB683B6229E03B68DB6804333B62EC
:10428C0024E03B68DB6808333B621FE03B68DB687B
:10429C000C333B621AE03B689B68002B02D1042371
:1042AC003B6213E03B689B68012B05D108233B6202
:1042BC007B68FA691A6109E008233B627B68FA693A
:1042CC005A6103E000233B6200E000BFBB69FF2B97
:1042DC0001D87B6801E07B6804337B61BB69FF2BF1
:1042EC0002D87B6A9B0002E07B6A083B9B003B6127
:1042FC007B691A680F213B6901FA03F3DB431A400F
:10430C00396A3B6901FA03F31A437B691A603B680B
:10431C005B6803F08053002B00F0B1804D4B9B6920
:10432C004C4A43F0010393614A4B9B6903F0010330
:10433C00BB60BB68484A7B6A9B08023352F8233047
:10434C00FB607B6A03F003039B000F2202FA03F36A
:10435C00DB43FA681340FB607B68404A934213D0FE
:10436C007B683F4A93420DD07B683E4A934207D00C
:10437C007B683D4A934201D1032306E0042304E009
:10438C00022302E0012300E000237A6A02F0030218
:10439C0092009340FA681343FB602F497B6A9B0899
:1043AC000233FA6841F823203B685B6803F48013FE
:1043BC00002B06D02D4B9A682C49BB6913438B609C
:1043CC0006E02A4B9A68BB69DB43284913408B6093
:1043DC003B685B6803F40013002B06D0234BDA68B0
:1043EC002249BB691343CB6006E0204BDA68BB69FA
:1043FC00DB431E491340CB603B685B6803F400331E
:10440C00002B06D0194B5A681849BB6913434B60F3
:10441C0006E0164B5A68BB69DB43144913404B60EA
:10442C003B685B6803F48033002B21D00F4B1A6878
:10443C000E49BB6913430B6021E000BF0000321032
:10444C00000031100000221000002110000012109A
:10445C000000111000100240000001400008014053
:10446C00000C014000100140001401400004014008
:10447C000B4B1A68BB69DB43094913400B607B6A21
:10448C0001337B623B681A687B6A22FA03F3002BC8
:10449C007FF48EAE00BF00BF2C37BD4680BC70478A
:1044AC000004014080B485B000AF78600B467B807F
:1044BC007B689A687B881340002B02D00123FB7326
:1044CC0001E00023FB73FB7B18461437BD4680BC10
:1044DC00704780B483B000AF78600B467B80134686
:1044EC007B707B78002B03D07A887B681A6103E0A1
:1044FC007B881A047B681A6100BF0C37BD4680BCF0
:10450C007047000080B586B000AF78607B68002BE8
:10451C0001D1012372E27B681B6803F00103002BBD
:10452C0000F08780924B5B6803F00C03042B0CD0DB
:10453C008F4B5B6803F00C03082B12D18C4B5B6820
:10454C0003F48033B3F5803F0BD1894B1B6803F424
:10455C000033002B6CD07B685B68002B68D1012387
:10456C004CE27B685B68B3F5803F06D1804B1B68DF
:10457C007F4A43F4803313602EE07B685B68002B2A
:10458C000CD17B4B1B687A4A23F480331360784B35
:10459C001B68774A23F4802313601DE07B685B68FB
:1045AC00B3F5A02F0CD1724B1B68714A43F48023D6
:1045BC0013606F4B1B686E4A43F4803313600BE03F
:1045CC006B4B1B686A4A23F480331360684B1B687F
:1045DC00674A23F4802313607B685B68002B13D03D
:1045EC00FFF7FEF9386108E0FFF7FAF902463B697C
:1045FC00D31A642B01D9032300E25D4B1B6803F42F
:10460C000033002BF0D014E0FFF7EAF9386108E032
:10461C00FFF7E6F902463B69D31A642B01D9032351
:10462C00ECE1534B1B6803F40033002BF0D100E09A
:10463C0000BF7B681B6803F00203002B63D04C4B5C
:10464C005B6803F00C03002B0BD0494B5B6803F049
:10465C000C03082B1CD1464B5B6803F48033002BF6
:10466C0016D1434B1B6803F00203002B05D07B686B
:10467C001B69012B01D00123C0E13D4B1B6823F0CA
:10468C00F8027B685B69DB00394913430B603AE045
:10469C007B681B69002B20D0364B01221A60FFF778
:1046AC009FF9386108E0FFF79BF902463B69D31A82
:1046BC00022B01D90323A1E12D4B1B6803F002034C
:1046CC00002BF0D02A4B1B6823F0F8027B685B6947
:1046DC00DB00274913430B6015E0264B00221A60C0
:1046EC00FFF77EF9386108E0FFF77AF902463B697B
:1046FC00D31A022B01D9032380E11D4B1B6803F055
:10470C000203002BF0D17B681B6803F00803002B1D
:10471C003AD07B689B69002B19D0174B01221A6089
:10472C00FFF75EF9386108E0FFF75AF902463B697A
:10473C00D31A022B01D9032360E10D4B5B6A03F002
:10474C000203002BF0D0012000F0CEFA1CE00A4B43
:10475C0000221A60FFF744F938610FE0FFF740F9C7
:10476C0002463B69D31A022B08D9032346E100BF4A
:10477C00001002400000424280044242924B5B6AAD
:10478C0003F00203002BE9D17B681B6803F00403E0
:10479C00002B00F0A6800023FB758B4BDB6903F02C
:1047AC008053002B0DD1884BDB69874A43F0805333
:1047BC00D361854BDB6903F08053BB60BB6801237D
:1047CC00FB75824B1B6803F48073002B18D17F4B55
:1047DC001B687E4A43F480731360FFF701F938615C
:1047EC0008E0FFF7FDF802463B69D31A642B01D9A8
:1047FC00032303E1754B1B6803F48073002BF0D08B
:10480C007B68DB68012B06D16F4B1B6A6E4A43F049
:10481C00010313622DE07B68DB68002B0CD16A4B23
:10482C001B6A694A23F001031362674B1B6A664AD1
:10483C0023F0040313621CE07B68DB68052B0CD1AE
:10484C00614B1B6A604A43F0040313625E4B1B6AA4
:10485C005D4A43F0010313620BE05B4B1B6A5A4A3F
:10486C0023F001031362584B1B6A574A23F00403CD
:10487C0013627B68DB68002B15D0FFF7B1F8386149
:10488C000AE0FFF7ADF802463B69D31A41F28832D1
:10489C00934201D90323B1E04B4B1B6A03F0020393
:1048AC00002BEED014E0FFF79BF838610AE0FFF71D
:1048BC0097F802463B69D31A41F28832934201D9E8
:1048CC0003239BE0404B1B6A03F00203002BEED149
:1048DC00FB7D012B05D13C4BDB693B4A23F080531C
:1048EC00D3617B68DB69002B00F08780364B5B68FB
:1048FC0003F00C03082B61D07B68DB69022B46D1DB
:10490C00334B00221A60FFF76BF8386108E0FFF7B1
:10491C0067F802463B69D31A022B01D903236DE0D9
:10492C00294B1B6803F00073002BF0D17B681B6ACA
:10493C00B3F5803F08D1244B5B6823F400327B68CD
:10494C009B68214913434B601F4B5B6823F4741223
:10495C007B68196A7B685B6A0B431B4913434B608A
:10496C001B4B01221A60FFF73BF8386108E0FFF798
:10497C0037F802463B69D31A022B01D903233DE0D9
:10498C00114B1B6803F00073002BF0D035E0104B7B
:10499C0000221A60FFF724F8386108E0FFF720F8CE
:1049AC0002463B69D31A022B01D9032326E0064B9E
:1049BC001B6803F00073002BF0D11EE07B68DB69F1
:1049CC00012B07D1012319E00010024000700040B8
:1049DC00600042420B4B5B68FB60FB6803F4803267
:1049EC007B681B6A9A4206D1FB6803F470127B68E1
:1049FC005B6A9A4201D0012300E000231846183765
:104A0C00BD4680BD0010024080B584B000AF786018
:104A1C0039607B68002B01D10123D0E06A4B1B6805
:104A2C0003F007033A689A4210D9674B1B6823F0CE
:104A3C00070265493B6813430B60634B1B6803F02B
:104A4C0007033A689A4201D00123B8E07B681B68DF
:104A5C0003F00203002B20D07B681B6803F00403D7
:104A6C00002B05D0594B5B68584A43F4E063536004
:104A7C007B681B6803F00803002B05D0534B5B6865
:104A8C00524A43F460535360504B5B6823F0F0027E
:104A9C007B689B684D4913434B607B681B6803F034
:104AAC000103002B40D07B685B68012B07D1474B7F
:104ABC001B6803F40033002B15D101237FE07B68C6
:104ACC005B68022B07D1414B1B6803F00073002B72
:104ADC0009D1012373E03D4B1B6803F00203002B4B
:104AEC0001D101236BE0394B5B6823F003027B6837
:104AFC005B68364913434B60FEF772FFF8600AE0BF
:104B0C00FEF76EFF0246FB68D31A41F288329342DD
:104B1C0001D9032353E02D4B5B6803F00C027B6837
:104B2C005B689B009A42EBD1274B1B6803F0070391
:104B3C003A689A4210D2244B1B6823F00702224990
:104B4C003B6813430B60204B1B6803F007033A6868
:104B5C009A4201D0012332E07B681B6803F0040306
:104B6C00002B08D0194B5B6823F4E0627B68DB6890
:104B7C00164913434B607B681B6803F00803002B3A
:104B8C0009D0124B5B6823F460527B681B69DB0015
:104B9C000E4913434B6000F021F802460B4B5B6847
:104BAC001B0903F00F030A49CB5C22FA03F3094AF1
:104BBC001360094B1B681846FEF7D0FE00231846FD
:104BCC001037BD4680BD00BF0020024000100240DF
:104BDC00D4790008240000202C00002080B487B079
:104BEC0000AF0023FB600023BB6000237B6100232C
:104BFC007B6000233B611E4B5B68FB60FB6803F032
:104C0C000C03042B02D0082B03D027E0194B3B617B
:104C1C0027E0FB689B0C03F00F03174AD35C7B6007
:104C2C00FB6803F48033002B10D0114B5B685B0CDA
:104C3C0003F00103114AD35CBB607B680D4A03FB94
:104C4C0002F2BB68B2FBF3F37B6104E07B680C4AB5
:104C5C0002FB03F37B617B693B6102E0054B3B612B
:104C6C0000BF3B6918461C37BD4680BC704700BF6F
:104C7C000010024000127A00EC790008FC79000860
:104C8C0000093D0080B400AF024B1B681846BD46BE
:104C9C0080BC70472400002080B500AFFFF7F2FF06
:104CAC000246054B5B681B0A03F007030349CB5C08
:104CBC0022FA03F3184680BD00100240E479000884
:104CCC0080B500AFFFF7DEFF0246054B5B68DB0AE1
:104CDC0003F007030349CB5C22FA03F3184680BDAB
:104CEC0000100240E479000880B485B000AF786011
:104CFC000A4B1B680A4AA2FB03235B0A7A6802FB75
:104D0C0003F3FB6000BFFB685A1EFA60002BF9D15D
:104D1C0000BF00BF1437BD4680BC70472400002084
:104D2C00D34D621080B582B000AF78607B68002BE9
:104D3C0001D1012341E07B6893F83D30DBB2002BBD
:104D4C0006D17B68002283F83C207868FDF7C2FE10
:104D5C007B68022283F83D207B681A687B680433E9
:104D6C001946104600F06EFE7B68012283F846203F
:104D7C007B68012283F83E207B68012283F83F2068
:104D8C007B68012283F840207B68012283F8412054
:104D9C007B68012283F842207B68012283F8432040
:104DAC007B68012283F844207B68012283F845202C
:104DBC007B68012283F83D20002318460837BD4646
:104DCC0080BD80B582B000AF78607B68002B01D1CC
:104DDC00012341E07B6893F83D30DBB2002B06D118
:104DEC007B68002283F83C20786800F039F87B68F7
:104DFC00022283F83D207B681A687B6804331946CD
:104E0C00104600F01FFE7B68012283F846207B6869
:104E1C00012283F83E207B68012283F83F207B68C7
:104E2C00012283F840207B68012283F841207B68B3
:104E3C00012283F842207B68012283F843207B689F
:104E4C00012283F844207B68012283F845207B688B
:104E5C00012283F83D20002318460837BD4680BD4B
:104E6C0080B483B000AF786000BF0C37BD4680BC07
:104E7C007047000080B586B000AFF860B9607A600A
:104E8C007B800023FB75BB68002B09D1FB6893F872
:104E9C003E30DBB2022B0CBF01230023DBB222E03D
:104EAC00BB68042B09D1FB6893F83F30DBB2022BB3
:104EBC000CBF01230023DBB215E0BB68082B09D122
:104ECC00FB6893F84030DBB2022B0CBF01230023AC
:104EDC00DBB208E0FB6893F84130DBB2022B0CBF6D
:104EEC0001230023DBB2002B01D0022353E1BB686A
:104EFC00002B09D1FB6893F83E30DBB2012B0CBFC1
:104F0C0001230023DBB222E0BB68042B09D1FB6830
:104F1C0093F83F30DBB2012B0CBF01230023DBB233
:104F2C0015E0BB68082B09D1FB6893F84030DBB265
:104F3C00012B0CBF01230023DBB208E0FB6893F8C4
:104F4C004130DBB2012B0CBF01230023DBB2002B61
:104F5C0024D07B68002B02D07B88002B01D101234D
:104F6C0019E1BB68002B04D1FB68022283F83E20B8
:104F7C0016E0BB68042B04D1FB68022283F83F20A7
:104F8C000EE0BB68082B04D1FB68022283F840209A
:104F9C0006E0FB68022283F8412001E00123FAE0DD
:104FAC00BB680C2B00F2AE8001A252F823F000BFBC
:104FBC00F14F00081151000811510008115100085F
:104FCC003950000811510008115100081151000806
:104FDC0081500008115100081151000811510008AE
:104FEC00C9500008FB685B6A6D4A9A62FB685B6A91
:104FFC006C4ADA62FB685B6A6B4A1A63FB68586A34
:10500C007968FB681B6834331A467B88FEF77EFE92
:10501C000346002B01D00123BDE0FB681B68DA6856
:10502C00FB681B6842F40072DA606EE0FB689B6AF6
:10503C005B4A9A62FB689B6A5A4ADA62FB689B6A13
:10504C00594A1A63FB68986A7968FB681B6838339D
:10505C001A467B88FEF75AFE0346002B01D001232B
:10506C0099E0FB681B68DA68FB681B6842F4806295
:10507C00DA604AE0FB68DB6A494A9A62FB68DB6AE1
:10508C00484ADA62FB68DB6A474A1A63FB68D86AEB
:10509C007968FB681B683C331A467B88FEF736FE42
:1050AC000346002B01D0012375E0FB681B68DA680E
:1050BC00FB681B6842F40062DA6026E0FB681B6B3D
:1050CC00374A9A62FB681B6B364ADA62FB681B6BC9
:1050DC00354A1A63FB68186B7968FB681B684033A8
:1050EC001A467B88FEF712FE0346002B01D00123E3
:1050FC0051E0FB681B68DA68FB681B6842F480525D
:10510C00DA6002E00123FB7500BFFB7D002B41D16F
:10511C00FB681B680122B968184600F01FFFFB688A
:10512C001B68224A934207D1FB681B685A6CFB68C8
:10513C001B6842F400425A64FB681B681B4A93428A
:10514C000ED0FB681B68B3F1804F09D0FB681B685D
:10515C00174A934204D0FB681B68164A934211D13C
:10516C00FB681B689B6803F007033B613B69062BDC
:10517C0010D0FB681B681A68FB681B6842F00102C0
:10518C001A6007E0FB681B681A68FB681B6842F032
:10519C0001021A60FB7D18461837BD4680BD00BF62
:1051AC0041590008E9590008AF580008002C01408B
:1051BC00000400400008004080B584B000AF786067
:1051CC0039600023FB733B680C2B55D801A252F8B5
:1051DC0023F000BF155200088552000885520008C4
:1051EC00855200083152000885520008855200088B
:1051FC00855200084D52000885520008855200085F
:10520C0085520008695200087B681B68DA687B6865
:10521C001B6822F40072DA607B685B6A1846FEF742
:10522C0011FE2CE07B681B68DA687B681B6822F433
:10523C008062DA607B689B6A1846FEF703FE1EE00C
:10524C007B681B68DA687B681B6822F40062DA6092
:10525C007B68DB6A1846FEF7F5FD10E07B681B687F
:10526C00DA687B681B6822F48052DA607B681B6BFF
:10527C001846FEF7E7FD02E00123FB7300BFFB7B42
:10528C00002B57D17B681B6800223968184600F048
:10529C0065FE7B681B682A4A934217D17B681B68A2
:1052AC001A6A41F211131340002B0FD17B681B6853
:1052BC001A6A40F244431340002B07D17B681B68E9
:1052CC005A6C7B681B6822F400425A647B681B682A
:1052DC001A6A41F211131340002B0FD17B681B6823
:1052EC001A6A40F244431340002B07D17B681B68B9
:1052FC001A687B681B6822F001021A603B68002B5D
:10530C0004D17B68012283F83E2013E03B68042B18
:10531C0004D17B68012283F83F200BE03B68082B0B
:10532C0004D17B68012283F8402003E07B680122D2
:10533C0083F84120FB7B18461037BD4680BD00BF6B
:10534C00002C014080B584B000AF78607B681B688E
:10535C00DB68FB607B681B681B69BB60BB6803F088
:10536C000203002B20D0FB6803F00203002B1BD0A0
:10537C007B681B686FF002021A617B6801221A7746
:10538C007B681B689B6903F00303002B03D07868D0
:10539C0000F063FA05E0786800F056FA7868FCF7DC
:1053AC009DF87B6800221A77BB6803F00403002B7E
:1053BC0020D0FB6803F00403002B1BD07B681B6818
:1053CC006FF004021A617B6802221A777B681B68F3
:1053DC009B6903F44073002B03D0786800F03DFA0E
:1053EC0005E0786800F030FA7868FCF777F87B68AD
:1053FC0000221A77BB6803F00803002B20D0FB684F
:10540C0003F00803002B1BD07B681B686FF00802AD
:10541C001A617B6804221A777B681B68DB6903F0CE
:10542C000303002B03D0786800F017FA05E07868C6
:10543C0000F00AFA7868FCF751F87B6800221A77BA
:10544C00BB6803F01003002B20D0FB6803F01003A3
:10545C00002B1BD07B681B686FF010021A617B68F5
:10546C0008221A777B681B68DB6903F44073002BF6
:10547C0003D0786800F0F1F905E0786800F0E4F901
:10548C007868FCF72BF87B6800221A77BB6803F06E
:10549C000103002B0CD0FB6803F00103002B07D099
:1054AC007B681B686FF001021A61786800F0C3F921
:1054BC00BB6803F08003002B0CD0FB6803F0800367
:1054CC00002B07D07B681B686FF080021A6178682C
:1054DC0000F0CFFDBB6803F04003002B0CD0FB6841
:1054EC0003F04003002B07D07B681B686FF0400271
:1054FC001A61786800F0C3F9BB6803F02003002B35
:10550C000CD0FB6803F02003002B07D07B681B68D2
:10551C006FF020021A61786800F0A2FD00BF10370E
:10552C00BD4680BD80B586B000AFF860B9607A60CA
:10553C000023FB75FB6893F83C30012B01D102234F
:10554C00AEE0FB68012283F83C207B680C2B00F258
:10555C009F8001A252F823F0995500089D5600082F
:10556C009D5600089D560008D95500089D56000808
:10557C009D5600089D5600081B5600089D560008B5
:10558C009D5600089D5600085B560008FB681B687A
:10559C00B968184600F0C4FAFB681B689A69FB6886
:1055AC001B6842F008029A61FB681B689A69FB68E9
:1055BC001B6822F004029A61FB681B689969BB683E
:1055CC001A69FB681B680A439A6164E0FB681B68F4
:1055DC00B968184600F00AFBFB681B689A69FB68FF
:1055EC001B6842F400629A61FB681B689A69FB684D
:1055FC001B6822F480629A61FB681B689969BB681E
:10560C001B691A02FB681B680A439A6143E0FB683A
:10561C001B68B968184600F053FBFB681B68DA6915
:10562C00FB681B6842F00802DA61FB681B68DA69E8
:10563C00FB681B6822F00402DA61FB681B68D969FD
:10564C00BB681A69FB681B680A43DA6123E0FB68D4
:10565C001B68B968184600F09DFBFB681B68DA698B
:10566C00FB681B6842F40062DA61FB681B68DA694C
:10567C00FB681B6822F48062DA61FB681B68D969DD
:10568C00BB681B691A02FB681B680A43DA6102E0FB
:10569C000123FB7500BFFB68002283F83C20FB7DD7
:1056AC0018461837BD4680BD80B584B000AF786011
:1056BC0039600023FB737B6893F83C30012B01D1DC
:1056CC000223B4E07B68012283F83C207B68022231
:1056DC0083F83D207B681B689B68BB60BB6823F02C
:1056EC007703BB60BB6823F47F43BB607B681B689C
:1056FC00BA689A603B681B68B3F5005F3ED0B3F59F
:10570C00005F00F28780B3F5805F00F08680B3F510
:10571C00805F7FD8702B1AD0702B7BD8602B50D029
:10572C00602B77D8502B3CD0502B73D8402B58D0B3
:10573C00402B6FD8302B64D0302B6BD8202B60D003
:10574C00202B67D8002B5CD0102B5AD062E07B68E2
:10575C0018683B6899683B685A683B68DB6800F0DE
:10576C00DEFB7B681B689B68BB60BB6843F0770300
:10577C00BB607B681B68BA689A604FE07B681868EE
:10578C003B6899683B685A683B68DB6800F0C7FB6C
:10579C007B681B689A687B681B6842F480429A603D
:1057AC003CE07B6818683B6859683B68DB681A46C4
:1057BC0000F03EFB7B681B685021184600F095FBFF
:1057CC002CE07B6818683B6859683B68DB681A46B4
:1057DC0000F05CFB7B681B686021184600F085FBC1
:1057EC001CE07B6818683B6859683B68DB681A46A4
:1057FC0000F01EFB7B681B684021184600F075FB0F
:10580C000CE07B681A683B681B681946104600F070
:10581C006CFB03E00123FB7300E000BF7B680122FB
:10582C0083F83D207B68002283F83C20FB7B1846E4
:10583C001037BD4680BD80B483B000AF786000BF28
:10584C000C37BD4680BC704780B483B000AF786025
:10585C0000BF0C37BD4680BC704780B483B000AF2E
:10586C00786000BF0C37BD4680BC704780B483B0F5
:10587C0000AF786000BF0C37BD4680BC704780B469
:10588C0083B000AF786000BF0C37BD4680BC70475A
:10589C0080B483B000AF786000BF0C37BD4680BCCD
:1058AC00704780B584B000AF78607B685B6AFB6042
:1058BC00FB685B6A7A689A4207D1FB6801221A7707
:1058CC00FB68012283F83E202AE0FB689B6A7A6819
:1058DC009A4207D1FB6802221A77FB68012283F8EF
:1058EC003F201DE0FB68DB6A7A689A4207D1FB68AF
:1058FC0004221A77FB68012283F8402010E0FB6831
:10590C001B6B7A689A4207D1FB6808221A77FB68EE
:10591C00012283F8412003E0FB68012283F83D203B
:10592C00F868FFF7B5FFFB6800221A7700BF103745
:10593C00BD4680BD80B584B000AF78607B685B6A83
:10594C00FB60FB685B6A7A689A420BD1FB680122A8
:10595C001A777B689B69002B36D1FB68012283F890
:10596C003E2031E0FB689B6A7A689A420BD1FB6857
:10597C0002221A777B689B69002B25D1FB680122D8
:10598C0083F83F2020E0FB68DB6A7A689A420BD1EF
:10599C00FB6804221A777B689B69002B14D1FB6887
:1059AC00012283F840200FE0FB681B6B7A689A4257
:1059BC000AD1FB6808221A777B689B69002B03D1FC
:1059CC00FB68012283F84120F868FBF787FDFB6830
:1059DC0000221A7700BF1037BD4680BD80B584B059
:1059EC0000AF78607B685B6AFB60FB685B6A7A6817
:1059FC009A4203D1FB6801221A7719E0FB689B6A73
:105A0C007A689A4203D1FB6802221A7710E0FB688D
:105A1C00DB6A7A689A4203D1FB6804221A7707E0A2
:105A2C00FB681B6B7A689A4202D1FB6808221A77D2
:105A3C00F868FFF71BFFFB6800221A7700BF1037CE
:105A4C00BD4680BD80B485B000AF786039607B689E
:105A5C001B68FB607B682F4A93420BD07B68B3F1C9
:105A6C00804F07D07B682C4A934203D07B682B4A2B
:105A7C00934208D1FB6823F07003FB603B685B68C2
:105A8C00FA681343FB607B68224A93420BD07B6815
:105A9C00B3F1804F07D07B681F4A934203D07B68D9
:105AAC001E4A934208D1FB6823F44073FB603B68A9
:105ABC00DB68FA681343FB60FB6823F080023B68E9
:105ACC005B691343FB607B68FA681A603B689A68F1
