:020000040800F2
:100000000050002025440008813700088937000887
:100010009137000899370008A13700080000000058
:10002000000000000000000000000000A9370008E8
:10003000B537000800000000C1370008CD370008C0
:100040006D4400086D4400086D4400086D440008CC
:100050006D4400086D4400086D4400086D440008BC
:100060006D4400086D4400086D4400086D440008AC
:100070006D4400086D4400086D440008D93700083D
:100080006D4400086D4400086D4400086D4400088C
:100090006D4400086D4400086D4400086D4400087C
:1000A0006D4400086D4400086D4400086D4400086C
:1000B000ED3700086D4400086D4400086D440008E9
:1000C0006D4400086D4400086D4400086D4400084C
:1000D0006D440008013800086D4400086D440008B4
:1000E0006D4400086D4400086D44000800000000E5
:1000F0000000000000000000000000000000000000
:0C01000000000000000000005FF808F1A3
:10010C0010B5054C237833B9044B13B10448AFF345
:10011C0000800123237010BD880000200000000027
:10012C009882000808B5034B1BB103490348AFF391
:10013C00008008BD000000008C00002098820008A0
:10014C00034613F8012B002AFBD1181A013870470B
:10015C0080B500AF14220021054807F009FC044BC0
:10016C0000221A70024B01221A740023184680BD1B
:10017C00A400002080B500AF134B1B7C83F001035F
:10018C00DBB2002B01D001231CE00F4B01221A70B3
:10019C000D4B00225A800C4B00221A710A4B002284
:1001AC005A71094B00229A71074B0022DA71064BE7
:1001BC0000221A7204F0AEF90346034AD36000F031
:1001CC00DBF80023184680BDA400002080B500AFEA
:1001DC00084B1B7C83F00103DBB2002B01D0012305
:1001EC0005E0044B00221A7000F0C6F800231846F4
:1001FC0080BD00BFA400002080B584B000AF786043
:10020C00384B1B7C83F00103DBB2002B02D17B68E3
:10021C00002B01D1012361E0324B1B78012B01D063
:10022C0001235BE02F4B5B790133DAB22D4B5A7112
:10023C00786802F00DFF0346FB737B6893F841303E
:10024C00BB73FB7B012B11D1264B9B790133DAB2AB
:10025C00244B9A71234B00221A71224B5A88BB7B78
:10026C009BB213449AB21F4B5A8020E0FB7B022BAB
:10027C000CD11C4BDB790133DAB21A4BDA71194B06
:10028C001B790133DAB2174B1A7110E0154B1B7A3C
:10029C000133DAB2134B1A72124B00221A71114B42
:1002AC005A88BB7B9BB213449AB20E4B5A8000F017
:1002BC0085F800F061F80B4B1B78022B04D102205F
:1002CC0000F096F8022309E0064B1B78032B04D1AF
:1002DC00032000F08DF8032300E0002318461037AC
:1002EC00BD4680BDA400002080B400AF024B1B783B
:1002FC001846BD4680BC7047A400002080B400AFF7
:10030C00024B5B881846BD4680BC7047A400002099
:10031C0080B400AF024B1B791846BD4680BC7047B9
:10032C00A400002080B400AF024B5B791846BD4698
:10033C0080BC7047A400002080B400AF054B5B88E4
:10034C00312B8CBF01230023DBB21846BD4680BC89
:10035C00704700BFA400002080B400AF054B1B7990
:10036C00012B8CBF01230023DBB21846BD4680BC99
:10037C00704700BFA400002080B582B000AF0023FE
:10038C00FB710D4B1B78022B02D10123FB7105E095
:10039C00094B1B78032B01D10223FB71064B987977
:1003AC00054BD979044B5A88FB7903F0E0FD002307
:1003BC0018460837BD4680BDA400002080B500AFAC
:1003CC00FFF7BAFF0346002B03D0084B02221A702A
:1003DC000BE0FFF7C1FF0346002B03D0034B0322B6
:1003EC001A7002E0014B01221A7080BDA40000209B
:1003FC0080B584B000AF0346FB71FB79022B0CD1A6
:10040C0000233B73FF237B730023BB734FF47A727F
:10041C00F9680B4800F022FE0EE0FB79032B0BD1A0
:10042C00FF233B7200237B720023BB724FF47A7262
:10043C00B968044800F012FE00BF1037BD4680BDFD
:10044C00B0820008B48200080EB480B5C7B000AF0B
:10045C00024607F58C73A3F211131A70D7F82431E6
:10046C00002B01D1002332E007F5947207F58C7351
:10047C00A3F586731A6007F58C73A3F5867307F1E1
:10048C0010001B68D7F824214FF4807107F062FA32
:10049C00C7F81401D7F81431002B17DDD7F8143135
:1004AC00FF2B13DCD7F814319AB207F11001642337
:1004BC000B4806F0D1FB034687F8133197F813313C
:1004CC00002B0CBF01230023DBB200E000231846F5
:1004DC0007F58E77BD46BDE8804003B0704700BF7E
:1004EC00FC02002080B584B000AF78607B68002BE4
:1004FC0001D1002317E07868FFF722FE0346FB8149
:10050C00FB89002B0ED0FA8964237968084806F021
:10051C00A3FB03467B737B7B002B0CBF01230023C7
:10052C00DBB200E0002318461037BD4680BD00BF8B
:10053C00FC02002080B500AF0748FFF7D3FF074847
:10054C00FFF7D0FF0648FFF7CDFF0348FFF7CAFFC0
:10055C000123184680BD00BFD48200080083000828
:10056C002083000880B500AF0D4B1B7C002B01D005
:10057C00002313E014220021094807F0F9F9084B75
:10058C0000221A70064B00225A7003F0C3FF034678
:10059C00034A5360024B01221A740023184680BD93
:1005AC00B800002080B582B000AF7860144B1B7C83
:1005BC0083F00103DBB2002B02D17B68002B01D14D
:1005CC00012318E00E4B1B78002B05D00C4B1B782D
:1005DC00032B01D002230EE0786802F045FB084B98
:1005EC000022DA60064B00229A60012000F0ACF980
:1005FC0000F0C2F9002318460837BD4680BD00BF85
:10060C00B800002080B500AF0D4B1B7C83F00103BC
:10061C00DBB2002B01D0012310E0094B1B78012B1E
:10062C0001D002230AE003F075FF0346044A9360ED
:10063C00022000F089F900F09FF90023184680BDD4
:10064C00B800002080B582B000AF144B1B7C83F047
:10065C000103DBB2002B01D001231BE00F4B1B78F5
:10066C00022B01D0022315E003F054FF02460B4B82
:10067C009B68D31A7B60094BDA687B681344074A82
:10068C00D360064B00229A60012000F05DF900F067
:10069C0073F9002318460837BD4680BDB80000200A
:1006AC0080B584B000AF78601E4B1B7C83F00103D7
:1006BC00DBB2002B02D17B68002B01D101232CE093
:1006CC00184B1B78012B05D0164B1B78022B01D035
:1006DC00022322E0134B1B78022B0FD103F01AFFDD
:1006EC000246104B9B68D31AFB600E4BDA68FB6812
:1006FC0013440C4AD3600B4B00229A607B6893F82E
:10070C004330002B03D17B68032283F84320032062
:10071C0000F01AF900F030F9002318461037BD46E6
:10072C0080BD00BFB800002080B582B000AF7860FB
:10073C000F4B1B7C83F00103DBB2002B02D17B68D7
:10074C00002B01D101230EE0786802F076FD084BF6
:10075C000022DA60064B00229A60002000F0F4F8C8
:10076C0000F00AF9002318460837BD4680BD00BFCB
:10077C00B800002080B584B000AF03463960FB712F
:10078C00214B1B7C83F00103DBB2002B02D13B68B5
:10079C00002B01D1012333E00023FB73FB79013BD8
:1007AC00042B29D801A252F823F000BFCD07000872
:1007BC00D9070008E3070008ED070008F90700084F
:1007CC003868FFF7EFFE0346FB7318E0FFF71AFFDC
:1007DC000346FB7313E0FFF735FF0346FB730EE094
:1007EC003868FFF75DFF0346FB7308E03868FFF7D6
:1007FC009BFF0346FB7302E00323FB7300BFFB7BF1
:10080C0018461037BD4680BDB800002080B584B0B6
:10081C0000AF03463960FB712F4B1B7C83F0010347
:10082C00DBB2002B02D13B68002B01D100234EE040
:10083C000023FB730123BB73FB790F2B3ED801A262
:10084C0052F823F091080008C9080008C9080008EC
:10085C00C9080008C9080008C9080008C908000828
:10086C00C9080008C9080008C9080008C908000818
:10087C00C90800089D080008BD080008A708000862
:10088C00B10800083868FFF78DFE0346FB7318E0CB
:10089C00FFF7B8FE0346FB7313E0FFF7D3FE0346E6
:1008AC00FB730EE03868FFF7FBFE0346FB7308E0B2
:1008BC003868FFF739FF0346FB7302E00023BB7374
:1008CC0000BFFB7B022B01D10123BB73BB7B184602
:1008DC001037BD4680BD00BFB800002080B400AF0B
:1008EC00024B1846BD4680BC704700BFB8000020C4
:1008FC0080B483B000AF0346FB71FB79032B13D894
:10090C0001A252F823F000BF2509000829090008AC
:10091C002D09000831090008064B06E0064B04E0DF
:10092C00064B02E0064B00E0064B18460C37BD4662
:10093C0080BC7047C0830008C8830008D0830008BF
:10094C00D8830008E083000880B582B000AF03466E
:10095C00FB71084B1A78074B5A70064AFB791370D7
:10096C0003F0D8FD0346034A536000BF0837BD4669
:10097C0080BD00BFB800002080B590B000AF094B1F
:10098C001B781846FFF7B4FF03463846064A402149
:10099C0006F07CFF3B46184603F0D0FA00BF403708
:1009AC00BD4680BDB8000020E883000880B582B049
:1009BC0000AF2C4B93F89C31002B01D000234CE062
:1009CC004FF4D0720021274806F0D2FF254B0A22A3
:1009DC00C3F88821234B4FF47A72C3F88C2100237F
:1009EC00FB711EE00023BB7115E0F979BB791A4647
:1009FC0052001A4493001A460B465B000B441B0131
:100A0C001344184A1344BA79F979184600F09CFA41
:100A1C00BB790133BB71BB79032BE6D9FB7901336D
:100A2C00FB71FB79032BDDD900237B7107E07B790C
:100A3C000121184600F0B4F97B7901337B717B7985
:100A4C00032BF4D903F066FD0346064AC2F8903135
:100A5C00044B012283F89C21002318460837BD461D
:100A6C0080BD00BFCC00002080B586B000AF624BCB
:100A7C0093F89C3183F00103DBB2002B40F0B7807C
:100A8C0003F048FD38615C4BD3F8943101335A4A7A
:100A9C00C2F894310023FB7592E00023BB750FE084
:100AAC00BA7DFB7D9A4214BF01230023DBB21A46A8
:100ABC00BB7D1146184600F073F9BB7D0133BB7545
:100ACC00BB7D032BECD9022000F05EFA00237B7572
:100ADC0070E07B7D184600F083F90346FB73FB7BCB
:100AEC00002B0CBF01230023BB73F97D7B7D1A46C1
:100AFC0052001A4493001A460B465B000B441B0130
:100B0C0013443D4A1344BB60BB7B1946B86800F0E4
:100B1C0087F90346002B16D0B86800F0C7F9364B9E
:100B2C00D3F898310133344AC2F89831324BD3F8A8
:100B3C008431002B07D0304BD3F88431BA689278CB
:100B4C00797DF87D9847BB689B78012B2FD1BB7BB7
:100B5C00002B2CD0BB685B683A69D31A7B60264BA0
:100B6C00D3F88C317A689A4221D3BB689B78022BDC
:100B7C001DD0BB689A78BB68DA70BB6802229A7089
:100B8C00B86800F093F91C4BD3F8983101331A4A2A
:100B9C00C2F89831184BD3F88431002B07D0164B80
:100BAC00D3F88431BA689278797DF87D98477B7D4B
:100BBC0001337B757B7D032B8BD9FB7D0133FB755F
:100BCC00FB7D032B7FF669AF00233B7507E03B7D74
:100BDC000121184600F0E4F83B7D01333B753B7D69
:100BEC00032BF4D9044A3B69C2F8903100E000BFF2
:100BFC001837BD4680BD00BFCC00002090B488B033
:100C0C0000AF786007F1140300221A605A609A60F2
:100C1C00254B93F89C3183F00103DBB2002B04D1FC
:100C2C00214B93F88231002B08D17B681C4607F1CD
:100C3C00140393E8070084E807002FE01A4B93F89D
:100C4C0081311946184A0B465B000B449B00134438
:100C5C0003F1C00207F1080307CA83E80700124B2F
:100C6C0093F8813101335A4203F00F0302F00F0263
:100C7C0058BF5342DAB20C4B83F881210A4B93F8DC
:100C8C008231013BDAB2084B83F882217B681C4627
:100C9C0007F1080393E8070084E807007868203719
:100CAC00BD4690BC704700BFCC00002080B483B020
:100CBC0000AF7860094B93F89C3183F00103DBB2F1
:100CCC00002B01D0012304E0044A7B68C2F8843174
:100CDC00002318460C37BD4680BC7047CC00002062
:100CEC0080B582B000AF214B93F89C3183F00103A7
:100CFC00DBB2002B01D0002334E00023FB7107E0B2
:100D0C00FB790021184600F04BF8FB790133FB719D
:100D1C00FB79032BF4D9052000F036F90023BB71C5
:100D2C0000237B710CE07B79184600F059F80346E0
:100D3C00002B02D10123BB7105E07B7901337B7160
:100D4C007B79032BEFD900233B7107E03B79012121
:100D5C00184600F025F83B7901333B713B79032BA6
:100D6C00F4D9BB7918460837BD4680BDCC000020AD
:100D7C0080B582B000AF03F0CDFB7860074B1B68E9
:100D8C007A68D31A042B04D9FFF76EFE034A7B68EA
:100D9C00136000BF0837BD4680BD00BF6C02002049
:100DAC0080B582B000AF03460A46FB711346BB7197
:100DBC00FB79032B0BD8FB79074A52F82300FB79FC
:100DCC00064A32F81330BA79194604F01CF900BF00
:100DDC000837BD4680BD00BF00000020FC9700080E
:100DEC0080B582B000AF0346FB71FB79032B0DD8A5
:100DFC00FB79094A52F82320FB79084931F8133062
:100E0C001946104604F0E8F8034600E001231846A2
:100E1C000837BD4680BD00BF1000002004980008B4
:100E2C0080B584B000AF78600B46FB7003F072FBAA
:100E3C00B8600023FB73FB78002B1DD07B689B787C
:100E4C00002B2DD17B689B68002B03D17B68BA6883
:100E5C009A6025E07B689B68BA68D31A092B1FD966
:100E6C007B680022DA707B6801229A707B68BA6812
:100E7C005A600123FB7313E07B689B78002B0CD02A
:100E8C007B689A787B68DA707B6800229A707B6842
:100E9C0000229A600123FB7302E07B6800229A60B7
:100EAC00FB7B18461037BD4680BD000080B483B074
:100EBC0000AF7860234B93F882310F2B16D9214B5E
:100ECC0093F8813101335A4203F00F0302F00F0201
:100EDC0058BF5342DAB21B4B83F88121194B93F85C
:100EEC008231013BDAB2174B83F88221154B93F810
:100EFC0080311946134A0B465B000B449B0013448C
:100F0C00C0337A6807CA83E807000E4B93F8803128
:100F1C0001335A4203F00F0302F00F0258BF534241
:100F2C00DAB2084B83F88021064B93F882310133F7
:100F3C00DAB2044B83F8822100BF0C37BD4680BC6B
:100F4C00704700BFCC00002080B483B000AF786045
:100F5C000B46FB701346BB707B68FA781A707B6883
:100F6C00BA785A707B6800229A707B680022DA701B
:100F7C007B6800225A607B6800229A6000BF0C37A5
:100F8C00BD4680BC7047000080B485B000AF78606F
:100F9C000D4B5B68FB600D4B1B680D4AA2FB0323DA
:100FAC009A0C7B6802FB03F3BB6000BF064B5A68CC
:100FBC00FB68D31ABA689A42F8D800BF00BF14373E
:100FCC00BD4680BC704700BF001000E02800002028
:100FDC0083DE1B4380B483B000AF03460A46FB712B
:100FEC001346BB71FB79032B02D8BB79032B01D9B8
:100FFC00FF2306E0FA79BB79044992000A441344B2
:10100C001B7818460C37BD4680BC7047EC9700081F
:10101C0080B400AF00231846BD4680BC704780B535
:10102C0084B000AF3B600346FB710B46BB711346AB
:10103C007B71FB79184600F09BF8F860FB68002B7D
:10104C0001D1022306E07A79B9793B68F86800F09F
:10105C00BDF8002318461037BD4680BD80B588B05A
:10106C0000AFF860B9601346FB80FB68002B01D120
:10107C00022372E0F868FFF763F80346BB76BB7E89
:10108C00002B01D1022368E001237B7600233B7601
:10109C000023FB775CE00023BB8313E0012003F00B
:1010AC0043FABB8B0133BB83BB8B642B0AD9FB7F0D
:1010BC00FA6813441B781A462A490020FFF7C4F932
:1010CC0001234AE003F0D6F80346002BE6D103F0E7
:1010DC0083F8FB7FFA6813441878797E3A7EBB68F4
:1010EC00FFF79DFF0023FB7603F08AF80346FB75A0
:1010FC00FB7D022B13D1012003F016FAFB7E01338A
:10110C00FB76FB7E0A2B19D9FB7FFA6813441B78FC
:10111C001A4615490020FFF797F901231DE0FB7DC6
:10112C00002B0BD0FB7FFA6813441B781A46FB7D0F
:10113C000E490020FFF788F901230EE0FB7D022BFE
:10114C00D2D0FB88184603F0EFF9FB7F0133FB7715
:10115C00FA7FBB7E9A429ED3002318462037BD46A9
:10116C0080BD00BFF8830008288400086084000854
:10117C0080B485B000AF0346FB71FB79FB73FB7B3E
:10118C000133104A13441B7803F00303022B02D1E2
:10119C00FB7B203B00E0FB7BFB71FB791F2B0BD90E
:1011AC00FB795A2B08D8FB79A3F1200213469B003C
:1011BC001344054A134400E0034B18461437BD464C
:1011CC0080BC70476E9900080C98000880B586B0FA
:1011DC0000AFF8607B600B46FB721346BB720023BA
:1011EC00FB752CE0FB7DFA6813441B787B750023A0
:1011FC00BB751EE07A7DBB7D42FA03F303F001035D
:10120C00002B13D0FA7AFB7D13443B75BA7ABB7D65
:10121C001344FB743B7D072B08D8FB7C072B05D8AC
:10122C00397DFB7C7A68184602F0A4FFBB7D013344
:10123C00BB75BB7D062BDDD9FB7D0133FB75FB7DBF
:10124C00042BCFD900BF00BF1837BD4680BD80B47A
:10125C0085B000AF786039607B68002B46D03B6866
:10126C00002B43D00023FB601AE00023BB6011E08D
:10127C007A68FB68DB001A44BB68134419783A6837
:10128C00FB68DB001A44BB6813440A461A70BB683F
:10129C000133BB60BB68072BEADDFB680133FB60E5
:1012AC00FB68072BE1DD7B6893F840203B6883F8F3
:1012BC0040207B6893F841203B6883F841207B6891
:1012CC0093F842203B6883F842207B6893F84330C4
:1012DC00002B14BF01230023DBB21A463B6883F8B2
:1012EC0043207B685A6C3B685A6400E000BF14379B
:1012FC00BD4680BC704780B594B000AF786007F1F4
:10130C00080319467868FFF7A2FF07F1080318468F
:10131C0002F0B2FD034618465037BD4680BD0000B2
:10132C0080B582B000AF03F09DF800F0E5F800F056
:10133C00E5F900F0C5F900F025F900F097F9642003
:10134C0003F0F2F8FFF7F6F856490020FFF77CF8A7
:10135C0055490020FFF778F854490020FFF774F83E
:10136C0053490020FFF770F852490020FFF76CF842
:10137C0051490020FFF768F8504BDB684F4A43F0A7
:10138C008073D3604E4B1B684D4A43F001031360CE
:10139C0002F0B4FE0346002B05D04A490220FFF7A9
:1013AC0053F801F044FC48490020FFF74DF8FFF7D3
:1013BC00FDFA03467B717B79002B07D07B791A46AB
:1013CC0042490220FFF740F801F031FC404900206F
:1013DC00FFF73AF8FFF784FC03463B713B79002B8F
:1013EC0001D03C4B00E03C4B1A463C490020FFF737
:1013FC002BF802F045FA0346002B21D00023FB7199
:10140C0017E00023BB710EE0FF233B7000237B70C1
:10141C000023BB70B979FB793A68184602F0AAFE32
:10142C00BB790133BB71BB79072BEDD9FB79013348
:10143C00FB71FB79072BE4D902F0E2FE01F0F7FB1C
:10144C00642003F071F802F0C3FC2548FFF72EFC72
:10145C00244802F023FC01F0F1FB0346002B05D0DD
:10146C0021490220FEF7F0FF01F0E1FB1F490020AB
:10147C00FEF7EAFF00F0ACF91D490020FEF7E4FF8F
:10148C001C490020FEF7E0FF00F0FEF9FFF770FCAE
:10149C0000F036FA02F0B4FC012003F045F800BF6E
:1014AC00F2E700BF14850008308500085485000859
:1014BC00708500088C850008A8850008F0ED00E018
:1014CC00001000E0C4850008F085000810860008B4
:1014DC00448600086086000870860008788600083C
:1014EC00F52500087526000898860008C4860008B3
:1014FC00E48600080087000880B590B000AF07F1C3
:10150C00180328220021184606F032FA3B1D00224F
:10151C001A605A609A60DA601A610123BB614FF459
:10152C008033FB6100233B620123BB6202237B639C
:10153C004FF48033BB634FF4E013FB6307F11803E4
:10154C00184603F079FD0346002B01D001F06FFB28
:10155C000F237B600223BB600023FB604FF480638E
:10156C003B6100237B613B1D0221184603F0E6FF23
:10157C000346002B01D001F05AFB00BF4037BD469B
:10158C0080BD000080B58EB000AF07F128030022AB
:10159C001A605A609A60DA6007F1200300221A6020
:1015AC005A603B1D00221A605A609A60DA601A6118
:1015BC005A619A612C4B4FF080421A602A4B0022E0
:1015CC005A60294B00229A60274B5922DA60264B2D
:1015DC0000221A61244B00229A61234804F03CF942
:1015EC000346002B01D001F022FB4FF48053BB6269
:1015FC0007F1280319461C4804F0F0FD0346002BA4
:10160C0001D001F014FB184804F075F90346002BC7
:10161C0001D001F00CFB00233B6200237B6207F13D
:10162C0020031946104805F057FA0346002B01D049
:10163C0001F0FDFA60237B600023BB600023FB609C
:10164C0000237B613B1D00221946074804F004FD72
:10165C000346002B01D001F0EAFA034802F006F829
:10166C0000BF3837BD4680BD7002002080B500AF8A
:10167C00114B124A1A60104B4FF4E1325A600E4B68
:10168C0000229A600C4B0022DA600B4B00221A618C
:10169C00094B0C225A61084B00229A61064B00221E
:1016AC00DA61054805F088FA0346002B01D001F0F9
:1016BC00BEFA00BF80BD00BFFC0200200038014014
:1016CC0080B582B000AF0C4B5B690B4A43F0010351
:1016DC005361094B5B6903F001037B607B6800225B
:1016EC0002210F2003F01BF80F2003F034F800BF89
:1016FC000837BD4680BD00BF0010024080B588B0E1
:10170C0000AF07F1100300221A605A609A60DA6089
:10171C00244B9B69234A43F020039361214B9B6923
:10172C0003F02003FB60FB681E4B9B691D4A43F0D2
:10173C00040393611B4B9B6903F00403BB60BB6800
:10174C00184B9B69174A43F008039361154B9B692F
:10175C0003F008037B607B6801224FF47041124850
:10176C0003F051FC4FF470433B6101237B61002378
:10177C00BB610223FB6107F1100319460A4803F011
:10178C00A7FA4FF4F0733B6100237B610123BB612B
:10179C0007F110031946044803F09AFA00BF2037EA
:1017AC00BD4680BD00100240000C014080B582B0E7
:1017BC0000AF78607B681B68B3F1804F02D103489F
:1017CC0002F08CFD00BF0837BD4680BDB80200207A
:1017DC0080B500AF20220021214806F0C9F8FEF7A1
:1017EC00C1FE0346002B05D01E490220FEF72CFE3D
:1017FC0001F01DFA1C490020FEF726FEFEF7A8FC9E
:10180C000346002B05D019490220FEF71DFE01F0FE
:10181C000EFA17490020FEF717FEFFF7F9FB0346F7
:10182C00002B05D013490220FEF70EFE01F0FFF944
:10183C0011490020FEF708FE104801F015FA034686
:10184C00002B07D10E4B01221A700E4B1B68013373
:10185C000C4A136002F0C0FC00F086F800BF80BD9B
:10186C00E003002018870008408700085C87000808
:10187C0088870008A8870008CC870008440300204C
:10188C00000400200404002080B584B000AF174B86
:10189C001B78DBB2002B0DD0144B00221A701449AC
:1018AC000020FEF7D1FD00F09BFC12490020FEF752
:1018BC00CBFD18E03B1D1846FFF7A0F9BB79002BB8
:1018CC0003D03B1D184600F0CDF800F06BFC0A4B22
:1018DC001B78002B07D0094801F09AFB0346002B1C
:1018EC0001D000F07DFC1037BD4680BD0E040020F9
:1018FC00E48700082088000800040020440300202E
:10190C0080B582B000AF154B1B7883F00103DBB2BE
:10191C00002B1ED102F0FEFD7860114B1B687A681B
:10192C00D31AB3F5FA7F15D30D4A7B6813600D4BB0
:10193C001B78002B14BF01230023DBB283F00103BF
:10194C00DBB203F00103DAB2064B1A7000F00CF8AC
:10195C0000E000BF0837BD4680BD00BF000400207A
:10196C00080400202200002080B584B000AF364B64
:10197C001B7883F00103DBB2002B61D102F02CFC4D
:10198C000023FB7337E00023BB732EE0BA7BFB7B99
:10199C0019462E4801F032FC03463B733B7B012B6E
:1019AC000FD12B4A07F10803126811461980023334
:1019BC00120C1A70B97BFB7BBA68184602F0DAFB82
:1019CC0010E03B7B022B0DD1224A3B1D12681146C5
:1019DC0019800233120C1A70B97BFB7B7A6818469B
:1019EC0002F0C8FBBB7B0133BB73BB7B072BCDD990
:1019FC00FB7B0133FB73FB7B072BC4D9164B1B788A
:101A0C00002B1AD0154B1B78154A127819460F4823
:101A1C0001F0F4FB03467B737B7B002B0DD10F4B4A
:101A2C001B780F4A117800223A70FF227A7000223C
:101A3C00BA703A68184602F09DFB02F0E1FB00E038
:101A4C0000BF1037BD4680BD0004002044030020B9
:101A5C004C8800085088000822000020200000203C
:101A6C002100002080B58CB002AF7860AB4B1B78A6
:101A7C0083F00103DBB2002B40F0C6827B68002BA5
:101A8C0000F0C2827B681A787B685B781946104636
:101A9C00FFF7A0FA034687F827307B681B781946B6
:101AAC007B685B78184697F827307A6892780192B1
:101ABC00009303460A469A490020FEF7C5FC7B6852
:101ACC009B78012B40F0A58297F827309549184652
:101ADC00FEF79CFE0346002B20D097F827301A46C1
:101AEC0091490020FEF7B0FC97F82730002B03D06B
:101AFC0097F827300D2B0BD18C4B1B6801338B4A7D
:101B0C0013608A4B1B681A4689490020FEF79CFC1F
:101B1C00FFF72AFF8348FFF7EEFB7AE297F82730AE
:101B2C000B2B36D1834B1B78002B14BF01230023C6
:101B3C00DBB283F00103DBB203F00103DAB27D4BBD
:101B4C001A707C4B1B78002B0AD07B4B1B781A46E7
:101B5C007A490020FEF778FC794B01221A7006E0D6
:101B6C00754B1B781A4677490020FEF76DFCFFF782
:101B7C00FBFE704B1B7887F82030714B1B7887F875
:101B8C00213007F1200302221946112001F0A6FE94
:101B9C003FE297F82730032B32D1664B1B78002B92
:101BAC0029D0674B01221A7067490020FEF74CFCC4
:101BBC00664A07F11C031268114619800233120C95
:101BCC001A70634B1B78634A1178FA69184602F055
:101BDC00D1FA02F015FBC82002F0A6FCFFF7C4FEF8
:101BEC005D4B1B883B8307F1180302221946112019
:101BFC0001F074FE0DE259490020FEF725FC08E2C5
:101C0C0097F82730072B32D14A4B1B78002B29D061
:101C1C004B4B02221A7052490020FEF715FC514A18
:101C2C0007F114031268114619800233120C1A7052
:101C3C00474B1B78474A11787A69184602F09AFA92
:101C4C0002F0DEFAC82002F06FFCFFF78DFE464B67
:101C5C001B883B8207F1100302221946112001F068
:101C6C003DFED6E141490020FEF7EEFBD1E1FEF747
:101C7C0035FE03461B78012B04D03D490020FEF7AE
:101C8C00E3FBC6E197F827300F2B00F2B58101A2D8
:101C9C0052F823F019200008E11C0008B51F0008B9
:101CAC00DD1F0008911D0008D71D0008F31E000859
:101CBC00E71F0008BF1F0008391F0008A51F0008F8
:101CCC00F11F0008C91F00087F1F0008D31F000860
:101CDC00FB1F00081E4B1B78002B19D01C4B1B78CC
:101CEC00013BDAB21A4B1A70194B1B781A46194B76
:101CFC001B7820490020FEF7A7FB1F4B01221A700E
:101D0C0002F008FC03461D4A1360FFF72DFE80E12C
:101D1C001B490020FEF798FB7BE100BF000400206C
:101D2C005488000844030020848800080404002020
:101D3C00AC8800080D04002023000020E088000877
:101D4C00240000200C890008448900080C8D000830
:101D5C002000002021000020108D0008648900085C
:101D6C009889000850880008148D0008B88900086C
:101D7C00EC8900081C8A00082200002008040020BE
:101D8C00388A0008A44B1B78002B19D0A24B1B7867
:101D9C00013BDAB2A04B1A70A04B1B781A469E4B33
:101DAC001B789F490020FEF74FFB9E4B01221A70B7
:101DBC0002F0B0FB03469C4A1360FFF7D5FD28E107
:101DCC009A490020FEF740FB23E1944B1B781A46FE
:101DDC00914B1B7896490020FEF736FB954B1B78F0
:101DEC00002B24D08D4B19788B4B1A78924B1B7887
:101DFC00924801F091F8034687F825308E4B1B78FA
:101E0C001946864B1B781846834B1B781A4697F855
:101E1C0025300193009203460A4689490020FEF7BB
:101E2C0013FBFFF7A1FD8548FFF765FAF1E07B4B4B
:101E3C001978794B1A78814B93F840307F4800F031
:101E4C0075FF0346002B2FD0744B1978724B1A7800
:101E5C007A4B93F84030794800F0A2FF034687F89C
:101E6C00263097F82630002B00F0D28097F82630D9
:101E7C001A4674490020FEF7E7FAFFF775FD6F4824
:101E8C00FFF739FA6D4B93F84330002B00F0C0800C
:101E9C006A4801F0DDF803461A466B490020FEF74C
:101EAC00D3FA00F0F3F8B3E05C4B1B781A465A4BAC
:101EBC001B7866490020FEF7C7FA584B1B78564A28
:101ECC001178FF223A7300227A730022BA73FA68EF
:101EDC00184602F04FF902F093F9C82002F024FBE7
:101EEC00FFF742FD94E04C4B1B78062B19D84A4B5C
:101EFC001B780133DAB2484B1A70484B1B781A46E0
:101F0C00454B1B7852490020FEF79EFA454B0122A7
:101F1C001A7002F0FFFA0346434A1360FFF724FDE0
:101F2C0077E04C490020FEF78FFA72E03B4B1B78B0
:101F3C00062B19D8394B1B780133DAB2374B1A7090
:101F4C00364B1B781A46344B1B7843490020FEF75E
:101F5C007BFA344B01221A7002F0DCFA0346324A47
:101F6C001360FFF701FD54E03C490020FEF76CFACA
:101F7C004FE03B490020FEF767FA304800F074FE52
:101F8C00264B03221A70244B03221A70254B012274
:101F9C001A70FFF7E9FC3CE032490020FEF754FAD6
:101FAC002648FFF7A8F934E02F490020FEF74CFA39
:101FBC002FE02E490020FEF747FA2AE02C4900209A
:101FCC00FEF742FA25E02B490020FEF73DFA20E00F
:101FDC0029490020FEF738FA1BE028490020FEF7BB
:101FEC0033FA16E026490020FEF72EFA11E02549B7
:101FFC000020FEF729FA0CE097F827301A46224900
:10200C000020FEF721FA04E000BF02E000BF00E070
:10201C0000BF2837BD4680BD2100002020000020D5
:10202C00548A00082200002008040020748A00084A
:10203C00908A00080D040020240000204403002096
:10204C00B88A0008EC8A0008148B0008348B00084E
:10205C00548B0008748B0008948B0008B48B000818
:10206C00D48B0008E88B0008088C0008248C00082E
:10207C00408C0008608C0008848C0008A08C000840
:10208C00BC8C0008D88C0008F48C000880B584B097
:10209C0002AF374B1B7883F00103DBB2002B63D10B
:1020AC0034490020FEF7D0F9334B5B6C1A463349A8
:1020BC000020FEF7C9F9304B93F841301A462E4BED
:1020CC0093F842302E490020FEF7BEF92A4B93F8C4
:1020DC0043301A462B490020FEF7B6F9264B5B6CB1
:1020EC00002B1AD028490020FEF7AEF9224B93F8AA
:1020FC004A301946204B93F8483018461E4B93F83B
:10210C0049301A461C4B93F84B300193009203460E
:10211C000A461E490020FEF797F9174B93F84330F7
:10212C00002B1CD0144800F093FF0346FB71184998
:10213C000020FEF789F9FB79012B04D11549002009
:10214C00FEF782F90BE0FB79022B04D11249002037
:10215C00FEF77AF903E011490020FEF775F91049F2
:10216C000020FEF771F900E000BF0837BD4680BDC6
:10217C0000040020188D000844030020408D000846
:10218C00548D0008788D00088C8D00089C8D0008FB
:10219C00CC8D0008E08D0008FC8D0008108E000826
:1021AC00248E000880B582B000AF02F0B3F97860DD
:1021BC00094B1B687A68D31A632B08D9064A7B68CB
:1021CC001360064B1B78002B01D0FFF7CDFB00BF33
:1021DC000837BD4680BD00BF10040020000400205D
:1021EC0090B58DB002AFB14B1A68B14B1B689A42D7
:1021FC0007D1AE4B1B681A46AE490020FEF724F9F6
:10220C00E0E1AA4B1B68AA4A1360AB490020FEF719
:10221C001BF9AA4B5B6C1A46A9490020FEF714F96E
:10222C00A84B1B781A460223A7490020FEF70CF98D
:10223C00A24B93F841301A46A04B93F84230194602
:10224C009E4B93F8433000930B46A0490020FEF7B9
:10225C00FBF89F4B01221A709E490020FEF7F4F800
:10226C0096499D4801F002F8944800F0F1FE0346AF
:10227C0087F8253097F825200223009301239749EE
:10228C000020FEF7E1F897F82530012B23D1944973
:10229C000020FEF7D9F800233B77FF237B77002340
:1022AC00BB774FF47A72F9698E48FEF7D7FE034676
:1022BC0087F8223097F82230002B07D097F822307D
:1022CC001A4689490020FEF7BFF852E087490020E2
:1022DC00FEF7BAF84DE097F82530022B23D184494C
:1022EC000020FEF7B1F8FF233B7600237B7600231A
:1022FC00BB764FF47A72B9697E48FEF7AFFE03469F
:10230C0087F8233097F82330002B07D097F8233029
:10231C001A4679490020FEF797F82AE07749002001
:10232C00FEF792F825E076490020FEF78DF8754A05
:10233C0007F114031268114619800233120C1A703B
:10234C004FF47A7279697048FEF788FE034687F875
:10235C00243097F82430002B07D097F824301A46F5
:10236C006A490020FEF770F803E069490020FEF787
:10237C006BF868490020FEF767F801F02DFF01F0BB
:10238C003FFF4FF4FA7002F0CFF84E4B1B78022B44
:10239C004ED161490020FEF757F84848FDF72CFF55
:1023AC00034687F8213097F821301A465B49002004
:1023BC00FEF74AF897F82130022B14D1FDF79EFF57
:1023CC0003461A4656490020FEF73EF855490020B0
:1023DC00FEF73AF840F6B83002F0A6F85249002061
:1023EC00FEF732F824E097F82130032B14D1FDF7D7
:1023FC008FFF03461A464D490020FEF725F84C493D
:10240C000020FEF721F840F6B83002F08DF849496B
:10241C000020FEF719F80BE0FDF784FF03461C467D
:10242C00FDF76CFF0346224643490020FEF70CF8EB
:10243C0042490020FEF708F801F0CEFE97F825304F
:10244C00012B09D100233B7400237B740023BB7444
:10245C00386901F019FF99E097F82530022B0CD15F
:10246C00374A07F10C031268114619800233120C1B
:10247C001A70F86801F008FF88E0002387F827300D
:10248C007FE0002387F8263072E097F8272097F832
:10249C0026301344DBB203F00103002B52D100238E
:1024AC003B7200237B720023BB7254E004040020B7
:1024BC00140400204C8E0008848E00084403002075
:1024CC00B88E000823000020EC8E0008208F000836
:1024DC000C040020548F0008E0030020848F0008B7
:1024EC00CC8F0008F08F0008F48F00082C900008A7
:1024FC00549000087890000880900008B89000086C
:10250C00E090000848940008049100080C91000821
:10251C00449100086C91000890910008C491000847
:10252C00F89100082C920008649200088C92000824
:10253C00BC920008F89200082093000854930008FD
:10254C0050880008214A07F10803126811461980C7
:10255C000233120C1A7097F8261097F82730BA68C5
:10256C00184601F007FE97F82630013387F826301D
:10257C0097F82630072B88D997F82730013387F83E
:10258C00273097F82730072B7FF67BAF01F038FE0A
:10259C000F490020FDF758FF0E48FEF7ACFE0E4920
:1025AC000020FDF751FF41F2883001F0BDFF0B4BCD
:1025BC0000221A700A490020FDF746FF0949002045
:1025CC00FDF742FF2C37BD4690BD00BF5088000878
:1025DC008493000844030020B49300080C040020EA
:1025EC00E89300081894000880B586B002AF034643
:1025FC00FB710B46BB7113467B71BA79FB791146A3
:10260C001846FEF7E7FC0346FB73F979B8797B793A
:10261C00FA7B0192009303460A4612490020FDF70B
:10262C0013FFFB7B7A79B979F87901F038FC7B7967
:10263C00012B13D1FB79072B10D8BB79072B0DD8A5
:10264C0000233B73FF237B730023BB73B979FB79A6
:10265C00FA68184601F08EFD01F0D2FD00BF10376C
:10266C00BD4680BD4C94000880B58EB002AF0346C9
:10267C003960FB711346BB71FB79013B102B00F2E7
:10268C009E8201A252F823F003280008D9260008E4
:10269C004F270008CB2B0008752700087B27000864
:1026AC00FD270008CB2B0008CB2B0008CB2B0008F8
:1026BC008D270008AD2900080D2A0008CB2B000837
:1026CC00AF2A0008B72B0008F12A0008BB79082BA9
:1026DC0031D13B687B617B6919787B695A78A84B4F
:1026EC0093F84030A64800F021FB0346002B1CD089
:1026FC007B6919787B695A78A14B93F84030A048D4
:10270C0000F04EFB0346FB74FB7C002B07D0FFF75D
:10271C002BF9FB790021184601F0DAFA56E2FB7925
:10272C000221184601F0D4FA50E2FB790121184637
:10273C0001F0CEFA4AE2FB790321184601F0C8FAFF
:10274C0044E28F4800F090FA8E4B1B6801338D4A9F
:10275C001360FFF709F9FB790021184601F0B8FA6C
:10276C008748FEF7C8FD31E201F0C0FB2EE2844839
:10277C00FEF7C1FDFB790021184601F0A9FA25E20C
:10278C00BB79032B2ED93B681B78BB763B685B78F7
:10279C007B763B689B783B733B68DB787B73BB79C0
:1027AC00042B03D93B6804331B7800E00023BB7374
:1027BC00BB7E072B10D87B7E072B0DD8797EBB7E7A
:1027CC00FA68184601F0D6FC01F01AFDFB790021DD
:1027DC00184601F07DFAF9E1FB790221184601F067
:1027EC0077FAF3E1FB790121184601F071FAEDE17A
:1027FC0001F0EEFAEAE1644B1B78002B09D0FB796F
:10280C000421184601F064FA60490020FDF71CFE13
:10281C00DCE1BB79482B40F0A680002387F82F30F1
:10282C001AE097F82F30DB08BB7497F82F3003F0C1
:10283C0007037B7497F82F303A68D118BA7C7B7CED
:10284C0008784F49D2000A44134402461A7097F88C
:10285C002F30013387F82F3097F82F303F2BE0D9EA
:10286C003B6840331A78464B83F840203B6893F81A
:10287C004120434B83F841203B6893F84220404B66
:10288C0083F84220002387F82E303B6843331B78B3
:10289C00012B21D13A4B93F84120394B93F842301C
:1028AC009A4204D9364B012283F8432010E0344B72
:1028BC0093F84120324B93F842309A4204D2304B79
:1028CC00022283F8432003E02D4B032283F843209C
:1028DC00012387F82E3003E0294B002283F8432094
:1028EC003B6844331B781A463B6845331B781B0204
:1028FC001A433B6846331B781B041A433B68473327
:10290C001B781B0613431E4A536497F82E30002B7A
:10291C000DD01B4B93F843301A461D490020FDF790
:10292C0093FD1C4B01221A70FFF71EF801E0FFF714
:10293C001BF8FB790021184601F0CAF9104B5A6CB0
:10294C000F4B93F8403018460D4B93F84130194615
:10295C000B4B93F842300193009103460E49002033
:10296C00FDF772FD32E1FB790121184601F0B0F957
:10297C00BB791A4609490220FDF766FD26E100BF26
:10298C0044030020040400200C0400207C94000864
:10299C00B49400080E040020FC9400085095000824
:1029AC00BB79082B26D13B68FB61FB691B788949F5
:1029BC001846FDF7DFFE0346FB76FB7E002B0AD1A3
:1029CC00FEF7D2FFFB790021184601F081F981480E
:1029DC00FEF791FCFAE0FB7E022B05D1FB7901217D
:1029EC00184601F075F9F1E0FB790221184601F067
:1029FC006FF9EBE0FB790321184601F069F9E5E08A
:102A0C00BB79042B47D13B683B623B6A1A78724B0B
:102A1C001A70714B1B78022B14D1FDF7ABFB0346DC
:102A2C00002B09D16D490020FDF70EFDFB7900212B
:102A3C00184601F04DF9C9E0FB790221184601F066
:102A4C0047F9C3E0644B1B78012B10D1FDF74CFC0C
:102A5C000346002B01D0FDF7B9FB61490020FDF7BF
:102A6C00F3FCFB790021184601F032F9AEE05A4B29
:102A7C001B78032B09D15B490020FDF7E5FCFB79A2
:102A8C000121184601F024F9A0E0FB790321184636
:102A9C0001F01EF99AE0FB790421184601F018F9AF
:102AAC0094E0BB79012B17D93B681B781BB21B0236
:102ABC001AB23B6801331B781BB213431BB2BB84A5
:102ACC00BB8C1A4648490020FDF7BEFCFB7900215F
:102ADC00184601F0FDF879E0FB790121184601F068
:102AEC00F7F873E0BB79022B59D13B68BB62BA791A
:102AFC00BB6A1B781946BB6A5B7800930B463B4953
:102B0C000020FDF7A1FCBB6A5B78012B19D0BB6AD6
:102B1C005B78022B15D0BB6A5B781A4634490220CD
:102B2C00FDF792FCBB6A1B781A46BB6A5B7831498D
:102B3C000220FDF789FCFB790121184601F0C8F849
:102B4C0044E02D4B1B7887F82730BB6A1B78002B91
:102B5C0014BF01230023DAB2274B1A70BB6A5A78D0
:102B6C00264B1A70244B1B78002B01D0244A00E012
:102B7C00244A224B1B78012B01D1234B00E0234B21
:102B8C0023490020FDF760FCFEF7EEFEFB790021E7
:102B9C00184601F09DF80F48FEF7ADFB16E0FB79E7
:102BAC000121184601F094F810E01A490020FDF7B5
:102BBC004BFCFB79FF21184601F08AF806E0FB1D5F
:102BCC0001221946012001F09BF800BF00BF3037ED
:102BDC00BD4680BD440300202300002088950008DA
:102BEC00A8950008C8950008F095000810960008F4
:102BFC0050960008989600080D0400202400002030
:102C0C00D8960008E0960008EC960008F4960008A8
:102C1C00FC9600081C97000880B582B000AF786065
:102C2C00786801F0C7F900BF0837BD4680BD80B495
:102C3C0000AF72B600BF00BFFDE7000080B500AF6B
:102C4C00084B1B78002B01D0002308E02422002124
:102C5C00044804F08DFE034B01221A700023184621
:102C6C0080BD00BF1804002080B582B000AF786032
:102C7C002D4B1B7883F00103DBB2002B02D17B6858
:102C8C00002B01D101234AE09C220021786804F03A
:102C9C006FFE7B680122DA767B68012283F82420A0
:102CAC007B6802221A777B68022283F823207B68D8
:102CBC00012283F840207B68022283F841207B6844
:102CCC00022283F842207B68002283F843207B6831
:102CDC0000225A647B68002283F8502001F01AFC11
:102CEC0002467B685A657B68012283F899207B68D1
:102CFC00FF2283F848207B68FF2283F849207B68F9
:102D0C00002283F84A207B68002283F84B207B68E2
:102D1C005A6D7B68DA64786800F0E5FB002318468E
:102D2C000837BD4680BD00BF1804002080B582B0B6
:102D3C0000AF7860084611461A460346FB700B46F6
:102D4C00BB7013467B707B68002B0BD0FB78072B7A
:102D5C0008D8BB78072B05D87B78012B04D07B785F
:102D6C00022B01D0002316E0FA78BB787968D200E8
:102D7C000A4413441B78002B01D000230BE07B7812
:102D8C00BA78F978786800F0B3F90346002B14BFD1
:102D9C0001230023DBB218460837BD4680BD000076
:102DAC0090B589B004AF7860084611461A460346C0
:102DBC00FB700B46BB7013467B707B68002B10D0EE
:102DCC007B6893F84330002B0BD17B78BA78F97879
:102DDC007868FFF7ABFF034683F00103DBB2002BEF
:102DEC0001D0002390E00023FB73FA78BB7879685C
:102DFC00D2000A4413447A781A700023BB601DE099
:102E0C00434ABB6812F91340414ABB685B00134448
:102E1C0093F90130B878F978012202927A7801920C
:102E2C00009323460246786800F0A2FA03461A463D
:102E3C00FB7B1344FB73BB680133BB60BB68072B84
:102E4C00DEDD7B68FA7883F848207B68BA7883F8F3
:102E5C0049207B687A7883F84A207B68FA7B83F870
:102E6C004B2001F057FB02467B68DA647B685B6C95
:102E7C005A1C7B685A647B68002283F8502078685F
:102E8C0000F013FB786800F02EFB224B1B78002B14
:102E9C0039D17B78012B01D1022200E001227B6821
:102EAC0083F840207B6893F840301946786800F02E
:102EBC00F1F8034683F00103DBB2002B16D07B78CC
:102ECC001946786800F0E6F8034683F00103DBB29C
:102EDC00002B03D0786800F01CFB07E07B687A7845
:102EEC0083F840207B68012283F850207B6893F89C
:102EFC0041301A467B6893F842301344402B02D180
:102F0C00786800F006FBFB7B18461437BD4690BD75
:102F1C00349900080D04002090B589B004AF786096
:102F2C00084611461A460346FB700B46BB70134607
:102F3C007B707B68002B10D07B6893F84330002BA0
:102F4C000BD1FB78072B08D8BB78072B05D87B78DF
:102F5C00012B04D07B78022B01D0002352E00023FC
:102F6C00FB73FA78BB787968D2000A4413447A78F8
:102F7C001A700023BB601DE0244ABB6812F9134091
:102F8C00224ABB685B00134493F90130B878F97896
:102F9C00012202927A7801920093234602467868C5
:102FAC0000F0E6F903461A46FB7B1344FB73BB683F
:102FBC000133BB60BB68072BDEDD7B68FA7883F8D6
:102FCC0048207B68BA7883F849207B687A7883F844
:102FDC004A207B68FA7B83F84B2001F09BFA02466F
:102FEC007B68DA647B685B6C5A1C7B685A647B6810
:102FFC00002283F85020786800F057FA786800F0C7
:10300C0072FAFB7B18461437BD4690BD3499000804
:10301C0080B483B000AF78600C4B1B78002B01D0D0
:10302C0000230DE07B68002B04D07B6893F84330C1
:10303C00002B01D0012300E0002303F00103DBB2DD
:10304C0018460C37BD4680BC704700BF0D040020ED
:10305C0080B483B000AF78607B68002B04D07B68B1
:10306C0093F84330002B01D100230EE07B6893F8DA
:10307C004330012B01D1012307E07B6893F84330E7
:10308C00022B01D1022300E0002318460C37BD4669
:10309C0080BC704780B584B000AF78600B46FB7085
:1030AC007B68002B01D100231DE00023FB7316E08D
:1030BC000023BB730DE0FB78BA7BF97B7868FFF7D4
:1030CC0035FE0346002B01D001230CE0BB7B013302
:1030DC00BB73BB7B072BEED9FB7B0133FB73FB7BF9
:1030EC00072BE5D9002318461037BD4680BD0000DC
:1030FC0090B589B004AF7860084611461A4603466D
:10310C00FB700B46BB7013467B707B68002B14D096
:10311C00FB78072B11D8BB78072B0ED8FA78BB7825
:10312C007968D2000A4413441B78002B05D17B78B4
:10313C00012B04D07B78022B01D0002326E0002346
:10314C00FB730023BB601DE0124ABB6812F91340ED
:10315C00104ABB685B00134493F90130B878F978D6
:10316C00002202927A7801920093234602467868F4
:10317C0000F0FEF803461A46FB7B1344FB73BB6856
:10318C000133BB60BB68072BDEDDFB7B18461437B5
:10319C00BD4690BD3499000880B485B000AF78600E
:1031AC000B46FB707B68002B01D1002321E0002330
:1031BC00FB730023BB7318E000237B730FE0BA7B17
:1031CC007B7B7968D2000A4413441B78FA789A42C4
:1031DC0002D1FB7B0133FB737B7B01337B737B7BEA
:1031EC00072BECD9BB7B0133BB73BB7B072BE3D920
:1031FC00FB7B18461437BD4680BC704780B483B047
:10320C0000AF78600B46FB701346BB707B68002BDD
:10321C0005D0FB78072B02D8BB78072B01D90023EC
:10322C0006E0FA78BB787968D2000A4413441B781C
:10323C0018460C37BD4680BC704780B584B000AFD3
:10324C0078607B68002B01D101230BE07B6893F83D
:10325C009930FB737868FFF707FD7B68FA7B83F87E
:10326C009920002318461037BD4680BD80B584B028
:10327C0000AF786039607B68002B02D03B68002B74
:10328C0001D1012356E07B681B685A1C7B681A60CD
:10329C007B681A693B685B6C1A447B681A613B68F3
:1032AC0093F84330032B12D0032B16DC012B02D0E6
:1032BC00022B06D011E07B685B685A1C7B685A6055
:1032CC000CE07B689B685A1C7B689A6006E07B6804
:1032DC00DB685A1C7B68DA6000E000BF7B681B6807
:1032EC00012B08D13B685A6C7B685A613B685A6C5D
:1032FC007B689A6113E03B685A6C7B685B699A4205
:10330C0003D93B685A6C7B685A613B685A6C7B6882
:10331C009B699A4203D23B685A6C7B689A61386805
:10332C0000F00CF8F8607B68DA69FB681A447B687B
:10333C00DA61002318461037BD4680BD80B584B0D5
:10334C0000AF78607B68002B01D100230AE001F00C
:10335C00E1F8F8607B685B6DFA68D31A034AA2FB4C
:10336C0003239B0918461037BD4680BDD34D621010
:10337C0080B485B000AF7860084611461A46034603
:10338C00FB700B46BB7013467B703B7F012B01D14E
:10339C00022300E00123FB720023FB737A78FB7895
:1033AC001344DBB2BB733A7EBB781344DBB27B7342
:1033BC000CE0FB7B0133FB73BA7B7B781344DBB2F1
:1033CC00BB737A7B3B7E1344DBB27B7397F90E3075
:1033DC00002B17DB97F90E30072B13DC97F90D3008
:1033EC00002B0FDB97F90D30072B0BDC97F90E2018
:1033FC0097F90D307968D2000A4413441B78FA7A95
:10340C009A42D6D0FB7B002B49D097F90E30002B7B
:10341C0045DB97F90E30072B41DC97F90D30002B6B
:10342C003DDB97F90D30072B39DC97F90E2097F916
:10343C000D307968D2000A4413441B783A7F9A42C3
:10344C002DD197F82030002B27D07A78FB781344B5
:10345C00DBB2BB733A7EBB781344DBB27B730023C5
:10346C003B7316E097F90E2097F90D307968D2006E
:10347C000A4413443A7F1A70BA7B7B781344DBB24C
:10348C00BB737A7B3B7E1344DBB27B733B7B013398
:10349C003B733A7BFB7B9A42E4D3FB7B00E000233B
:1034AC0018461437BD4680BC704780B582B000AF5B
:1034BC0078607B68002B12D001217868FFF76CFED6
:1034CC0003461A467B6883F8412002217868FFF78F
:1034DC0063FE03461A467B6883F8422000E000BF77
:1034EC000837BD4680BD80B582B000AF78607B6880
:1034FC00002B0AD07B68002283F898207B68583315
:10350C0040220021184604F033FA00BF0837BD46AC
:10351C0080BD80B483B000AF78607B68002B1ED078
:10352C007B6893F841207B6893F842309A4204D927
:10353C007B68012283F8432012E07B6893F84220D9
:10354C007B6893F841309A4204D97B68022283F855
:10355C00432005E07B68032283F8432000E000BF92
:10356C000C37BD4680BC704780B485B000AF154B9E
:10357C009B69144A43F001039361124B9B6903F05E
:10358C000103BB60BB680F4BDB690E4A43F08053F1
:10359C00D3610C4BDB6903F080537B607B680A4B77
:1035AC005B68FB60FB6823F0E063FB60FB6843F047
:1035BC000073FB60044AFB68536000BF1437BD46C0
:1035CC0080BC7047001002400000014080B584B000
:1035DC0000AF78607B681B68B3F1804F3BD1204B08
:1035EC00DB691F4A43F00103D3611D4BDB6903F018
:1035FC000103FB60FB681B4B1B4A1A60194B102222
:10360C005A60184B00229A60164B8022DA60154BD8
:10361C004FF480721A61134B4FF480625A61114B54
:10362C0000229A610F4B0022DA610E4801F0AEF8CD
:10363C000346002B01D0FFF7FAFA7B68094A5A625D
:10364C00084A7B685362002202211C2001F067F8B3
:10365C001C2001F080F800BF1037BD4680BD00BFB4
:10366C0000100240B80200205800024080B588B01B
:10367C0000AF786007F1100300221A605A609A605C
:10368C00DA607B681B68B3F1804F17D10D4B9B69D7
:10369C000C4A43F0040393610A4B9B6903F0040347
:1036AC00FB60FB6801233B6102237B610323FB610D
:1036BC0007F110031946044801F00AFB00BF20373C
:1036CC00BD4680BD001002400008014080B588B0A6
:1036DC0000AF786007F1100300221A605A609A60FC
:1036EC00DA607B681B68204A934239D11F4B9B6977
:1036FC001E4A43F4804393611C4B9B6903F4804343
:10370C00FB60FB68194B9B69184A43F004039361F7
:10371C00164B9B6903F00403BB60BB684FF400734A
:10372C003B6102237B610323FB6107F11003194604
:10373C000F4801F0CDFA4FF480633B6100237B61AD
:10374C000023BB6107F110031946094801F0C0FAC8
:10375C0000220121252000F0E2FF252000F0FBFFD4
:10376C0000BF2037BD4680BD00380140001002402C
:10377C000008014080B400AF00BFFDE780B400AF8B
:10378C0000BFFDE780B400AF00BFFDE780B400AF21
:10379C0000BFFDE780B400AF00BFFDE780B400AF11
:1037AC0000BFBD4680BC704780B400AF00BFBD46B3
:1037BC0080BC704780B400AF00BFBD4680BC704772
:1037CC0080B500AF00F094FE00BF80BD80B500AFA7
:1037DC00024801F049F900BF80BD00BFB8020020CB
:1037EC0080B500AF024802F047FB00BF80BD00BFB0
:1037FC007002002080B500AF024803F0DDFA00BF74
:10380C0080BD00BFFC02002080B586B000AF7860A0
:10381C00144A154BD31A7B617B693B61134B1B68B4
:10382C00002B02D1114B124A1A60104B1A687B689C
:10383C0013443A699A4207D204F0A2F803460C22C8
:10384C001A604FF0FF3309E0084B1B68FB60074B15
:10385C001A687B681344054A1360FB6818461837CE
:10386C00BD4680BD00500020000400003C04002038
:10387C00D815002080B400AF00BFBD4680BC704797
:10388C0080B500AF124B93F83433002B01D00023DA
:10389C001CE04FF44E7200210D4804F069F800F062
:1038AC00A7FB01220B490C4803F061FA0346002BDD
:1038BC0001D001230AE000F02DFE0346044AC2F8B1
:1038CC003033034B012283F834230023184680BD88
:1038DC004004002075070020FC02002080B5ADF5E7
:1038EC00067D00AF07F50673A3F506731960114644
:1038FC0007F50673A3F2112302461A7007F5067337
:10390C00A3F212230A461A70744B93F8343383F0E3
:10391C000103DBB2002B01D00123DAE00023A7F86E
:10392C00163207F50673A3F5847302221A7007F595
:10393C000673A3F5847307F50672A2F211221278AE
:10394C005A7007F50673A3F5847307F50672A2F295
:10395C00122212789A7007F50673A3F506731B688A
:10396C00002B16D007F50673A3F212231B78002B3D
:10397C000FD007F50673A3F21223197807F5067317
:10398C00A3F5067307F58872D01C0A46196804F073
:10399C0023F807F58873184600F040FB03461A46D7
:1039AC0007F50673A3F5847383F8032107F50673F3
:1039BC00A3F58473032283F80421B7F816325A1C3A
:1039CC00A7F816221A4607F50673A3F5847319781F
:1039DC0007F50673A3F504739954B7F816325A1CFD
:1039EC00A7F816221A4607F50673A3F584735978BF
:1039FC0007F50673A3F504739954B7F816325A1CDD
:103A0C00A7F816221A4607F50673A3F5847399785E
:103A1C0007F50673A3F50473995407F50673A3F21F
:103A2C0012231B78002B1AD0B7F8163207F10802B4
:103A3C00D01807F50673A3F212231A7807F58873CA
:103A4C000333194603F0C8FF07F50673A3F21223DC
:103A5C001B789AB2B7F816321344A7F81632B7F897
:103A6C0016325A1CA7F816221A4607F50673A3F548
:103A7C00847393F8031107F50673A3F50473995433
:103A8C00B7F816325A1CA7F816221A4607F5067311
:103A9C00A3F5847393F8041107F50673A3F5047367
:103AAC009954B7F8162207F108031146184600F08E
:103ABC00D7FA034687F8153297F81532002B06D142
:103ACC00064BD3F81C330133044AC2F81C3397F865
:103ADC001532184607F50677BD4680BD4004002018
:103AEC0080B586B000AF0346FB716B4B93F8343353
:103AFC0083F00103DBB2002B01D00123C8E0664B3D
:103B0C007B6100F007FD38617B6993F80531002B70
:103B1C0010D07B69D3F808313A69D31AB3F57A7FA0
:103B2C0008D900F065FA5C4BD3F8283301335A4AB4
:103B3C00C2F828337B6993F80531052B00F2A1807C
:103B4C0001A252F823F000BF6D3B00088D3B00082A
:103B5C009D3B0008C53B0008193C00082B3C0008A5
:103B6C00FB79022B40F090807B69FA791A707B69A3
:103B7C00012283F805217B693A69C3F8082183E0A7
:103B8C007B69FA795A707B69022283F805217EE001
:103B9C007B69FA799A707B69002283F80621FB799C
:103BAC00002B04D07B69032283F805216FE07B692D
:103BBC00042283F805216AE07B6993F806217B696E
:103BCC009B789A4218D27B6993F806315A1CD1B271
:103BDC007A6982F806111A467B691344FA79DA700D
:103BEC007B6993F806217B699B789A424ED37B695B
:103BFC00042283F8052149E000F0FAF9264BD3F8AA
:103C0C002C330133244AC2F82C333FE07B69FA7918
:103C1C0083F803217B69052283F8052137E0FB79C2
:103C2C00032B2BD17B69FA7983F804217B6906225B
:103C3C0083F805217B69184600F0F0F90346FB7305
:103C4C007B6993F80331FA7B9A420DD17B6901228F
:103C5C0083F80C21104BD3F8203301330E4AC2F8F1
:103C6C00203300F021FA12E00B4BD3F8243301334C
:103C7C00094AC2F8243300F0BBF908E000F0B8F9A7
:103C8C0005E000F0B5F902E000BF00E000BF002342
:103C9C0018461837BD4680BD4004002080B483B060
:103CAC0000AF7860094B93F8343383F00103DBB237
:103CBC00002B01D0012304E0044A7B68C2F81833BE
:103CCC00002318460C37BD4680BC704740040020CA
:103CDC0080B584B000AF03460A46FB711346BB7136
:103CEC00FB793B73BB797B7307F10C0302221946FA
:103CFC000820FFF7F3FD034618461037BD4680BD7C
:103D0C0080B5C2B000AF07F58473A3F58473196056
:103D1C00114607F58473A3F2011302461A7007F5D6
:103D2C008473A3F581730A461A7007F58473A3F59F
:103D3C00807307F58472A2F2011212781A7007F5DB
:103D4C008473A3F584731B68002B29D007F5847347
:103D5C00A3F581731B78002B22D007F58473A3F590
:103D6C0081731B78FF2B1BD007F58473A3F581732C
:103D7C00197807F58473A3F5847307F10802501CB6
:103D8C000A46196803F028FE07F58473A3F58173BE
:103D9C0007F58472A2F58172127801321A7005E06F
:103DAC0007F58473A3F5817301221A7007F58473E8
:103DBC00A3F581731A7807F108031946FF20FFF762
:103DCC008DFD0346184607F58477BD4680BD00007F
:103DDC0080B582B000AF00F09DFB0346074AA2FB02
:103DEC0003239B097B603B1D042219460720FFF728
:103DFC0075FD034618460837BD4680BDD34D62108D
:103E0C0080B582B000AF1B4B93F8343383F00103C1
:103E1C00DBB2002B2AD100F07DFB7860154BD3F878
:103E2C0030337A68D31A41F28732934205D9FFF7BF
:103E3C00CFFF104A7B68C2F830330E4B3B603B68B7
:103E4C0093F80531002B12D03B68D3F808317A680F
:103E5C00D31AB3F57A7F0AD900F0CAF8054BD3F818
:103E6C0028330133034AC2F8283300E000BF083777
:103E7C00BD4680BD4004002080B582B000AF7860A4
:103E8C007B68002B01D1012305E0482279680120D1
:103E9C00FFF724FD034618460837BD4680BD90B594
:103EAC0085B000AF0446084611461A462346FB71FE
:103EBC000346BB710B467B7113463B71FB793B721E
:103ECC00BB797B727B79BB723B79FB7200F022FB76
:103EDC000346FB6007F10803082219460A20FFF786
:103EEC00FDFC034618461437BD4690BD80B586B020
:103EFC0000AF00F00FFB03460E4AA2FB03239B0905
:103F0C007B600D4BBB6000F0E9F80346FB6000F0F2
:103F1C00EDF803463B74C8237B821E23BB823B1DFA
:103F2C00142219460520FFF7D9FC0346184618370A
:103F3C00BD4680BDD34D62100100000180B584B038
:103F4C0000AF78607B68002B01D101230BE078680F
:103F5C00FCF7F6F80346FB73FB7B1A4679680920DD
:103F6C00FFF7BCFC034618461037BD4680BD90B524
:103F7C0085B000AF0446084611461A462346FB712D
:103F8C000346BB710B46BB801346FB70FB793B723F
:103F9C00BB797B72BB887B81FB783B7307F1080391
:103FAC00062219460E20FFF799FC034618461437D3
:103FBC00BD4690BD80B582B000AF78607B68094A81
:103FCC0093420AD1084B93F835331846FFF788FD16
:103FDC0001220649034802F0CAFE00BF0837BD465D
:103FEC0080BD00BFFC0200204004002075070020AB
:103FFC0080B582B000AF084B7B604FF48872002113
:10400C00786803F0B5FC7B68002283F8052100BFBB
:10401C000837BD4680BD00BF4004002080B485B089
:10402C0000AF78607B685A787B689B785340FB7351
:10403C000023BB7309E0BB7B7A681344DA78FB7B03
:10404C005340FB73BB7B0133BB737B689B78BA7BA0
:10405C009A42F0D3FB7B18461437BD4680BC7047A0
:10406C0080B584B000AF78600B467B807B68002BFA
:10407C0002D07B88002B01D101230EE07A884FF40B
:10408C007A737968074802F0E7FD0346FB73FB7B04
:10409C00002B14BF01230023DBB218461037BD469A
:1040AC0080BD00BFFC02002080B582B000AF0A4B7F
:1040BC00D3F81833002B0BD0074B7B60064BD3F88F
:1040CC0018337A6850787A68D11C7A689278984755
:1040DC0000BF0837BD4680BD4004002080B400AF4F
:1040EC004FF480631846BD4680BC704780B400AF67
:1040FC0019231846BD4680BC7047000080B582B0BD
:10410C0000AF184B1B68B3F1804F01D0012324E0A2
:10411C004FF445620021144803F02AFCC022002110
:10412C00124803F025FC4FF4C063FB8007E0FB88CA
:10413C000D4A002122F81310FB880133FB80FB8809
:10414C00B3F5C56FF3D30A4BFF221A70084B00224C
:10415C005A70074B01229A70002318460837BD4647
:10416C0080BD00BF7002002078070020C81300201B
:10417C002C00002080B485B000AF03463A60FB7180
:10418C000B46BB71124B9B78002B01D101231AE01B
:10419C00FB79072B02D8BB79072B01D9012312E03D
:1041AC00FB79DB00DAB2BB791344FB73FA7B094968
:1041BC0013465B0013440B441A463B4619889B7804
:1041CC0011809370002318461437BD4680BC70478D
:1041DC002C000020C813002080B500AF064B9B7844
:1041EC00002B01D1012305E0C0220021034803F07C
:1041FC00BFFB0023184680BD2C000020C8130020F4
:10420C0080B500AF164B9B78002B01D1012324E025
:10421C00134B5B78002B01D002231EE000F07EF8DC
:10422C000F4B01225A704FF4C5620E490020FCF767
:10423C000BF94FF4C5630C4A00210C4801F0B4FB98
:10424C000346002B08D0064B00225A700849022066
:10425C00FCF7FAF8012300E00023184680BD00BFEC
:10426C002C0000205C9700087807002070020020CA
:10427C007897000880B400AF024B5B781846BD46B7
:10428C0080BC70472C00002080B485B000AF7860F3
:10429C00104B9B78002B01D1012315E00023FB73FD
:1042AC000EE0FA7B0C4913465B0013440B441A4690
:1042BC003B1D19889B7811809370FB7B0133FB733A
:1042CC00FB7B3F2BEDD9002318461437BD4680BC31
:1042DC00704700BF2C000020C813002080B582B0AE
:1042EC0000AF78607B681B68084A93420AD1084982
:1042FC000020FCF7A9F80021064801F0F7FC064B5A
:10430C0000225A7000BF0837BD4680BD58000240DD
:10431C009C970008700200202C00002080B485B00F
:10432C0000AF0023FB8100237B7366E07A7B374967
:10433C0013465B0013440B441B781A46344B1B7812
:10434C0002FB03F31B12BB727A7B304913465B00F2
:10435C0013440B4401331B781A462D4B1B7802FB7C
:10436C0003F31B127B727A7B284913465B001344C0
:10437C000B4402331B781A46254B1B7802FB03F3C4
:10438C001B123B727B7A3B71BB7A7B713B7ABB71A4
:10439C0000233B732BE00723FB7221E03B7B1033A4
:1043AC003B4413F80C3C1A4697F90B3042FA03F3D2
:1043BC0003F00103002B05D0FB89164A3A2122F8A1
:1043CC00131004E0FB89134A1D2122F81310FB89FA
:1043DC000133FB8197F90B30DBB2013BDBB2FB7293
:1043EC0097F90B30002BD9DA3B7B01333B733B7BCA
:1043FC00022BD0D97B7B01337B737B7B3F2B95D9F5
:10440C0000BF00BF1437BD4680BC7047C8130020E6
:10441C002C00002078070020FFF72CFA0B480C49E1
:10442C000C4A002302E0D458C4500433C4188C4204
:10443C00F9D3094A094C002301E013600432A2426B
:10444C00FBD303F0A3FAFCF76BFF704700000020CE
:10445C0088000020B49A000888000020D4150020A1
:10446C00FEE7000080B500AF084B1B68074A43F01D
:10447C0010031360032000F047F90F2000F008F838
:10448C00FFF772F80023184680BD00BF00200240E1
:10449C0080B582B000AF7860124B1A68124B1B7853
:1044AC0019464FF47A73B3FBF1F3B2FBF3F31846EE
:1044BC0000F05FF90346002B01D001230EE07B686E
:1044CC000F2B0AD8002279684FF0FF3000F027F943
:1044DC00064A7B681360002300E001231846083766
:1044EC00BD4680BD28000020340000203000002094
:1044FC0080B400AF054B1B781A46054B1B68134460
:10450C00034A136000BFBD4680BC704734000020D6
:10451C008814002080B400AF024B1B681846BD46BF
:10452C0080BC70478814002080B584B000AF7860E0
:10453C00FFF7F0FFB8607B68FB60FB68B3F1FF3FEF
:10454C0005D00A4B1B781A46FB681344FB6000BF6E
:10455C00FFF7E0FF0246BB68D31AFA689A42F7D815
:10456C0000BF00BF1037BD4680BD00BF3400002027
:10457C0080B485B000AF78607B6803F00703FB6004
:10458C000C4BDB68BB60BA684FF6FF031340BB6093
:10459C00FB681A02BB68134343F0BF6343F4003358
:1045AC00BB60044ABB68D36000BF1437BD4680BCF7
:1045BC00704700BF00ED00E080B400AF044BDB6837
:1045CC001B0A03F007031846BD4680BC704700BFAA
:1045DC0000ED00E080B483B000AF0346FB7197F9A7
:1045EC000730002B0BDBFB7903F01F02064997F910
:1045FC0007305B09012000FA02F241F8232000BFCA
:10460C000C37BD4680BC704700E100E080B483B03D
:10461C0000AF03463960FB7197F90730002B0ADBBA
:10462C003B68DAB20C4997F907301201D2B20B444D
:10463C0083F800230AE03B68DAB20849FB7903F0FF
:10464C000F03043B1201D2B20B441A7600BF0C3795
:10465C00BD4680BC704700BF00E100E000ED00E00B
:10466C0080B489B000AFF860B9607A60FB6803F081
:10467C000703FB61FB69C3F10703042B28BF042369
:10468C00BB61FB690433062B02D9FB69033B00E0D9
:10469C0000237B614FF0FF32BB6902FA03F3DA436C
:1046AC00BB681A407B699A404FF0FF317B6901FA75
:1046BC0003F3D9437B680B40134318462437BD469C
:1046CC0080BC704780B582B000AF78607B68013BDE
:1046DC00B3F1807F01D301230FE00A4A7B68013BD1
:1046EC0053600F214FF0FF30FFF790FF054B002276
:1046FC009A60044B07221A60002318460837BD46FF
:10470C0080BD00BF10E000E080B582B000AF7860E3
:10471C007868FFF72DFF00BF0837BD4680BD80B518
:10472C0086B000AF0346B9607A60FB7300237B61EF
:10473C00FFF742FF78617A68B9687869FFF790FFF4
:10474C00024697F90F3011461846FFF75FFF00BF7E
:10475C001837BD4680BD80B582B000AF0346FB71F3
:10476C0097F907301846FFF735FF00BF0837BD46ED
:10477C0080BD80B582B000AF78607868FFF7A2FF8B
:10478C00034618460837BD4680BD000080B485B08E
:10479C0000AF78600023FB607B68002B01D1012304
:1047AC0043E07B681B681A46224B1344224AA2FB47
:1047BC0003231B099A007B681A647B681F4ADA631F
:1047CC007B68022283F821207B681B681B68FB60D6
:1047DC00FB6823F47F5323F03003FB607B685A683B
:1047EC007B689B681A437B68DB681A437B681B6990
:1047FC001A437B685B691A437B689B691A437B6825
:10480C00DB691343FA681343FB607B681B68FA6827
:10481C001A607B6800229A637B68012283F821204E
:10482C007B68002283F82020002318461437BD46ED
:10483C0080BC7047F8FFFDBFCDCCCCCC0000024053
:10484C0080B586B000AFF860B9607A603B60002339
:10485C00FB75FB6893F82030012B01D102234BE050
:10486C00FB68012283F82020FB6893F82130DBB22F
:10487C00012B3AD1FB68022283F82120FB6800222D
:10488C009A63FB681B681A68FB681B6822F00102BC
:10489C001A603B687A68B968F86800F0EBF9FB6855
:1048AC00DB6A002B08D0FB681B681A68FB681B6866
:1048BC0042F00E021A600FE0FB681B681A68FB6876
:1048CC001B6822F004021A60FB681B681A68FB68FC
:1048DC001B6842F00A021A60FB681B681A68FB68C6
:1048EC001B6842F001021A6005E0FB68002283F8A5
:1048FC0020200223FB75FB7D18461837BD4680BD72
:10490C0080B485B000AF78600023FB737B6893F8AC
:10491C002130DBB2022B08D07B6804229A637B68BF
:10492C00002283F82020012320E07B681B681A6892
:10493C007B681B6822F00E021A607B681B681A6881
:10494C007B681B6822F001021A607B681A6C7B681A
:10495C00DB6B012101FA02F25A607B68012283F8B9
:10496C0021207B68002283F82020FB7B184614371B
:10497C00BD4680BC7047000080B584B000AF786045
:10498C000023FB737B6893F82130DBB2022B05D03C
:10499C007B6804229A630123FB7351E07B681B68DC
:1049AC001A687B681B6822F00E021A607B681B6811
:1049BC001A687B681B6822F001021A607B681B680E
:1049CC00224A934229D07B681B68214A934222D009
:1049DC007B681B681F4A93421AD07B681B681E4A6F
:1049EC00934212D07B681B681C4A93420AD07B68A6
:1049FC001B681B4A934202D14FF480130EE04FF018
:104A0C0080730BE04FF4803308E04FF4805305E0E3
:104A1C004FF4807302E0102300E00123114A53602D
:104A2C007B68012283F821207B68002283F82020F8
:104A3C007B685B6B002B03D07B685B6B786898475B
:104A4C00FB7B18461037BD4680BD00BF08000240F6
:104A5C001C0002403000024044000240580002405A
:104A6C006C0002400000024080B584B000AF78605A
:104A7C007B68DB6B1B68FB607B681B681B68BB601F
:104A8C007B681B6C04229A40FB681340002B4FD0B0
:104A9C00BB6803F00403002B4AD07B681B681B68BF
:104AAC0003F02003002B07D17B681B681A687B6816
:104ABC001B6822F004021A607B681B68664A9342EA
:104ACC0029D07B681B68654A934222D07B681B689F
:104ADC00634A93421AD07B681B68624A934212D095
:104AEC007B681B68604A93420AD07B681B685F4AEC
:104AFC00934202D14FF480030EE04FF080630BE041
:104B0C004FF4802308E04FF4804305E04FF48063BA
:104B1C0002E0402300E00423554A53607B68DB6AC3
:104B2C00002B00F094807B68DB6A786898478EE0F5
:104B3C007B681B6C02229A40FB681340002B56D0FA
:104B4C00BB6803F00203002B51D07B681B681B6809
:104B5C0003F02003002B0BD17B681B681A687B6861
:104B6C001B6822F00A021A607B68012283F821205C
:104B7C007B681B68384A934229D07B681B68374A8C
:104B8C00934222D07B681B68354A93421AD07B68CB
:104B9C001B68344A934212D07B681B68324A93429A
:104BAC000AD07B681B68314A934202D14FF4001340
:104BBC000EE04FF000730BE04FF4003308E04FF4BD
:104BCC00005305E04FF4007302E0202300E00223C1
:104BDC00274A53607B68002283F820207B689B6AFD
:104BEC00002B34D07B689B6A786898472FE07B68F1
:104BFC001B6C08229A40FB681340002B28D0BB6822
:104C0C0003F00803002B23D07B681B681A687B68B1
:104C1C001B6822F00E021A607B681A6C7B68DB6BD7
:104C2C00012101FA02F25A607B6801229A637B68C7
:104C3C00012283F821207B68002283F820207B68E6
:104C4C001B6B002B04D07B681B6B7868984700BFEC
:104C5C0000BF1037BD4680BD080002401C0002405A
:104C6C003000024044000240580002406C000240F8
:104C7C000000024080B485B000AFF860B9607A6083
:104C8C003B60FB681A6CFB68DB6B012101FA02F2DA
:104C9C005A60FB681B683A685A60FB685B68102BAB
:104CAC0008D1FB681B687A689A60FB681B68BA6855
:104CBC00DA6007E0FB681B68BA689A60FB681B68DF
:104CCC007A68DA6000BF1437BD4680BC70470000BC
:104CDC0080B48BB000AF7860396000237B62002316
:104CEC003B6269E101227B6A02FA03F3FB613B68D8
:104CFC001B68FA691340BB61BA69FB699A4240F0C0
:104D0C0058813B685B689A4A93425ED0984A9342BA
:104D1C0075D8984A934258D0964A93426FD8964A7F
:104D2C00934252D0944A934269D8944A93424CD0BD
:104D3C00924A934263D8924A934246D0904A934205
:104D4C005DD8122B2AD8122B59D801A252F823F075
:104D5C00D74D0008B14D0008C34D0008054E0008A2
:104D6C000B4E00080B4E00080B4E00080B4E0008B3
:104D7C000B4E00080B4E00080B4E00080B4E0008A3
:104D8C000B4E00080B4E00080B4E00080B4E000893
:104D9C000B4E0008B94D0008CD4D0008794A9342DE
:104DAC0013D02CE03B68DB683B6229E03B68DB6896
:104DBC0004333B6224E03B68DB6808333B621FE052
:104DCC003B68DB680C333B621AE03B689B68002B4A
:104DDC0002D104233B6213E03B689B68012B05D195
:104DEC0008233B627B68FA691A6109E008233B627D
:104DFC007B68FA695A6103E000233B6200E000BF64
:104E0C00BB69FF2B01D87B6801E07B6804337B61B5
:104E1C00BB69FF2B02D87B6A9B0002E07B6A083BD4
:104E2C009B003B617B691A680F213B6901FA03F314
:104E3C00DB431A40396A3B6901FA03F31A437B6975
:104E4C001A603B685B6803F08053002B00F0B18064
:104E5C004D4B9B694C4A43F0010393614A4B9B6950
:104E6C0003F00103BB60BB68484A7B6A9B080233B2
:104E7C0052F82330FB607B6A03F003039B000F2284
:104E8C0002FA03F3DB43FA681340FB607B68404A89
:104E9C00934213D07B683F4A93420DD07B683E4AC5
:104EAC00934207D07B683D4A934201D1032306E02D
:104EBC00042304E0022302E0012300E000237A6AC9
:104ECC0002F0030292009340FA681343FB602F49EF
:104EDC007B6A9B080233FA6841F823203B685B68C5
:104EEC0003F48013002B06D02D4B9A682C49BB6918
:104EFC0013438B6006E02A4B9A68BB69DB43284955
:104F0C0013408B603B685B6803F40013002B06D0E6
:104F1C00234BDA682249BB691343CB6006E0204B74
:104F2C00DA68BB69DB431E491340CB603B685B68A6
:104F3C0003F40033002B06D0194B5A681849BB698F
:104F4C0013434B6006E0164B5A68BB69DB431449AC
:104F5C0013404B603B685B6803F48033002B21D01B
:104F6C000F4B1A680E49BB6913430B6021E000BF5D
:104F7C00000032100000311000002210000021103F
:104F8C00000012100000111000100240000001403F
:104F9C0000080140000C01400010014000140140C9
:104FAC00000401400B4B1A68BB69DB4309491340F1
:104FBC000B607B6A01337B623B681A687B6A22FA5E
:104FCC0003F3002B7FF48EAE00BF00BF2C37BD4621
:104FDC0080BC70470004014080B485B000AF78609D
:104FEC000B467B807B689A687B881340002B02D031
:104FFC000123FB7301E00023FB73FB7B1846143782
:10500C00BD4680BC704780B483B000AF78600B465F
:10501C007B8013467B707B78002B03D07A887B686F
:10502C001A6103E07B881A047B681A6100BF0C3795
:10503C00BD4680BC7047000080B586B000AF78607C
:10504C007B68002B01D1012372E27B681B6803F0A3
:10505C000103002B00F08780924B5B6803F00C037C
:10506C00042B0CD08F4B5B6803F00C03082B12D174
:10507C008C4B5B6803F48033B3F5803F0BD1894BC9
:10508C001B6803F40033002B6CD07B685B68002B2F
:10509C0068D101234CE27B685B68B3F5803F06D195
:1050AC00804B1B687F4A43F4803313602EE07B688F
:1050BC005B68002B0CD17B4B1B687A4A23F4803342
:1050CC001360784B1B68774A23F4802313601DE030
:1050DC007B685B68B3F5A02F0CD1724B1B68714ACF
:1050EC0043F4802313606F4B1B686E4A43F4803388
:1050FC0013600BE06B4B1B686A4A23F4803313601C
:10510C00684B1B68674A23F4802313607B685B68D9
:10511C00002B13D0FFF7FEF9386108E0FFF7FAF91E
:10512C0002463B69D31A642B01D9032300E25D4B81
:10513C001B6803F40033002BF0D014E0FFF7EAF9FE
:10514C00386108E0FFF7E6F902463B69D31A642B95
:10515C0001D90323ECE1534B1B6803F40033002B00
:10516C00F0D100E000BF7B681B6803F00203002B4A
:10517C0063D04C4B5B6803F00C03002B0BD0494BFA
:10518C005B6803F00C03082B1CD1464B5B6803F4E3
:10519C008033002B16D1434B1B6803F00203002B0A
:1051AC0005D07B681B69012B01D00123C0E13D4B6D
:1051BC001B6823F0F8027B685B69DB0039491343F9
:1051CC000B603AE07B681B69002B20D0364B012228
:1051DC001A60FFF79FF9386108E0FFF79BF9024668
:1051EC003B69D31A022B01D90323A1E12D4B1B6878
:1051FC0003F00203002BF0D02A4B1B6823F0F802BB
:10520C007B685B69DB00274913430B6015E0264B79
:10521C0000221A60FFF77EF9386108E0FFF77AF98F
:10522C0002463B69D31A022B01D9032380E11D4BA3
:10523C001B6803F00203002BF0D17B681B6803F0A2
:10524C000803002B3AD07B689B69002B19D0174BB5
:10525C0001221A60FFF75EF9386108E0FFF75AF98E
:10526C0002463B69D31A022B01D9032360E10D4B93
:10527C005B6A03F00203002BF0D0012000F0CEFAA1
:10528C001CE00A4B00221A60FFF744F938610FE06A
:10529C00FFF740F902463B69D31A022B08D90323C6
:1052AC0046E100BF0010024000004242800442422E
:1052BC00924B5B6A03F00203002BE9D17B681B68FD
:1052CC0003F00403002B00F0A6800023FB758B4B2E
:1052DC00DB6903F08053002B0DD1884BDB69874AC7
:1052EC0043F08053D361854BDB6903F08053BB6083
:1052FC00BB680123FB75824B1B6803F48073002B86
:10530C0018D17F4B1B687E4A43F480731360FFF700
:10531C0001F9386108E0FFF7FDF802463B69D31A42
:10532C00642B01D9032303E1754B1B6803F48073D1
:10533C00002BF0D07B68DB68012B06D16F4B1B6A0E
:10534C006E4A43F0010313622DE07B68DB68002B8F
:10535C000CD16A4B1B6A694A23F001031362674B39
:10536C001B6A664A23F0040313621CE07B68DB684B
:10537C00052B0CD1614B1B6A604A43F0040313628A
:10538C005E4B1B6A5D4A43F0010313620BE05B4BFF
:10539C001B6A5A4A23F001031362584B1B6A574A83
:1053AC0023F0040313627B68DB68002B15D0FFF736
:1053BC00B1F838610AE0FFF7ADF802463B69D31A41
:1053CC0041F28832934201D90323B1E04B4B1B6A63
:1053DC0003F00203002BEED014E0FFF79BF83861CA
:1053EC000AE0FFF797F802463B69D31A41F288327C
:1053FC00934201D903239BE0404B1B6A03F0020349
:10540C00002BEED1FB7D012B05D13C4BDB693B4ADC
:10541C0023F08053D3617B68DB69002B00F087801D
:10542C00364B5B6803F00C03082B61D07B68DB699F
:10543C00022B46D1334B00221A60FFF76BF8386110
:10544C0008E0FFF767F802463B69D31A022B01D933
:10545C0003236DE0294B1B6803F00073002BF0D184
:10546C007B681B6AB3F5803F08D1244B5B6823F43F
:10547C0000327B689B68214913434B601F4B5B6870
:10548C0023F474127B68196A7B685B6A0B431B49B3
:10549C0013434B601B4B01221A60FFF73BF838613A
:1054AC0008E0FFF737F802463B69D31A022B01D903
:1054BC0003233DE0114B1B6803F00073002BF0D06D
:1054CC0035E0104B00221A60FFF724F8386108E031
:1054DC00FFF720F802463B69D31A022B01D90323AC
:1054EC0026E0064B1B6803F00073002BF0D11EE086
:1054FC007B68DB69012B07D1012319E00010024006
:10550C0000700040600042420B4B5B68FB60FB6824
:10551C0003F480327B681B6A9A4206D1FB6803F461
:10552C0070127B685B6A9A4201D0012300E0002371
:10553C0018461837BD4680BD0010024080B584B0B7
:10554C0000AF786039607B68002B01D10123D0E07B
:10555C006A4B1B6803F007033A689A4210D9674BF1
:10556C001B6823F0070265493B6813430B60634BD0
:10557C001B6803F007033A689A4201D00123B8E094
:10558C007B681B6803F00203002B20D07B681B6830
:10559C0003F00403002B05D0594B5B68584A43F4C5
:1055AC00E06353607B681B6803F00803002B05D095
:1055BC00534B5B68524A43F460535360504B5B68E7
:1055CC0023F0F0027B689B684D4913434B607B686A
:1055DC001B6803F00103002B40D07B685B68012B38
:1055EC0007D1474B1B6803F40033002B15D1012363
:1055FC007FE07B685B68022B07D1414B1B6803F093
:10560C000073002B09D1012373E03D4B1B6803F0A1
:10561C000203002B01D101236BE0394B5B6823F0B3
:10562C0003027B685B68364913434B60FEF772FFDD
:10563C00F8600AE0FEF76EFF0246FB68D31A41F2EF
:10564C008832934201D9032353E02D4B5B6803F05E
:10565C000C027B685B689B009A42EBD1274B1B6862
:10566C0003F007033A689A4210D2244B1B6823F0CC
:10567C00070222493B6813430B60204B1B6803F065
:10568C0007033A689A4201D0012332E07B681B6819
:10569C0003F00403002B08D0194B5B6823F4E06281
:1056AC007B68DB68164913434B607B681B6803F00F
:1056BC000803002B09D0124B5B6823F460527B6803
:1056CC001B69DB000E4913434B6000F021F80246C6
:1056DC000B4B5B681B0903F00F030A49CB5C22FAE6
:1056EC0003F3094A1360094B1B681846FEF7D0FEFA
:1056FC00002318461037BD4680BD00BF0020024075
:10570C0000100240449900082800002030000020BE
:10571C0080B487B000AF0023FB600023BB60002384
:10572C007B6100237B6000233B611E4B5B68FB604D
:10573C00FB6803F00C03042B02D0082B03D027E0EA
:10574C00194B3B6127E0FB689B0C03F00F03174AD6
:10575C00D35C7B60FB6803F48033002B10D0114BBF
:10576C005B685B0C03F00103114AD35CBB607B6884
:10577C000D4A03FB02F2BB68B2FBF3F37B6104E05E
:10578C007B680C4A02FB03F37B617B693B6102E0A3
:10579C00054B3B6100BF3B6918461C37BD4680BCBE
:1057AC00704700BF0010024000127A005C9900089C
:1057BC006C99000800093D0080B400AF024B1B68D7
:1057CC001846BD4680BC70472800002080B500AF4D
:1057DC00FFF7F2FF0246054B5B681B0A03F0070359
:1057EC000349CB5C22FA03F3184680BD001002403B
:1057FC005499000880B500AFFFF7DEFF0246054B59
:10580C005B68DB0A03F007030349CB5C22FA03F362
:10581C00184680BD001002405499000880B485B031
:10582C0000AF78600A4B1B680A4AA2FB03235B0A91
:10583C007A6802FB03F3FB6000BFFB685A1EFA6038
:10584C00002BF9D100BF00BF1437BD4680BC704798
:10585C0028000020D34D621080B582B000AF786074
:10586C007B68002B01D1012341E07B6893F83D302C
:10587C00DBB2002B06D17B68002283F83C207868D1
:10588C00FDF7A4FE7B68022283F83D207B681A6832
:10589C007B6804331946104600F06EFE7B680122CB
:1058AC0083F846207B68012283F83E207B68012226
:1058BC0083F83F207B68012283F840207B6801221B
:1058CC0083F841207B68012283F842207B68012207
:1058DC0083F843207B68012283F844207B680122F3
:1058EC0083F845207B68012283F83D20002318466D
:1058FC000837BD4680BD80B582B000AF78607B684C
:10590C00002B01D1012341E07B6893F83D30DBB2E1
:10591C00002B06D17B68002283F83C20786800F0CD
:10592C0039F87B68022283F83D207B681A687B6813
:10593C0004331946104600F01FFE7B68012283F8E1
:10594C0046207B68012283F83E207B68012283F885
:10595C003F207B68012283F840207B68012283F87A
:10596C0041207B68012283F842207B68012283F866
:10597C0043207B68012283F844207B68012283F852
:10598C0045207B68012283F83D2000231846083708
:10599C00BD4680BD80B483B000AF786000BF0C37CB
:1059AC00BD4680BC7047000080B586B000AFF86083
:1059BC00B9607A607B800023FB75BB68002B09D132
:1059CC00FB6893F83E30DBB2022B0CBF01230023A3
:1059DC00DBB222E0BB68042B09D1FB6893F83F30A3
:1059EC00DBB2022B0CBF01230023DBB215E0BB683A
:1059FC00082B09D1FB6893F84030DBB2022B0CBFAB
:105A0C0001230023DBB208E0FB6893F84130DBB2E2
:105A1C00022B0CBF01230023DBB2002B01D002238D
:105A2C0053E1BB68002B09D1FB6893F83E30DBB225
:105A3C00012B0CBF01230023DBB222E0BB68042B3B
:105A4C0009D1FB6893F83F30DBB2012B0CBF01236B
:105A5C000023DBB215E0BB68082B09D1FB6893F877
:105A6C004030DBB2012B0CBF01230023DBB208E07A
:105A7C00FB6893F84130DBB2012B0CBF01230023F0
:105A8C00DBB2002B24D07B68002B02D07B88002B50
:105A9C0001D1012319E1BB68002B04D1FB68022260
:105AAC0083F83E2016E0BB68042B04D1FB6802226D
:105ABC0083F83F200EE0BB68082B04D1FB68022260
:105ACC0083F8402006E0FB68022283F8412001E0C5
